:100000000C949E080C94C6080C94C6080C94C60860
:100010000C94C6080C94C6080C94C6080C94C60828
:100020000C94C6080C94C6080C9465160C94D4164F
:100030000C94C6080C94C6080C94C6080C94C60808
:100040000C94C6080C94B0190C94C6080C94C608FD
:100050000C94C6080C94C6080C94C6080C94061997
:100060000C94C6080C94C6080C94C6080C94C608D8
:100070000C94C6080C94C6080C94C6080C94C608C8
:100080000C9450190C94C6080C94C6080C94C6081D
:100090000C94C6080C94C6080C94C6080C94C608A8
:1000A0000C94C6080C94C6080C94C60805A84CCD40
:1000B000B2D44EB93836A9020C50B9918688083CA2
:1000C000A6AAAA2ABE000000803F00000000003E51
:1000D0005B4F5B3E3E6B4F6B3E1C3E7C3E1C183CB8
:1000E0007E3C181C577D571C1C5E7F5E1C00183C14
:1000F0001800FFE7C3E7FF0018241800FFE7DBE75D
:10010000FF30483A060E2629792926407F05050743
:10011000407F05253F5A3CE73C5A7F3E1C1C08089F
:100120001C1C3E7F14227F22145F5F005F5F060964
:100130007F017F006689956A606060606094A2FFBD
:10014000A29408047E040810207E201008082A1CAF
:1001500008081C2A08081E101010100C1E0C1E0C7B
:1001600030383E3830060E3E0E060000000000001B
:10017000005F00000007000700147F147F14242A8A
:100180007F2A12231308646236495620500008075C
:100190000300001C2241000041221C002A1C7F1C7D
:1001A0002A08083E0808008070300008080808087F
:1001B000000060600020100804023E5149453E00E6
:1001C000427F400072494949462141494D33181444
:1001D000127F1027454545393C4A49493141211193
:1001E00009073649494936464949291E0000140085
:1001F00000004034000000081422411414141414A8
:10020000004122140802015909063E415D594E7C05
:100210001211127C7F494949363E414141227F41BA
:1002200041413E7F494949417F090909013E414118
:1002300051737F0808087F00417F41002040413F03
:10024000017F081422417F404040407F021C027F12
:100250007F0408107F3E4141413E7F090909063E67
:100260004151215E7F091929462649494932030136
:100270007F01033F4040403F1F2040201F3F403848
:10028000403F631408146303047804036159494D23
:1002900043007F4141410204081020004141417F59
:1002A00004020102044040404040000307080020CF
:1002B000545478407F2844443838444444283844CF
:1002C00044287F385454541800087E090218A4A406
:1002D0009C787F0804047800447D40002040403D25
:1002E000007F1028440000417F40007C047804789F
:1002F0007C080404783844444438FC182424181832
:10030000242418FC7C08040408485454542404048D
:100310003F44243C4040207C1C2040201C3C40307A
:10032000403C44281028444C9090907C4464544CA9
:100330004400083641000000770000004136080004
:1003400002010204023C2623263C1EA1A161123AAE
:100350004040207A385454555921555579412154FB
:10036000547841215554784020545579400C1E5200
:1003700072123955555559395454545939555454A4
:10038000580000457C410002457D420001457C400B
:10039000F0292429F0F0282528F07C545545002028
:1003A00054547C547C0A097F4932494949323248C5
:1003B000484832324A4848303A4141217A3A42402C
:1003C0002078009DA0A07D39444444393D40404000
:1003D0003D3C24FF2424487E4943662B2FFC2F2BD1
:1003E000FF0929F620C0887E090320545479410072
:1003F00000447D413048484A32384040227A007AF1
:100400000A0A727D0D19317D2629292F28262929CE
:10041000292630484D4020380808080808080808F0
:10042000382F10C8ACBA2F102834FA00007B000017
:1004300008142A142222142A14089500220095AACE
:10044000005500AAAA55AA55AA000000FF001010E6
:1004500010FF00141414FF001010FF00FF1010F024
:1004600010F0141414FC001414F700FF0000FF0037
:10047000FF1414F404FC141417101F10101F101F85
:100480001414141F00101010F0000000001F1010B2
:1004900010101F10101010F010000000FF101010AE
:1004A000101010101010FF10000000FF140000FFCB
:1004B00000FF00001F10170000FC04F414141710B4
:1004C000171414F404F40000FF00F71414141414A7
:1004D0001414F700F7141414171410101F101F141D
:1004E0001414F4141010F010F000001F101F00007E
:1004F000001F14000000FC140000F010F01010FFAA
:1005000010FF141414FF141010101F00000000F04E
:1005100010FFFFFFFFFFF0F0F0F0F0FFFFFF000023
:10052000000000FFFF0F0F0F0F0F38444438447CCA
:100530002A2A3E147E02020606027E027E026355CD
:100540004941633844443C04407E201E2006027E1C
:10055000020299A5E7A5991C2A492A1C4C7201722E
:100560004C304A4D4D303048784830BC625A463D98
:100570003E494949007E0101017E2A2A2A2A2A444D
:10058000445F444440514A444040444A5140000082
:10059000FF0103E080FF000008086B6B083612368D
:1005A0002436060F090F060000181800000010106E
:1005B000003040FF0101001F01011E00191D17122C
:1005C000003C3C3C3C000000000000B00000A1707A
:1005D000E150964F26900F1D070C009669004AE4E3
:1005E0004A0048444000806810000F99FB8F9DBD71
:1005F000BBFB77D4D4DF1F1A1AFE7F5D5DFF805AE4
:100600000000A0A4AA0010BA3400FF5953F3FF9BC6
:100610009B9EFFB9B996FF9595D19FF4940FFC2945
:100620005F91FF1838F8FF9294FFFF95D5F7BFB59B
:10063000DDD7F18F81F1F788C8F779C6467909FDD2
:100640009B090196F8008281828050716200775682
:10065000560076763700A2B7730107720600782736
:10066000500073347400775176007F55F70047715E
:100670001000324772007364730015A27500616741
:100680009400009F6060F4F2F6F200000000240085
:1006900027002A002D00300000000000250028005F
:1006A0002B002E0031000408020110408040102071
:1006B0004080408008020401804020100201108028
:1006C0001020404020040404040403040502020234
:1006D00002040302020202060606060606040402DB
:1006E0000202040406011501260137014A015D01D9
:1006F000720188019F01B801D201EE010B022A02AA
:100700004B026E029302BA02E40210033F0370032D
:10071000A403DC03170455049704DD0427057505BD
:10072000C80520067D06E0064907B8072D08A90878
:100730002D09B9094D0AEA0A900B400CFA0CC00DBC
:10074000910E6F0F5A1053115B1272139A14D41535
:1007500020178018F519801B231DDE1EB420A62249
:10076000B524E4263429A72B402E0031EA33003784
:10077000453ABC3D68414C456B49C84D68524F579E
:10078000805C006210111213151617181A1C1D1F19
:1007900021232527292C2E3134373A3E4145494E15
:1007A00052575C62686E757B838B939CA5AFB9C40E
:1007B000D0DCE9F7F0F89C8E8783878E9CF8F000F8
:1007C00000FEFF0303030303070EFCF80000FEFF17
:1007D0000303030303070EFCF80000FFFF00000003
:1007E00000000000FFFF0000FEFF8383838383C7B8
:1007F000EE7C380000F8FC0E07030303070EFCF83C
:1008000000003F7FE0C08080C0E07F3FFFFF01012C
:100810000101010101FFFF0000FFFF0C0C0C0C1C8B
:100820003E77E3C100007FFFC0C0C0C0C0E0703FA2
:100830001F00001F3F70E0C0C0C0E0703F1F0000FD
:100840007FFFC1C1C1C1C1E3773E1C00001F3F70E3
:10085000E0C0C0C0E0703F1F000000000001FFFFCB
:1008600001000000D5F08D14A1C881CFD9F1AF20CF
:1008700000029A903E00A6904000A6904200A690EA
:100880004000A6904300A6904200A6904000A6908B
:100890003E00A6904500A6904300A6904200A69078
:1008A0004000A69132904200A69134903E00A6915D
:1008B00036904500A6913400A69047913700A69146
:1008C0003600A69049913400379047003790490090
:1008D000379132904A00A6913990490053904A00CE
:1008E000539137904900A6913690470053904500A8
:1008F000539134007D8000299049913600A6904A9A
:10090000913200A6904C913900A6904900A6912DF5
:10091000904E00A6904A00A69139904900A69047B3
:10092000008A81001B9139904C00A6904900A69145
:100930002D904A00A6904700A69139904500A690B8
:1009400044008A81001B9139904C00A6904900A672
:10095000912D904E00A6904A00A69139904900A68C
:100960009047008A81001B9139904C00A690490065
:10097000A6912D904A00A6904700A6913990450077
:10098000A69044008A81001B9139904900A69047A7
:1009900000A6913B904A00A6904900A6913D904741
:1009A00000A6904500A6913E904E00A6913D00A65F
:1009B0009044914000A6913E00A69045913D00A62E
:1009C000913B00A6913D001B80001B904700379093
:1009D000450037913E9044003790450037904700DE
:1009E0001B80001B90479140014D913400A690451B
:1009F00000A69139904500A6913400A6913600A634
:100A0000913800A691398000A6913B00A6913D0047
:100A1000A6913B00A6904C913E00A6913D00A69069
:100A200051913B00A6913900A6914000A690470045
:100A3000A69134904900A6904B00A6904C8100A648
:100A4000904E00A6904F00A6904E00A6913B90516C
:100A500000A6904F00A69140904E00A6904C00A694
:100A6000905300A6913600A69047913800A6913A7F
:100A700000A6913B8000A6913D00A6913E00A69164
:100A80003D00A69042914000A6913E00A69047915D
:100A90003D00A6913B00A6914200A6904600A6917B
:100AA00036904700A6904900A69140904A00A69033
:100AB0004C00A6913E904E00A6904C00A691479007
:100AC0004F00A69146904E00A69147904C00A690EC
:100AD0004A00A6913D904C00A6904A00A6914690EF
:100AE0004E00A69144904C00A69146904A00A690D4
:100AF0004900A69147904A00A69145904900A691C9
:100B000043904C00A69142904A00A6914090490023
:100B1000A6913E904700A69140904900A6913E00C4
:100B2000A690469142005390440053914090460055
:100B3000A6913E904700A6913D00A6913E00A6904A
:100B4000499140008A80001B904991420053904A8D
:100B50000053904900A6913600A6904700A6913B0D
:100B600000A6904200A69136904400A6904600A6AA
:100B70009132904700A6904900A6912F904A00A676
:100B8000904900A6904C00A6904A00A6904981008A
:100B9000A6904700A6904F00A6912F00A691310085
:100BA000A6913300A6913400A6913600A691370095
:100BB000A6913600A6913900A6913700A69136007D
:100BC000A6913400A69139008A80001B904000A6AF
:100BD000904200A6904400A6904500A6904700A62B
:100BE000904900A6904700A6904A00A6904900A60A
:100BF000904700A6904500A6904E008A81001B9168
:100C00002D00A6912F00A6913100A6913200A69149
:100C10003400A6913600A6913400A6913700A69123
:100C20003600A6913400A6913200A69138008A8041
:100C3000001B904700A6904C00A69134904A00A655
:100C40009136904900A69138904700A69139904975
:100C500000A69138904700A69136904A00A691349C
:100C6000904900A69132904700A69136904500A683
:100C7000913490440053904500539132904400A623
:100C80009131904000A6912F00A69045913100A689
:100C90009047912D00A69049913900A6904700A653
:100CA0009136904A00A6904900A69131904700A63F
:100CB000904500A69132904E00A6913100A6913445
:100CC00000A69044913200A69045913100A6904430
:100CD000912F00A69045913100A6904A913200A62E
:100CE00090479134014D912800A69045008A8000DC
:100CF0001B9045912D00A6913100A6913200A6903F
:100D000049913400A6904A913600A6904C91370044
:100D1000A69042913900A6913700A69043913B00DE
:100D2000A6913900A6904791370053904500539102
:100D30003690430053904500539137904700A69159
:100D40003600A6904A91390053904900539137904C
:100D5000470053904900539136904A00A6913400C1
:100D6000A6913600A69049913400A6904C91370088
:100D7000A6904A913600A69049913400A6904A91D7
:100D80003200A6904C913900A6904A00A6912D9071
:100D90004900A6904700A690458100A6904300A672
:100DA000904200A6904000A6904300A6904200A664
:100DB000904000A6903E00A6904500A6904300A655
:100DC000904200A6904000A69132904200A6913435
:100DD000903E00A69136904500A6913400A690471B
:100DE000913700A6913600A690499134003790477C
:100DF0000037904900379132904A00A691399049C6
:100E00000053904A00539137904900A6913690477D
:100E10000053904500539134007D800029904A9101
:100E20003600A69132008A80001B904A913900A6B4
:100E3000913600A6903E913B00A6913700A6904ABD
:100E4000913600A69134008A80001B904A913900A7
:100E5000A6913600A6903E913700A6913400A69048
:100E60004A913200A69131008A80001B904A913944
:100E700000A6913600A6903E913B00A6913700A6B1
:100E8000904A913600A69134008A80001B904A91C6
:100E90003900A6913600A6903E913700A691340005
:100EA000A6904A913200A6904C913100A6904E91A6
:100EB0003200A6904C00A69134904F00A6904E00B0
:100EC000A69136904C00A6904A00A6913790530008
:100ED000A6913600A69049913900A6913700A690B8
:100EE0004A913600A6913400A69136001B80001B63
:100EF000904C0037904A0037913790490037904A1C
:100F00000037904C002980000D904C9139014D9193
:100F10002D00A6904A008A80001B904A912F00A6BF
:100F2000912D00A6903E913000A6912F00A69043EF
:100F3000912D00A6912B00A6913200A6903900A613
:100F4000903B00A6903D00A6903E00A6904000A6D3
:100F50009042008A81001B9131904000A6912F9011
:100F60004300A6912D904200A6912B904000A6919F
:100F70002A903E00A6912B904700A6912A00A691A8
:100F80002D00A6903D912B00A6903E912A00A690A0
:100F90003D912800A6903E912A00A69043912B00F7
:100FA000A69040912D01F4903E008A80001B903E57
:100FB000912607D08081F020444156494C2050456D
:100FC0004E44554C554D20574F524C440A20202832
:100FD0004348414F532076657273696F6E20312EFE
:100FE0003032290A20204C4546543A206D6F7665F0
:100FF0004C6566740A2052494748543A206D6F7612
:101000006552696768740A2020202020413A206ACE
:10101000756D700A2020202020423A206D61696E93
:101020004D656E750A2041202B20423A2045786993
:10103000740A20205072657373204120746F2073EE
:1010400074617274005072657373204120746F2054
:1010500052657472790047414D45204F5645520004
:10106000594F552057494E204348414F5321283B63
:10107000004C6576656C3A200050726573732042AF
:1010800020746F204261636B0048494748205343F6
:101090004F524553005072657373204220746F2085
:1010A0004261636B0053455454494E475300536F9C
:1010B000756E643A204F6E00536F756E643A204F20
:1010C0006666004D41494E204D454E5500080B00C7
:1010D00002020200000904000001020200000524CF
:1010E0000010010524010101042402060524060064
:1010F000010705810310004009040100020A0000F5
:1011000000070502024000000705830240000004BA
:1011100003090412010002EF02014041233680005E
:10112000010102030141726475696E6F204C4C43EA
:101130000041726475626F790000541A11241FBE59
:10114000CFEFDAE0DEBFCDBF12E0A0E0B1E0E6E82D
:10115000F9E502C005900D92AA37B107D9F72AE048
:10116000AAE7B2E001C01D92AF30B207E1F718E084
:10117000CEE9D8E004C02197FE010E94BB2CCD39F6
:10118000D107C9F70E949A1A0C94C12C0C94000044
:1011900080919F020895E6EFF5E0A0E0B8E00080BE
:1011A0000EBC8111012C1197A0FDFDCF0192B9F762
:1011B0000DB40895E1E0F0E00E94EF08319728F0C7
:1011C00068517C4F8F4F9F4FF9CFAB01FC010E94BC
:1011D000EF08641775078E079F07C8F30895ABE9FA
:1011E000B2E02FB7F8947D918D919C9166B52FBF99
:1011F000A89B05C06F3F18F47F5F8F4F9F4F22E081
:10120000660F771F881F991F2A95D1F70895FC0153
:101210008091A305882311F13FB7F89482E0809371
:10122000E9002091F200822F90E01816190614F4BC
:1012300081E090E0882339F0289844E64093A205A5
:101240004091F1004083222339F02091F2002111D6
:1012500003C02BE62093E8003FBF08958FEF9FEF78
:1012600008952FB7F89483E08093E9009091E80007
:10127000892F807295FF04C09091F20080E4891B51
:101280002FBF089580919A0581110DC082E080934F
:10129000960584E080939705109299051092980521
:1012A00081E080939A0586E995E008958F929F9258
:1012B000AF92BF92CF92DF92EF92FF920F931F9364
:1012C000CF93DF936C017B018A0180913E018823DB
:1012D00009F458C08091A305882309F453C0809174
:1012E000950580FF05C08091E00082608093E0005A
:1012F000E801B12C8AEFA82E93E0892E2AE3922EE2
:10130000209711F4BB20B9F10E943109811106C068
:10131000AA94AA20B9F10E94DA08F2CF8C171D0610
:1013200011F00CF08C2F9FB7F8948092E900209177
:10133000E80025FD02C09FBFE3CF282F30E0C21B8D
:10134000D30BF701815020F041914093F100FACF87
:10135000E20EF31EBB2021F09092E800B12CEBCFFF
:101360008091E80085FDE7CF9092E800BB24B3941C
:10137000209709F3F3CF5D9884E6809394051016C7
:1013800011063CF081E090E0F6019383828310E047
:1013900000E0C801DF91CF911F910F91FF90EF9076
:1013A000DF90CF90BF90AF909F908F900895CF9394
:1013B000DF931F92CDB7DEB76983DC01ED91FC911D
:1013C0000280F381E02D41E050E0BE016F5F7F4F6E
:1013D00009950F90DF91CF91089583E08093E90004
:1013E0008091F200882319F08AE38093E800089541
:1013F0000E94310990E00895CF93DF931F92CDB7FB
:10140000DEB7FC018485958597FD08C02FEF3FEF7F
:10141000358724870F90DF91CF910895CE010196F3
:101420000E940709019719F4898190E0F3CF8FEFAB
:101430009FEFF0CF0F931F93CF93DF931F92CDB702
:10144000DEB78C01FC018485958597FF0BC0CE012A
:1014500001960E940709019771F4898190E0F801D3
:1014600095878487F801848595850F90DF91CF91CA
:101470001F910F9108958FEF9FEFF1CFFC018485AD
:10148000958597FD0BC09FB7F89482E08093E900A3
:101490008091F2009FBF90E0019608959FB7F89465
:1014A00082E08093E9008091F2009FBF90E0089570
:1014B000409190055091910520918E0530918F05B6
:1014C00042175307B4F49091E8009570E1F39091BE
:1014D000E80092FD19C08093F100809190059091F1
:1014E000910501968F739927892B19F48EEF8093BC
:1014F000E800809190059091910501969093910557
:101500008093900581E0089580E00895DF92EF9246
:10151000FF920F931F93CF93DF93D82E8A01EB0195
:101520007B01E40EF51ECE15DF0559F0D7FE12C083
:10153000FE0184910E94580A21968111F4CF0FEF89
:101540001FEFC801DF91CF911F910F91FF90EF9096
:10155000DF9008958881EECF0F931F93CF93DF9391
:101560001F92CDB7DEB782E0898342E450E06DEC94
:1015700070E180E80E94860A0E944209DC0112960E
:101580000D911C910115110589F0D801ED91FC9187
:101590000280F381E02DBE016F5F7F4FC801099586
:1015A00097FD04C0F80100851185ECCF89810F906B
:1015B000DF91CF911F910F910895615030F02091EC
:1015C000F100FC0120830196F8CF289884E68093EF
:1015D000A2050895EF92FF920F931F93CF93DF938D
:1015E0008C017B01D0E0C0E0F701EC0FFD1F64919E
:1015F000662361F0D801ED91FC910190F081E02D1E
:10160000C8010995892B11F02196EECFCE01DF910B
:10161000CF911F910F91FF90EF900895AF92BF92DD
:10162000CF92DF92EF92FF920F931F93CF93DF93AE
:101630006C017B018B01040F151FEB015E01AE18DD
:10164000BF08C017D10759F06991D601ED91FC91FF
:101650000190F081E02DC6010995892B79F7C5012C
:10166000DF91CF911F910F91FF90EF90DF90CF907E
:10167000BF90AF900895CF92DF92EF92FF921F93A9
:10168000CF93DF93E82FF0E0ED5BFE4F1081E62F64
:10169000F0E0603398F5EC57F84FE491CE2FD0E0AE
:1016A000F12CE12C60E074E284EF90E0A7019E0150
:1016B0000E945829215031094109510991E0211511
:1016C000310581E0480751056CF060E970ED83E079
:1016D00090E0A7019E010E9458292150310941093B
:1016E000510993E0113089F0133039F1DF91CF9136
:1016F0001F91FF90EF90DF90CF900895EE0FFF1FA6
:10170000EC57F94FC591D491CBCF809198028111BC
:10171000EDCF80918100887F892B80938100309369
:101720008900209388001092850010928400809197
:101730006F00826080936F00D9CF80919100887F85
:10174000892B8093910030939900209398001092F8
:10175000950010929400D0939702C093960281E076
:101760008093950280917100826080937100BECF5A
:10177000E82FF0E0ED5BFE4F8081813019F083307F
:10178000A9F008958091980281110FC080916F0097
:101790008D7F80936F0080918702E0918502F091A8
:1017A0008602908180958923808308951092950206
:1017B000809194028111F9CF80919202E091900280
:1017C000F0919102EECFCF93DF93D1E0E091A102AF
:1017D000F091A202AF014F5F5F4F5093A20240937E
:1017E000A1022491822F807FC22FCF70803821F4F4
:1017F0008C2F0E94B80BEACF803919F5E091F405DF
:10180000F091F50509958D2780939302E091A1024F
:10181000F091A202CF0101969093A2028093A102BF
:10182000649180918402C81788F6C13021F48091B8
:1018300083028111CBCF67FDC9CF8C2F0E943B0B58
:10184000C5CF87FD3CC03296F093A202E093A1027F
:10185000FA014491A0919602B0919702322F242F61
:101860000E94AC296C507E4F8F4F9F4F28EE33E083
:1018700040E050E00E948A2920938C0230938D0230
:1018800040938E0250938F0280918C0290918D0232
:10189000A0918E02B0918F02892B8A2B8B2B61F441
:1018A00081E090E0A0E0B0E080938C0290938D0204
:1018B000A0938E02B0938F02DF91CF910895803E66
:1018C00049F48091A3029091A4029093A202809384
:1018D000A1027CCF803F09F079CF1092A002ECCF1B
:1018E00090918402923009F471C0292F30E0F901FF
:1018F000ED5BFE4F40812F573D4FF90180839130C2
:1019000031F420918102281302C0909383029F5FDB
:101910009093840290E0FC01EB53F94F24918A5597
:10192000994FFC01849130E0220F331FF901E856F2
:10193000F94F65917491F901E657F94FA591B4916A
:101940009C91982B9C93413019F04330D9F0089525
:1019500090916400977F90936400109280001092A1
:101960008100909181009860909381009091810016
:1019700091609093810070938602609385028093BA
:101980008702089590916500977F9093650010926B
:101990009000109291009091910098609093910026
:1019A0009091910091609093910070939102609357
:1019B00090028093920280918402882321F06CE34C
:1019C00080E00E943B0B80E00C94B80B08956F926E
:1019D0007F928F929F92AF92BF92CF92DF92EF92BF
:1019E000FF920F931F93CF93DF934C017B01C22F84
:1019F000102F98E0A92EB12C642E669466946694FC
:101A0000712CCA0187709927892B79F5D401179613
:101A10002D913C91C7019927B9010E94932C269DD5
:101A2000F001279DF00D369DF00D11248E0F9F1FA4
:101A3000D4011596ED91FC91E80FF91F2081111149
:101A400012C0C095C223C083DF91CF911F910F9127
:101A5000FF90EF90DF90CF90BF90AF909F908F90CE
:101A60007F906F900895C22BEECFD0E04770C42EC8
:101A7000D12C83E0660C771C8A95E1F79E0101C0AA
:101A8000220F4A95EAF7012FA301B701C4010E9472
:101A9000E70CA301485F5F4FC5018C199D0902C087
:101AA000D595C7958A95E2F7A7CF5F926F927F92FF
:101AB0008F929F92AF92BF92CF92DF92EF92FF925E
:101AC0000F931F93CF93DF93EC016A30F1F48D8570
:101AD0009E859C878B878C892F853889820F932FD1
:101AE000911D988B8F8781E090E0DF91CF911F91BE
:101AF0000F91FF90EF90DF90CF90BF90AF909F90AD
:101B00008F907F906F905F900895AB84BC84693014
:101B100031F429E0A20EB11CBC86AB86E4CF3DEFC8
:101B2000A3163FEFB3060CF45DC08F819885A8160D
:101B3000B9060CF057C0CF84D8888DEFC8168FEF48
:101B4000D8060CF44FC089859A85C816D9060CF0C2
:101B500049C0603208F46FE780EE860F9FE9960F68
:101B60009A3118F49FEFC91AD90A8C3011F08B31D1
:101B700019F42FEFC21AD20A869534E0839FC00170
:101B800011249C0126533A4F7901912C812C162F58
:101B90001170F701E80DF91D549011112DC0352D6C
:101BA0003F70532E3501680C791C8C81882361F0BD
:101BB00001E089899A89892B09F000E02FE0A601CC
:101BC000B301CE010E94E70C0989252DA601B301BE
:101BD000CE010E94E70C8FEF881A980A94E08916CC
:101BE0009104B9F68B8990E004962B853C85820F91
:101BF000931F9C878B8777CF52948FE05822D2CF48
:101C00002D9A0895BC0190E080E0AB01FC010E9498
:101C1000EF0841505109E109F10928F068517C4F62
:101C20008F4F9F4FF6CFAB01FC010E94EF08641766
:101C300075078E079F07C8F308958FB18095807F41
:101C4000669B88601C9B8460089581E083BF8895B3
:101C500013BE08951092860520E42093C00090934F
:101C6000BF008093D100089510929F023E983F9844
:101C700008953E9A3F9A81E080939F02089580E004
:101C8000E6EFF5E081118FEF00248193819381933A
:101C900081930394D1F710928105109280051092E0
:101CA000830510928205089590918705982329F461
:101CB00090918805982381E009F480E00895CF93FE
:101CC000C82F0E941D0E982F9C2381E09C1380E05A
:101CD000CF91089580E00C94CB0880389105B8F43A
:101CE00060347105A0F420E191E061FD94E060FDB5
:101CF000990F62FD9295687F269FD0011124A80F4D
:101D0000AA50BA4F8C9140FF03C0892B8C93089541
:101D100090958923FBCFEF92FF920F931F93CF9360
:101D2000DF937C018B01040F111DEB0177FF02C0D3
:101D3000D0E0C0E0C8010134110514F080E490E067
:101D4000C817D9073CF441E0BE01C7010E946D0EDF
:101D50002196F0CFDF91CF911F910F91FF90EF90DF
:101D600008952F923F924F925F926F927F928F923F
:101D70009F92AF92BF92CF92DF92EF92FF920F931A
:101D80001F93CF93DF9300D01F92CDB7DEB76C01C6
:101D90005B01242F30E03B832A83440F4F5F621B9B
:101DA000730B0E948B0E01E010E08A819B81081B5F
:101DB000190B1C01319421943108220C331C662428
:101DC0006394712CF12CE12C17FD0BC02A813B810F
:101DD000215031093B832A8332E0230E311C020D4E
:101DE000131D8FEFE81AF80A92E0690E711C060DB8
:101DF000171D8A81880F8F5F8983482F25012A81CB
:101E00003B81421A530AB201C7018C0D9D1D0E94ED
:101E10008B0E45018E189F08462DB4018A819B8147
:101E20008C0D9D1D0E948B0E4981B201C6018E1939
:101E30009F090E948B0E462DB401C6012A813B8169
:101E4000821B930B0E948B0E8A819B81E816F906F8
:101E50000CF4BACF0F900F900F90DF91CF911F919C
:101E60000F91FF90EF90DF90CF90BF90AF909F9039
:101E70008F907F906F905F904F903F902F9008953C
:101E80002F923F924F925F926F927F928F929F928A
:101E9000AF92BF92CF92DF92EF92FF920F931F9378
:101EA000CF93DF93EC018B017A016901C61AD70A3F
:101EB000D7FE03C0D194C194D10847018C1A9D0A62
:101EC00097FE03C09194819491088C149D0454F45E
:101ED0009E2D8F2D7901292F382F9C2F8D2FE801D2
:101EE000092F182FEC16FD0654F4902F812F89012D
:101EF000292F382F9C2F8D2FE701E92EF82E17015F
:101F00002C1A3D0A2901401A510A57FE03C0519468
:101F100041945108310137FE03C08FEF681A780AE7
:101F2000759467948FEF021713070CF481E0A82EC5
:101F3000880FBB08EC16FD06A4F041E0BE01C80105
:101F40008C149D0414F0B801CE010E946D0E64182B
:101F5000750877FE04C00A0D1B1D620C731C2196C8
:101F6000E9CFDF91CF911F910F91FF90EF90DF901C
:101F7000CF90BF90AF909F908F907F906F905F9029
:101F80004F903F902F9008958F929F92AF92BF9263
:101F9000CF92DF92EF92FF920F931F93CF93DF9335
:101FA0006D3089F0C0908005D09081056A30D1F401
:101FB000109283051092820588E0C80ED11CD09241
:101FC0008105C092800581E090E0DF91CF911F9163
:101FD0000F91FF90EF90DF90CF90BF90AF909F90C8
:101FE0008F9008950091820510918305E5E06E9F22
:101FF000E0011124C653DF4F4801F12CF5E0E12C3C
:10200000FF1629F0CE010196FE01E490EC01B12CFF
:10201000A12C4E2D4170B6016A0D7B1DC4010E949A
:102020006D0EE694FFEFAF1ABF0A88E0A816B10460
:1020300081F7F394EFEF8E1A9E0AF6E0FF12DECFDF
:102040000A5F1F4F1093830500938205BCCF08954C
:1020500090E080E00895FB0101900020E9F73197BE
:10206000AF01461B570BDC01ED91FC910280F3811F
:10207000E02D09948F929F92AF92BF92EF92FF92C0
:102080000F931F93CF93DF93CDB7DEB7A1970FB612
:10209000F894DEBF0FBECDBF7C01FA01CB0119A2BF
:1020A000223008F42AE08E010F5D1F4F822E912C02
:1020B000B12CA12CBF01A50194010E948A29F9012C
:1020C000CA016A300CF5605DD8016E938D01232B37
:1020D000242B252B79F790E080E0109721F0BD01AB
:1020E000C7010E942B10A1960FB6F894DEBF0FBE59
:1020F000CDBFDF91CF911F910F91FF90EF90BF90D7
:10210000AF909F908F900895695CDECFCF92DF9261
:10211000EF92FF920F931F93CF93DF936B01770F93
:10212000EE08FF08F7FE1FC0EC01E881F98101907D
:10213000F081E02D6DE209958C0144275527BA0105
:102140004C195D096E097F092AE0CE010E943A1000
:10215000800F911FDF91CF911F910F91FF90EF9012
:10216000DF90CF9008952AE0B701A601DF91CF91CB
:102170001F910F91FF90EF90DF90CF900C943A1049
:102180004F925F926F927F928F929F92AF92BF9287
:10219000CF92DF92EF92FF920F931F93CF936B0139
:1021A0007C01742EAC019B010E94452C66E771E016
:1021B000811126C046015701E894B7F82FEF3FEF91
:1021C0004FE75FE7C501B4010E94452C81110CC0A7
:1021D0002FEF3FEF4FE75FE7C501B4010E94282AC8
:1021E0006AE771E0181664F02FEF3FEF4FE75FE406
:1021F000C701B6010E94CB2B1816ACF46EE771E054
:1022000086EF99E0CF911F910F91FF90EF90DF90B3
:10221000CF90BF90AF909F908F907F906F905F9086
:102220004F900C942B102FEF3FEF4FE75FECC7015F
:10223000B6010E94282A87FDE1CF20E030E0A90105
:10224000C701B6010E94282A10E000E087FF0AC0FB
:102250006DE286EF99E00E94550D8C01F7FAF0943B
:10226000F7F8F094C0E060E070E080E09FE37C1657
:1022700041F020E030E040E251E40E94322ACF5F9A
:10228000F6CFA70196010E94BC292B013C010E94B8
:10229000AB2A4B015C012AE0BC01A40186EF99E066
:1022A0000E943A107C01E00EF11ECC23D1F1C50151
:1022B000B4010E94DA2A9B01AC01C301B2010E9461
:1022C000BB294B015C016EE286EF99E00E94550D3F
:1022D000E80EF91EC15028F120E030E040E251E460
:1022E000C501B4010E94D02B2B013C010E94AB2AF6
:1022F0004B01B12CA12C2AE0B501A40186EF99E095
:102300000E943A10E80EF91EC501B4010E94DA2AB3
:102310009B01AC01C301B2010E94BB294B015C01CE
:10232000D9CFC701CF911F910F91FF90EF90DF9010
:10233000CF90BF90AF909F908F907F906F905F9065
:102340004F9008950C942B104F925F926F927F9252
:102350008F929F92AF92BF92CF92DF92EF92FF92B5
:10236000CF93DF9300D000D01F92CDB7DEB70E948D
:10237000EA286B017C010E94EA2869837A838B83B7
:102380009C83E091F405F091F5050995882309F403
:1023900070C080918402823008F46BC0C701B6011E
:1023A0002CE637E040E050E00E9458294B015C01E8
:1023B00024E6820E911CA11CB11C81E0809398023E
:1023C0008091800280939402240135016624772451
:1023D00060E072E18AE790E0A30192010E9458292F
:1023E00069017A0181E0C81AD108E108F108C11435
:1023F000D10491E0E906F1040CF04FC021E02D83F7
:1024000069817A818B819C8120E530E040E050E059
:102410000E9458299B01AC012C5E3F4F4F4F5F4FEC
:1024200080918100887F9D81892B80938100211577
:1024300031054105510509F442C0D401AA0FBB1F63
:102440000E94772928EE33E040E050E00E948A297C
:10245000D0928900C092880020938802309389022C
:1024600040938A0250938B0280916F008260809328
:102470006F000F900F900F900F900F90DF91CF9102
:10248000FF90EF90DF90CF90BF90AF909F908F9094
:102490007F906F905F904F90089568E478EE81E0B0
:1024A00090E0A30192010E94582969017A0181E01C
:1024B000C81AD108E108F10893E09D83A1CF2FEF5E
:1024C0003FEFA901C5CF0E94EA2820E830E040E0B4
:1024D00050E00E9458297093BD026093BC020E9494
:1024E000EA2820E430E040E050E00E945829709350
:1024F000BF026093BE0281E08093C00208958BED1D
:102500009FE0A9ECBFE380931B0190931C01A09373
:102510001D01B0931E018093170190931801A093A1
:102520001901B0931A011092B5021092B6021092DE
:10253000B7021092B8021092B1021092B202109239
:10254000B3021092B40280E490E090932201809351
:10255000210180E290E09093200180931F0110926E
:102560008F031092900310929103109292030E9495
:1025700063121092BB021092BA0281E090E0909335
:10258000240180932301109289050C943F0E4F92F1
:102590005F926F927F928F929F92AF92BF92CF92F3
:1025A000DF92EF92FF92CF93DF93CDB7DEB7C054A7
:1025B000D1090FB6F894DEBF0FBECDBF60918B037B
:1025C00070918C0380918D0390918E032091000176
:1025D000222309F43CC320E030E040E05FE30E94A6
:1025E000BC2960938B0370938C0380938D0390932D
:1025F0008E0320E030E040E052E40E94CB2B87FFC6
:102600001092000180910A0190910B01A0910C01A0
:10261000B0910D018D879E87AF87B88BC090120156
:10262000D0901301E0901401F090150140900E013C
:1026300050900F016090100170901101A701960158
:10264000C701B6010E94BC29A30192010E94BC29C6
:1026500069A37AA38BA39CA380911B0190911C0179
:10266000A0911D01B0911E0189839A83AB83BC8325
:10267000BC01CD010E943D2C6DAB7EAB8FAB98AF02
:102680008091170190911801A0911901B0911A0140
:1026900089879A87AB87BC879C01AD01CD01B901C1
:1026A0000E94BC294B015C01AC019B0169817A81CC
:1026B0008B819C810E94BB290E943D2C69AF7AAF1F
:1026C0008BAF9CAF29853A854B855C8569817A8182
:1026D0008B819C810E94BB296D837E838F83988729
:1026E0000E943D2C698B7A8B8B8B9C8B8091B102E5
:1026F0009091B202A091B302B091B4028D8B9E8BE7
:10270000AF8BB88F9C01AD01CD01B9010E94D02BD8
:1027100020E030E040E052E40E94D02B6DA37EA385
:102720008FA398A78091B5029091B602A091B702AD
:10273000B091B802898F9A8FAB8FBC8F9C01AD018D
:10274000CD01B9010E94D02B20E030E040E052E4FE
:102750000E94D02B69A77AA78BA79CA76D817E8149
:102760008F8198850E942D2A6D8F7E8F8F8F98A3E1
:1027700029813A814B815C81CA01B9010E94BC293F
:10278000A50194010E94BB290E942D2A9B01AC0146
:10279000C301B2010E94D02B9B01AC0169A17AA1B7
:1027A0008BA19CA10E94BB2920E030E040E052E4D4
:1027B0000E94D02B6DA77EA78FA798ABA301920193
:1027C000C701B6010E94BC2969AB7AAB8BAB9CAB4D
:1027D00069817A818B819C810E942D2A21966CAF20
:1027E0007DAF8EAF9FAF21978091250190912601FB
:1027F000A0912701B09128018D839E83AF83B88774
:102800006D857E858F859889905829A13AA14BA125
:102810005CA10E94D02B2DA93EA94FA958AD0E94C2
:10282000D02B6B017C01C301B20190582D853E85F0
:102830004F8558890E94D02B29AD3AAD4BAD5CAD88
:102840000E94D02B9B01AC01C701B6010E94BC299C
:102850006B017C0120E030E040E050EC69897A892E
:102860008B899C890E94D02BA30192010E94D02BBE
:102870004B015C012D8D3E8D4F8D58A169A57AA528
:102880008BA59CA50E94D02B2DA13EA14FA158A5A0
:102890000E94BC299B01AC01C501B4010E94D02B50
:1028A0009B01AC01C701B6010E94BC292DA53EA524
:1028B0004FA558A90E94322A2D813E814F8158850B
:1028C0000E94D02B298D3A8D4B8D5C8D0E94BC29A6
:1028D0006B017C01C092B502D092B602E092B702C1
:1028E000F092B80229A93AA94BA95CA96D857E8509
:1028F0008F8598890E94D02B21962CAD3DAD4EAD91
:102900005FAD21970E94D02B4B015C0129A93AA908
:102910004BA95CA969A57AA58BA59CA50E94D02B83
:102920009B01AC01C501B4010E94BC294B015C01B3
:102930002DA13EA14FA158A5C301B2010E94D02BE9
:102940002D8D3E8D4F8D58A10E94D02B9B01AC0147
:10295000C501B4010E94BC294B015C0129893A8957
:102960004B895C89CA01B9010E94BC299B01AC0159
:10297000C501B4010E94D02B2DA53EA54FA558A995
:102980000E94322A2D813E814F8158850E94D02B92
:102990002D893E894F89588D0E94BC292B013C010D
:1029A0004092B1025092B2026092B3027092B402AD
:1029B000A70196016D817E818F8198850E94D02B21
:1029C00029813A814B815C810E94BC294B015C01C9
:1029D00080921B0190921C01A0921D01B0921E01D9
:1029E000A30192016D817E818F8198850E94D02BF9
:1029F00029853A854B855C850E94BC296B017C0149
:102A0000C0921701D0921801E0921901F0921A01B8
:102A1000C501B4010E943D2C2B013C01C501B4014C
:102A20000E942D2A69837A838B839C83C701B60118
:102A30000E943D2C4B015C01C701B6010E942D2A6A
:102A400069877A878B879C8780913101882309F475
:102A5000E8C08091C002882309F432C120E030E050
:102A600040E052E4C301B2010E94D02B20E030E0EC
:102A700040E852E40E94BC290E94A42A072E000CC0
:102A8000880B990B0E94DC2A6B017C0120E030E06E
:102A900040E052E4C501B4010E94D02B9B01AC017F
:102AA000C701B6010E94BC290E94A42A7B01209183
:102AB000BC023091BD02621B730B6E5F7F4F6530AD
:102AC000710508F0FDC020E030E040E052E469818B
:102AD0007A818B819C810E94D02B0E94A42A072E90
:102AE000000C880B990B0E94DC2A4B015C0120E052
:102AF00030E040E052E469857A858B859C850E94B0
:102B0000D02B9B01AC01C501B4010E94BC290E94DD
:102B1000A42A6B012091BE023091BF02621B730B8D
:102B20006E5F7F4F6530710508F0CAC08091B902B1
:102B300081110FC086E490E00E942A0E8AE090E0A6
:102B40000E94020E109286051092C00081E08093D0
:102B5000B9028091BC029091BD02E816F9060CF012
:102B600091C00E94EA282AE030E040E050E00E9454
:102B7000582965507109810991090E94DC2A2AE0CF
:102B800037ED43E25CE30E94D02B2091B1023091FB
:102B9000B2024091B3025091B4020E94BC292DECC4
:102BA0003CEC4CE45DE30E94BB296093B10270935E
:102BB000B2028093B3029093B4028091BE029091CE
:102BC000BF02C816D9060CF06CC00E94EA282AE0A1
:102BD00030E040E050E00E945829655071098109B9
:102BE00091090E94DC2A2AE037ED43E25CE30E946F
:102BF000D02B2091B5023091B6024091B70250918E
:102C0000B8020E94BC292DEC3CEC4CE45DE30E9430
:102C1000BB296093B5027093B6028093B70290937C
:102C2000B802C05CDF4F0FB6F894DEBF0FBECDBF59
:102C3000DF91CF91FF90EF90DF90CF90BF90AF905A
:102C40009F908F907F906F905F904F90089520E0BD
:102C500030E040E05FE30E94BB2960938B037093F8
:102C60008C0380938D0390938E0320E030E040E04E
:102C700052EC0E94282A18160CF4C4CC81E08093F0
:102C80000001C0CC2DEC3CEC4CE45DE36091B10262
:102C90007091B2028091B3029091B4020E94BC295B
:102CA00084CF2DEC3CEC4CE45DE36091B502709177
:102CB000B6028091B7029091B8020E94BC29A9CFB8
:102CC0001092B902AECF0C9442291F920F920FB608
:102CD0000F9211248F939F938091E1009091E100D6
:102CE000937F9093E10083FF0FC01092E90091E081
:102CF0009093EB001092EC0092E39093ED00109211
:102D0000A30598E09093F00082FF22C093E0909397
:102D1000E9009091F200992319F09AE39093E8006A
:102D200090919405992341F090919405915090933E
:102D30009405911101C05D9A9091A205992341F0EB
:102D40009091A20591509093A205911101C0289AEB
:102D500084FF18C08091E2008E7E81608093E20043
:102D60008091E1008F7E8093E100809195058E7EB9
:102D70008061809395059F918F910F900FBE0F906A
:102D80001F90189580FFF7CF8091E2008E7E8061C2
:102D90008093E2008091E1008E7E8093E10080913B
:102DA00095058E7E8160E5CF1F920F920FB60F9230
:102DB0001124CF92DF92EF92FF920F931F932F93E4
:102DC0003F934F935F936F937F938F939F93AF93B3
:102DD000BF93EF93FF93CF93DF93CDB7DEB76C979D
:102DE000DEBFCDBF1092E9008091E80083FF25C0CF
:102DF00068E0CE0145960E94DD0A82EF8093E800EC
:102E00008D8987FF39C09091E80090FFFCCF982F03
:102E1000907609F034C19E894F89588D2F89F88C9E
:102E2000911131C0803861F5809193058093F10054
:102E30001092F1008EEF8093E8006C960FB6F89434
:102E4000DEBF0FBECDBFDF91CF91FF91EF91BF915C
:102E5000AF919F918F917F916F915F914F913F9132
:102E60002F911F910F91FF90EF90DF90CF900F90D7
:102E70000FBE0F901F9018959EEF9093E800C7CF5C
:102E80001092F100D5CF913059F48111D3CF413058
:102E9000510581F6809193058D7F80939305CACF6C
:102EA000933049F48111C6CF4130510519F6809114
:102EB00093058260F2CF953041F48091E80080FF65
:102EC000FCCF20682093E300B5CF963009F0A9C06D
:102ED0000B8D1C8D22E01092E9001092910510924A
:102EE0009005F2122EC010928F0510928E050E944E
:102EF000AC0A1F8299E09983FA8291E09E8390EA5E
:102F000098879AEF99872091900530919105275FD6
:102F10003F4F3C832B838D831092E90010929105E3
:102F20001092900510938F0500938E0549E050E0B4
:102F3000BE016F5F7F4F80E00E94860A0E94AC0A4C
:102F400079CF10938F0500938E050E944209DC0112
:102F500012960D911C910115110509F451C1D8016A
:102F6000ED91FC910480F581E02DBE016B5E7F4FF9
:102F7000C8010995009709F03EC1F8010085118547
:102F8000EACFF3E0FF120EC08F89882309F440C016
:102F9000823061F440E867E081E391E10E94211A08
:102FA000811148CF81E28093EB0047CF813029F433
:102FB00040E86BE085E291E1F1CF833099F70E9420
:102FC0004209DC011296ED90FC908E010F5F1F4FBD
:102FD0006801E114F10479F0D701ED91FC910680CC
:102FE000F781E02DB801C7010995080F111DF70100
:102FF000E084F184EECFD8011C92F601019000200C
:10300000E9F73197BF016C197D0940E0C601C6CFD1
:103010006FE071E1FB01449150E080E80E94860A74
:1030200009CF973009F4BECF983021F481E0809326
:10303000F10000CF993009F0FDCE837009F0B2CFD6
:10304000E6E4F1E081E031E096E32191222371F0A2
:103050008093E9003093EB00DF0111972C912093CE
:10306000EC009093ED008F5F873079F78EE78093C7
:10307000EA001092EA008F898093A305DBCE8B8D46
:103080009C8D1092E90010929105109290059093FA
:103090008F0580938E05898D811192C08E899D89BF
:1030A000913A49F4813209F07DCF47E050E067E37F
:1030B00071E080E0B3CF913209F074CF833269F4CC
:1030C0008F89988DB0E0A0E0809333019093340114
:1030D000A0933501B0933601ADCE803269F4809172
:1030E000E80082FFFCCF67E087E391E00E94DD0A01
:1030F0008BEF8093E8009ECE823209F09BCE8F89C1
:1031000080933E01EEEFFFE7859194918B3F9C4DBC
:1031100051F1E0E0F8E08091370190913801A09101
:103120003901B0913A01803B9440A105B105F1F419
:1031300080913E0180FD1AC0EE3F8AE0F80789F5D4
:1031400087E797E791838083809160008093920561
:1031500088E19BE00FB6F894A895809360000FBEBD
:103160009093600067CEEEEFFAE0D5CF8081918139
:103170008737974709F05ECEA895809160008861F7
:10318000809360008091920580936000EE3F2AE07A
:10319000F20789F08091FE0A9091FF0A9183808363
:1031A00049CE808191818737980751F29093FF0A29
:1031B0008093FE0AC5CF1092FF0A1092FE0A3ACE03
:1031C0000E944209DC0112960D911C910115110516
:1031D00009F4E8CED801ED91FC910190F081E02D49
:1031E000BE016B5E7F4FC8010995811123CEF801A6
:1031F00000851185EBCF181619060CF41BCED2CE24
:10320000F1E0FF12BECE63E171E104CF0F920FB681
:103210008F939F93EF93FF9380919A028D5F8D37E9
:1032200008F08D5780939A02E3E9F3E080818E4F96
:10323000808391819F4F918382818F4F828383818D
:103240008F4F8383EBE9F2E080818F5F8083818100
:103250008F4F818382818F4F828383818F4F8383BE
:103260008FB18F6066991C9B88278F3681F480917F
:103270009902981B963068F0E0E0F8E087E78083D9
:10328000818388E180936000F0936000FFCF90938A
:103290009902FF91EF919F918F910FBE0F9018951A
:1032A0001F920F920FB60F9211242F933F934F93BB
:1032B0005F936F937F938F939F93AF93BF93EF939E
:1032C000FF9380919502882389F080919402811167
:1032D0000DC080919302811109C090919202E091FA
:1032E0009002F09191028081892780838091A002D1
:1032F000882329F180918C0290918D02A0918E02F9
:10330000B0918F02892B8A2B8B2BC9F080918C0274
:1033100090918D02A0918E02B0918F020197A10928
:10332000B10980938C0290938D02A0938E02B0938A
:103330008F02892B8A2B8B2B11F40E94E30BFF91B8
:10334000EF91BF91AF919F918F917F916F915F911D
:103350004F913F912F910F900FBE0F901F90189596
:103360001F920F920FB60F9211248F939F93AF93DA
:10337000BF93EF93FF9380919802882309F454C080
:103380008091880290918902A0918A02B0918B026B
:10339000892B8A2B8B2BA1F190918702E0918502DA
:1033A000F0918602808189278083809188029091A4
:1033B0008902A0918A02B0918B02181619061A068A
:1033C0001B069CF48091880290918902A0918A0248
:1033D000B0918B020197A109B10980938802909363
:1033E0008902A0938A02B0938B02FF91EF91BF9163
:1033F000AF919F918F910F900FBE0F901F901895D6
:10340000109294021092980280916F008D7F8093A9
:103410006F0080918702E0918502F0918602908191
:10342000809589238083E1CF809193028111DDCF44
:1034300090918702E0918502F09186028081892730
:10344000F1CFEF92FF920F931F93CF93DF93F82E5C
:10345000192FE62E042F81E0860F880F0E94580A4C
:1034600083E00E94580ACF2DD12FEC0EFD2EF11CC7
:10347000CE15DF05B9F007FF13C0FE0184910E944D
:10348000580A182F80E00E94580A81232196811142
:10349000EFCFDF91CF911F910F91FF90EF900895A3
:1034A0008881EDCF81E0F5CFE4EAF5E01382128266
:1034B00088EE93E0A0E0B0E084839583A683B78391
:1034C00080E591E0918380838FEF9FEF95878487DC
:1034D000EBE0FAE0138212828EE691E09183808322
:1034E000E6EFF9E01382128282E691E09183808315
:1034F00086EF95E09683858380E890E090878783C8
:1035000080E490E09287818785E0848B81E0838BE3
:1035100016861586108A17861486138681E090E039
:10352000928B818B148288EC98E09093F5058093C0
:10353000F4050895CDB7DEB7E497DEBFCDBF78942C
:1035400083E084BD83E085BD81E080936E00E1E887
:10355000F0E083E08083E0E881E08083E1E983E0DC
:103560008083E0E981E08083E1EC87E08083E3EC25
:1035700081E08083E0EC82E08083E2EC81E0808384
:10358000EAE787E08083806880831092A305109229
:103590009305109295058091D70081608093D700A4
:1035A00080EA8093D80089B5806189BD89B5826041
:1035B00089BD09B400FEFDCF0E94DA088091D800D1
:1035C0008F7C80618093D8008091E000807F809321
:1035D000E0008091E1008E7E8093E1008DE0809399
:1035E000E200559A209A81EC80937C0085B1806F2F
:1035F00085B984B1877E84B984B1876E84B95E9AB7
:103600005F988AB1806D8AB9769A6E9881B3806F1F
:1036100081BB899880B38D7080BB80E58CBD81E0D3
:103620008DBD85E090E00E94020E5F9A85E090E0FB
:103630000E94020E5E985C98E4E6F8E084918EBDEC
:1036400000000DB407FEFDCF319628E0E137F20708
:10365000A9F75C9A81E8809364008091650081609D
:10366000809365000E946A0E80E80E945F0E8823A6
:1036700071F05C9885EA8EBD00000DB407FEFDCFA9
:103680005C9A2E982F982D980E94250EFDCF84E0ED
:103690000E945F0E882309F448C02D9884E80E9498
:1036A0005F0E8823E1F00E94000E88EC90E00E94FB
:1036B000020E2F9882E090E00E9442298F3F29F06D
:1036C0006FEF82E090E00E944A2984EF91E00E942F
:1036D000020E2F9A84E80E945F0E8111FBCF84E1D5
:1036E0000E945F0E8823E1F00E94000E88EC90E0BB
:1036F0000E94020E2E9882E090E00E9442298823C8
:1037000029F060E082E090E00E944A2984EF91E095
:103710000E94020E2E9A84E10E945F0E8111FBCF5F
:1037200088EC90E00E94020EB2CF0E94000E82E070
:1037300090E00E9463168823D9F10E94390E81E03F
:1037400090E00E946316382F3470932E81FF13C0CF
:1037500031112E9861EF462E55245A9408E010E05E
:1037600078E5872E80E40E945F0E882321F12E9A4F
:103770002F9A0E94000E82E390E00E94020E0E94A7
:103780001D0E8111F8CF80E1809301010E943F0E50
:1037900067EB7FE08BE09AE00E94EA0A0E946A0EE3
:1037A00088E00E945F0E8111D1C00E94250EF8CFE3
:1037B0000E94340EC4CF992031F044E044165104E5
:1037C00011F42E9A2F9881E00E94CB08920157FEA7
:1037D00004C0222733272419350927703327C20153
:1037E00057FC079653E0959587955A95E1F757FE54
:1037F00005C00197D801A21BB30B9D01BC017695B2
:10380000762F6627779567956A507A4FF12CE12CD1
:103810003801621A730A8E3FBFEF9B0709F43DC05F
:103820008E9CD0018F9CB00D112450E040E0AC5430
:10383000B84F5B01E0E8AE0EB11C8F3F980791F0E6
:10384000FD01E40FF51FE4916B01C40ED51EF0E0FD
:103850001F01022E01C0220C0A94EAF7F6013488F7
:103860002328248A2115310599F0FD01E40FF51F65
:10387000E4916501C40ED51EF0E01F01062C02C0C4
:10388000359427940A94E2F7F60134882328248A91
:103890004F5F5F4F4835510581F6019660587F4F65
:1038A000EA94EF2809F04EC00E946A0E8FE090E083
:1038B0000E94020E2FEF421A520A39E143165104B8
:1038C00009F050CF992011F02F9A2D9880E991E0BE
:1038D0000E94020E0E94000E81E090E00E9463169A
:1038E00080FF49CF8AE090E00E9463169FEF980F17
:1038F0009E3F08F040CF22E330E0309383052093D1
:10390000820528E330E030938105209380054BE069
:1039100050E05A834983682F8BE09AE00E94C40FDD
:1039200089819A810E946316A981BA811196BA830E
:10393000A983519781F70E946A0E88EE93E00E9456
:10394000020E19CFEE24E394F12C65CF0E9463128E
:10395000E4E1F0E0FA83E9830E94EA280E94EA2881
:103960000E94EA2829813A81215031093A8329832A
:10397000232B91F785E00E94700C8DE00E94700C63
:1039800080919F02811136C087EA5C988EBD00004D
:103990000DB407FEFDCF5C9A8091A00281110FC08B
:1039A00081E798E09093A4028093A3029093A202EF
:1039B0008093A1020E94E30B81E08093A002AAE021
:1039C0002A2E312C2FB7F894809193039091940371
:1039D000A0919503B09196032FBF2091A7022223B7
:1039E00059F01092A70280E090E0892B59F30E94D1
:1039F0000000E5CF86EAC9CF2091A802382F321BFC
:103A0000232F30910101231730F42F5F231758F72C
:103A10000E94250EE8CF21E02093A7028093A80200
:103A20008091A5029091A60201969093A6028093A0
:103A3000A50280918805809387050E941D0E8093C2
:103A400088050E943F0E80918605882339F08150B9
:103A500080938605811102C01092C00080913201CE
:103A6000882309F4CDC040E250E050938305409391
:103A7000820585E090E0909381058093800563EC5A
:103A800070E18BE09AE00E94EA0AA4E1B0E0B09312
:103A90008305A0938205B0938105A0938005809152
:103AA00084059091850562E871E0892B11F06FE83B
:103AB00071E08BE09AE00E94A211E4E1F0E0F09363
:103AC0008305E09382058EE190E0909381058093D9
:103AD000800580918405909185056CE971E00197DE
:103AE00011F06CEA71E08BE09AE00E94A21124E1EF
:103AF00030E0309383052093820548E250E05093F4
:103B000081054093800580918405909185056CEB3B
:103B100071E0029711F06AEC71E08BE09AE00E948C
:103B2000A21180E80E94540E882369F080918405D8
:103B300090918505029663E070E00E94932C90932B
:103B400085058093840580E10E94540E882369F0E6
:103B50008091840590918505019663E070E00E9454
:103B6000932C909385058093840588E00E94540EE1
:103B7000882341F08091840590918505009781F517
:103B80001092320184E00E94540E882351F08091FB
:103B9000310191E0892780933101882371F10E94DE
:103BA000390E8BE490E09093040A8093030A90937B
:103BB000020A8093010A87E390E09093060A8093BB
:103BC000050A809131016EEA70E1811102C068EB53
:103BD00070E186EF99E00E94EA0A0E946A0E03CF24
:103BE0008130910521F481E080938D05C9CF029742
:103BF00049F681E080938C05C3CF0E94340ED1CF6B
:103C000080918D05882309F419C288E290E0909391
:103C1000830580938205109281051092800565EAE4
:103C200070E18BE09AE00E94EA0A3092040A209246
:103C3000030A3092020A2092010A3092060A209268
:103C4000050A80917E0590917F0568ED71E0892BD2
:103C500011F06DEE71E086EF99E00E94A211809163
:103C60007D0562E072E0811102C065E072E086EFDE
:103C700099E00E94A2113092040A2092030A309225
:103C8000020A2092010AA4E1B0E0B093060AA093D0
:103C9000050A80917E0590917F0569E072E00197A9
:103CA00011F069E172E086EF99E00E94A211609143
:103CB0002D0170912E0180912F019091300142E0F1
:103CC0000E94C0103092040A2092030A3092020A25
:103CD0002092010A8EE190E09093060A8093050AF3
:103CE00080917E0590917F0569E272E0029711F064
:103CF00068E372E086EF99E00E94A21160912901C9
:103D000070912A0180912B0190912C0142E00E9438
:103D1000C0103092040A2092030A3092020A2092C4
:103D2000010AE8E2F0E0F093060AE093050A8091C8
:103D30007E0590917F0567E472E0039711F068E5D6
:103D400072E086EF99E00E94A211609125017091C6
:103D50002601809127019091280142E00E94C01025
:103D600024E130E0309383052093820587E390E0DF
:103D7000909381058093800565E970E18BE09AE07E
:103D80000E94EA0A80E80E94540E882369F080911C
:103D90007E0590917F05039664E070E00E94932C6D
:103DA00090937F0580937E0580E10E94540E8823C6
:103DB00069F080917E0590917F05019664E070E046
:103DC0000E94932C90937F0580937E0580917E05C1
:103DD00090917F058130910509F482C07CF4892B94
:103DE00009F46CC084E00E94540E882309F4F5CED7
:103DF00010928D0581E080933201EFCE82309105E3
:103E000009F4C8C0039771F780E20E94540E88231A
:103E100041F12AE037ED43E25CE3609125017091C6
:103E2000260180912701909128010E94BB296B01F6
:103E30007C012AE037ED43E25CE30E94282A87FFF9
:103E400008C06AE0C62E67EDD62E63E2E62E6CE36C
:103E5000F62EC0922501D0922601E0922701F09221
:103E6000280180E40E94540E882309F4BBCF2AE085
:103E700037ED43E25CE3609125017091260180916A
:103E80002701909128010E94BC296B017C0120E050
:103E900030E040E85FE30E94CB2B181634F4C12CCD
:103EA000D12C50E8E52E5FE3F52EC0922501D0928B
:103EB0002601E0922701F092280194CF80E20E942F
:103EC000540E811106C080E40E94540E882309F428
:103ED00089CF80917D0591E0892780937D0582CFF0
:103EE00080E20E94540E882341F12AE037ED43E23C
:103EF0005CE360912D0170912E0180912F019091D2
:103F000030010E94BB296B017C012AE037ED43E2BE
:103F10005CE30E94282A87FF08C0FAE0CF2EF7ED65
:103F2000DF2EF3E2EF2EFCE3FF2EC0922D01D092A4
:103F30002E01E0922F01F092300180E40E94540E95
:103F4000882309F44FCF2AE037ED43E25CE3609128
:103F50002D0170912E0180912F01909130010E94CE
:103F6000BC296B017C0120E030E040E85FE30E9467
:103F7000CB2B181634F4C12CD12CE0E8EE2EEFE355
:103F8000FE2EC0922D01D0922E01E0922F01F092D0
:103F9000300128CF80E20E94540E882331F12DECAD
:103FA0003CEC4CEC5DE36091290170912A01809119
:103FB0002B0190912C010E94BB296B017C0120E018
:103FC00030E040EA50EC0E94282A87FF06C0C12C4E
:103FD000D12C70EAE72E70ECF72EC0922901D09216
:103FE0002A01E0922B01F0922C0180E40E94540EF1
:103FF000882309F4F7CE2DEC3CEC4CEC5DE36091AA
:10400000290170912A0180912B0190912C010E942D
:10401000BC296B017C0120E030E0A9010E94CB2B80
:1040200018161CF4C12CD12C7601C0922901D09213
:104030002A01E0922B01F0922C01D4CE80918C05C4
:10404000882359F140E250E0509383054093820564
:10405000309281052092800569E870E18BE09AE05A
:104060000E94EA0A84E190E09093830580938205A0
:104070008EE190E0909381058093800569E770E17F
:104080008BE09AE00E94EA0A84E00E94540E8823A2
:1040900009F4A3CD10928C05ADCE80918B058823B9
:1040A00009F470C00DE913E01A830983E981FA81EC
:1040B000208531854285538560817181828193811C
:1040C0000E94BC29A981BA816D937D938D939C93A5
:1040D00013971C962D913D914D915C911F971496CD
:1040E0006D917D918D919C9117970E94BC29E981DA
:1040F000FA8164837583868397837096FA83E98354
:10410000ED57F54099F680919B0390919C030196A1
:1041100090939C0380939B0365E070E00E94932C36
:10412000892B11F40E94A41180919B0390919C0310
:104130004F972CF010928B0581E080938905809138
:104140008B05882309F449CDD80114966D917D9192
:104150008D919C9117970E94A42A6B01F8016081B0
:104160007181828193810E94A42ACB0141E0B60132
:104170000E94B10E005F1F4F29813A81201731073D
:1041800019F72BCD80918A05882309F43EC00E943F
:104190003F0E40E250E0509383054093820588E152
:1041A00090E0909381058093800561E770E18BE05A
:1041B0009AE00E94EA0A60912301709124018BE049
:1041C0009AE00E9486100E946A0E2FB7F8948091A0
:1041D000930390919403A0919503B09196032FBF00
:1041E00040919703509198036091990370919A03BD
:1041F000841B950BA60BB70B813D9740A105B1051C
:1042000008F4F1CB10928A05EECB809189058111DB
:10421000F4C380E20E945F0E80E40E945F0E80E2A1
:104220000E945F0E882361F080912101909122010C
:10423000181619062CF402979093220180932101FD
:1042400080E40E945F0E882361F0809121019091AB
:1042500022018A3791052CF40296909322018093D3
:10426000210188E00E945F0E882381F0809129015E
:1042700090912A01A0912B01B0912C0180938F0382
:1042800090939003A0939103B093920384E00E94D3
:10429000540E882329F081E0809332010E947F121E
:1042A0000E94C71220912D0130912E0140912F01C3
:1042B0005091300160918F03709190038091910330
:1042C000909192030E94BC296B017C01C0928F03E4
:1042D000D0929003E0929103F092920360911F01BB
:1042E00070912001072E000C880B990B0E94DC2A8C
:1042F000A70196010E94BC290E94A42A6B33710574
:104300000CF028C17093200160931F0180911F0160
:104310009091200197FF0CC01092200110921F0174
:1043200010928F03109290031092910310929203B7
:1043300020E030E040E852E460918B0370918C0300
:1043400080918D0390918E030E94BC290E94A42A23
:1043500069877A878B879C87C0901B01D0901C014E
:10436000E0901D01F0901E01C701B6010E943D2C96
:104370002B013C0149855A85BA01550F880B990BD1
:104380000E94DC2A4B015C0120E030E040E052E476
:10439000C301B2010E94D02B9B01AC01C501B40145
:1043A0000E94BC290E94A42A6D837E838F839887F4
:1043B000C701B6010E942D2A20E030E040E052E41F
:1043C0000E94D02B20E030E0A9010E94BC290E946D
:1043D000A42A69837A838B839C83C0901701D09031
:1043E0001801E0901901F0901A01C701B6010E946E
:1043F0003D2C2B013C01AD81BE81BD01BB0F880B63
:10440000990B0E94DC2A4B015C0120E030E040E087
:1044100052E4C301B2010E94D02B9B01AC01C50143
:10442000B4010E94BC290E94A42A2B01C701B60135
:104430000E942D2A4B015C01E981FA81BF01FF0F27
:10444000880B990B0E94DC2A6B017C0120E030E094
:1044500040E052E4C501B4010E94D02B9B01AC01A5
:10446000C701B6010E94BC290E94A42A6B01809159
:10447000890390918A039C01220F331FF901EB5DA0
:10448000FC4F518240822F533D4FD901CD92DC9297
:10449000019662E370E00E94932C8C0190938A0352
:1044A000809389031E861D868D859E85800F911FB2
:1044B00062E370E00E94932CFC01EE0FFF1FDF010E
:1044C000AF53BD4F6D917C91EB5DFC4F41E080811E
:1044D00091810E946D0EED85FE853196FE87ED87F8
:1044E000F29711F729813A814D815E8170E060E099
:1044F00089859A850E94400F9601A20169817A817F
:104500008D819E810E94400F42E069817A818D8178
:104510009E810E94B10E42E0B601C2010E94B10E1E
:1045200020911F01309120013A832983E0902101DD
:10453000F090220187010A5F1F4F0E151F05C9F079
:1045400046E069817A81C7010E948B0E3FEFE31A32
:10455000F30AF3CF2AE330E03093200120931F01C8
:1045600010928F0310929003109291031092920375
:10457000CDCE8091C002882359F06091BE02709127
:10458000BF0243E08091BC029091BD020E94B10E37
:104590001092040A1092030A1092020A1092010A61
:1045A0001092060A1092050A69E672E086EF99E019
:1045B0000E94A2116091BA027091BB0286EF99E04D
:1045C0000E94861040E550E05093040A4093030A8D
:1045D0005093020A4093010A1092060A1092050AAB
:1045E00061E772E086EF99E00E94A21160912301D9
:1045F0007091240186EF99E00E948610C0901B0103
:10460000D0901C01E0901D01F0901E01C701B60181
:104610000E943D2C2B013C01C701B6010E942D2AAE
:104620006D837E838F839887C0901701D090180187
:10463000E0901901F0901A01C701B6010E943D2CCB
:104640004B015C01C701B6010E942D2A69837A8360
:104650008B839C8380918B058111D4C020E030E056
:1046600040E052E4C301B2010E94D02B20E030E0D0
:1046700040E852E40E94BC290E94A42A072E000CA4
:10468000880B990B0E94DC2A6B017C0120E030E052
:1046900040E052E4C501B4010E94D02B9B01AC0163
:1046A000C701B6010E94BC290E94A42A20912101C1
:1046B00030912201261B370B37FF03C0319521951E
:1046C0003109263031050CF09DC020E030E040E09B
:1046D00052E46D817E818F8198850E94D02B0E944B
:1046E000A42A072E000C880B990B0E94DC2A6B0170
:1046F0007C0120E030E040E052E469817A818B81E6
:104700009C810E94D02B9B01AC01C701B6010E9485
:10471000BC290E94A42A20911F0130912001261B50
:10472000370B37FF03C0319521953109263031050C
:104730000CF068C081E080938B0510929C0310926E
:104740009B038DE993E09A838983609121017091A5
:1047500022016D5F7F4F072E000C880B990B0E9482
:10476000DC2AA981BA816D937D938D939C931397D5
:1047700060911F01709120016D5F7F4F072E000C2B
:10478000880B990B0E94DC2AE981FA816483758386
:10479000868397830E94EA2825E030E040E050E0DD
:1047A0000E94582962507109810991090E94DC2AEE
:1047B000A981BA8118966D937D938D939C931B97D5
:1047C0000E94EA2825E030E040E050E00E945829AD
:1047D00062507109810991090E94DC2AE981FA81FC
:1047E00064877587868797870E94A41129813A81FB
:1047F000205F3F4F3A8329834DE354E0421753072C
:1048000009F0A3CF80912101909122012091BC0257
:104810003091BD02821B930B97FF03C09195819548
:10482000910906970CF0D9C980911F019091200140
:104830002091BE023091BF02821B930B97FF03C0F1
:1048400091958195910906970CF0C7C91092C00205
:104850008091BA029091BB0201969093BB02809323
:10486000BA028091B902811123C08EE190E00E94CA
:104870002A0E8AE090E00E94020E1092C0008EE3A1
:1048800090E00E942A0E8AE090E00E94020E1092B0
:10489000C0008EE190E00E942A0E8AE090E00E9423
:1048A000020E109286051092C00081E08093B9023A
:1048B0008091BA029091BB02B1010E94932C892B86
:1048C00009F098C080912301909124010196909362
:1048D00024018093230121E020938A053FB7F894B7
:1048E0008091930390919403A0919503B0919603C6
:1048F0003FBF8093970390939803A0939903B0933D
:104900009A03809123019091240104972CF0209325
:1049100016012093890561C92DEC3CEC4CE85FE35E
:104920006091B5027091B6028091B7029091B80281
:104930000E94D02B6093B5027093B6028093B702A9
:104940009093B8022DEC3CEC4CE85FE36091B1022F
:104950007091B2028091B3029091B4020E94D02B68
:104960006093B1027093B2028093B3029093B40249
:1049700020E030E040E05FE36091120170911301AC
:1049800080911401909115010E94BC29609312013D
:1049900070931301809314019093150120E030E08F
:1049A00040E05FE360910E0170910F018091100172
:1049B000909111010E94BC2960930E0170930F0128
:1049C00080931001909311012DEC3CEC4CEC5DE3D5
:1049D00060910A0170910B0180910C0190910D0181
:1049E0000E94BC2960930A0170930B0180930C0113
:1049F00090930D010E946312F0C80E943F0E8091B7
:104A000023019091240104970CF46BC3809116014B
:104A1000882309F443C08AE190E090938305809352
:104A20008205A8E1B0E0B0938105A093800560E61F
:104A300070E18BE09AE00E94EA0A2FB7F894809127
:104A4000930390919403A0919503B09196032FBF87
:104A500040919703509198036091990370919A0344
:104A6000841B950BA60BB70B893B9B40A105B10599
:104A700010F0109216010E946A0E88E00E94540EF7
:104A8000811106C084E00E94540E882309F4A5C851
:104A900081E0809332010E947F129FC80E94C7125A
:104AA00020910A0130910B0140910C0150910D01B0
:104AB00029873A874B875C875058298B3A8B4B8BD9
:104AC0005C8B409006015090070160900801709047
:104AD0000901C301B2010E943D2C69A77AA78BA7E7
:104AE0009CA78091020190910301A0910401B091D3
:104AF00005018D839E83AF83B8879C01AD01CD01F5
:104B0000B9010E94BC294B015C01AC019B01C301AE
:104B1000B2010E94BB290E943D2C6DA77EA78FA7E2
:104B200098AB2D813E814F815885C301B2010E940F
:104B3000BB2969837A838B839C830E943D2C6D8B78
:104B40007E8B8F8B988F2091AD023091AE02409179
:104B5000AF025091B0022D873E874F87588BCA0114
:104B6000B9010E94D02B20E030E048EC51E40E94D3
:104B7000D02B69A37AA38BA39CA38091A9029091C7
:104B8000AA02A091AB02B091AC02898F9A8FAB8F31
:104B9000BC8F9C01AD01CD01B9010E94D02B20E05A
:104BA00030E048EC51E40E94D02B6B017C0169811C
:104BB0007A818B819C810E942D2A6D8F7E8F8F8FB1
:104BC00098A3A3019201C301B2010E94BC29A501CF
:104BD00094010E94BB290E942D2A9B01AC0160E038
:104BE00070E080E490E40E94BB2920E030E048ECD3
:104BF00051E40E94D02B6DA37EA38FA398A7C3017D
:104C0000B2010E942D2A69AB7AAB8BAB9CAB209191
:104C100025013091260140912701509128012983D7
:104C20003A834B835C8320E030E040E450E46989C0
:104C30007A898B899C890E94D02B29A53AA54BA5FE
:104C40005CA50E94D02B4B015C012DA53EA54FA574
:104C500058A969897A898B899C890E94D02B9B01EC
:104C6000AC01C501B4010E94BC294B015C012D8D32
:104C70003E8D4F8D58A1C701B6010E94D02B29A1AE
:104C80003AA14BA15CA10E94BC29698B7A8B8B8BCA
:104C90009C8B20E030E040E050EC6D897E898F896C
:104CA000988D0E94D02B9B01AC0169897A898B89F0
:104CB0009C890E94D02B9B01AC01C501B4010E94CC
:104CC000BC292DA13EA14FA158A50E94322A2981BD
:104CD0003A814B815C810E94D02B298D3A8D4B8D7E
:104CE0005C8D0E94BC294B015C018092A9029092CC
:104CF000AA02A092AB02B092AC0229853A854B85FC
:104D00005C85CA01B9010E94BC2929A93AA94BA90D
:104D10005CA90E94D02B69877A878B879C87A70123
:104D20009601C701B6010E94BC299B01AC016985AF
:104D30007A858B859C850E94BC296B017C012D8D19
:104D40003E8D4F8D58A169A17AA18BA19CA10E9493
:104D5000D02B9B01AC01C701B6010E94BC296B019D
:104D60007C012D893E894F89588DCA01B9010E9465
:104D7000BC299B01AC01C701B6010E94D02B2DA11B
:104D80003EA14FA158A50E94322A29813A814B8128
:104D90005C810E94D02B2D853E854F8558890E94CD
:104DA000BC2969877A878B879C876093AD02709353
:104DB000AE028093AF029093B002A5019401698185
:104DC0007A818B819C810E94D02BA30192010E9449
:104DD000BC292B013C0140920601509207016092D0
:104DE00008017092090129853A854B855C856981A6
:104DF0007A818B819C810E94D02B2D813E814F81B5
:104E000058850E94BC296D837E838F839887609329
:104E10000201709303018093040190930501C090F7
:104E20001B01D0901C01E0901D01F0901E01C701F4
:104E3000B6010E943D2C20E030E040E052E40E94A8
:104E4000D02B20E030E040E852E40E94BC290E94D0
:104E5000A42A69837A838B839C83C701B6010E944D
:104E60002D2A20E030E040E052E40E94D02B0E9446
:104E7000A42A6D8B7E8B8F8B988FC0901701D0905A
:104E80001801E0901901F0901A01C701B6010E94C3
:104E90003D2C6D877E878F87988B49815A81BA0117
:104EA000550F880B990B0E94DC2A4B015C0120E016
:104EB00030E040E052E46D857E858F8598890E94C0
:104EC000D02B9B01AC01C501B4010E94BC290E94FA
:104ED000A42A6D877E878F87988BC701B6010E94B1
:104EE0002D2A4B015C01AD89BE89BD01BB0F880B2A
:104EF000990B0E94DC2A6B017C0120E030E040E04D
:104F000052E4C501B4010E94D02B9B01AC01C70142
:104F1000B6010E94BC290E94A42A698F7A8F8B8FC8
:104F20009C8FC301B2010E943D2C20E030E048EC90
:104F300051E40E94D02B20E030E040E852E40E948F
:104F4000BC290E94A42A698B7A8B8B8B9C8BC30112
:104F5000B2010E942D2A20E030E048EC51E40E948A
:104F6000D02B9B01AC0160E070E080E892E40E94ED
:104F7000BB290E94A42A2B016D817E818F81988597
:104F80000E943D2C4B015C01E989FA89BF01FF0FAA
:104F9000880B990B0E94DC2A6B017C0120E030E039
:104FA00048EC51E4C501B4010E94D02B9B01AC0137
:104FB000C701B6010E94BC290E94A42A6D8F7E8F72
:104FC0008F8F98A36D817E818F8198850E942D2A75
:104FD0004B015C01B201052C000C880B990B0E945F
:104FE000DC2A6B017C0120E030E048EC51E4C50193
:104FF000B4010E94D02B9B01AC01C701B6010E94F5
:10500000BB290E94A42A6B018D859E852D8D3E8D26
:10501000821B930B0396079788F5898D9A8D8C19BF
:105020009D090396079750F58090B1029090B202C7
:10503000A090B302B090B4022DEC3CEC4CE45FE3E2
:1050400069857A858B859C850E94D02B6093B102FF
:105050007093B2028093B3029093B4022DEC3CECB7
:105060004CE45FE3C501B4010E94D02B6093AD0214
:105070007093AE028093AF029093B0022D893E8967
:1050800049815A8170E060E080E490E00E94400F26
:10509000298D3A8D4D855E856D897E8989819A81BC
:1050A0000E94400F43E0698D7A8D8D859E850E9418
:1050B000B10E920149895A8960E470E080E490E081
:1050C0000E94400F96014D8D5E8DB20189899A89AB
:1050D0000E94400F43E0B6018D8D9E8D0E94B10E5F
:1050E000CACC48E250E0509383054093820588E1A2
:1050F00090E0909381058093800566E570E18BE0F8
:105100009AE00E94EA0AA2E1B0E0B0938305A0937E
:105110008205E8E2F0E0F0938105E093800565E424
:1051200070E18BE09AE00E94EA0A88E00E94540E47
:10513000882309F4A0CC0E947F129DCC8F929F926D
:10514000AF92BF92CF92DF92EF92FF92CF93DF9315
:10515000EC01688179818A819B81611571058105E6
:10516000910521F464E279ED8BE597E02DE133EFD1
:1051700041E050E00E94582949015A019B01AC01CD
:10518000A7EAB1E40E9477296B017C01ACEEB4EF91
:10519000A50194010E948529C60ED71EE81EF91E9E
:1051A000F7FE06C081E0C81AD108E10880E8F80AD5
:1051B000C882D982EA82FB82C701B6019F77DF915C
:1051C000CF91FF90EF90DF90CF90BF90AF909F90E6
:1051D0008F9008958F929F92AF92BF92CF92DF925D
:1051E000EF92FF9260913F017091400180914101E7
:1051F00090914201611571058105910521F464E2E8
:1052000079ED8BE597E02DE133EF41E050E00E942E
:10521000582949015A019B01AC01A7EAB1E40E9457
:1052200077296B017C01ACEEB4EFA50194010E94DB
:105230008529C60ED71EE81EF91EF7FE06C081E0BE
:10524000C81AD108E10880E8F80AC0923F01D0925C
:105250004001E0924101F0924201C701B6019F77FF
:10526000FF90EF90DF90CF90BF90AF909F908F9086
:10527000089560933F0170934001809341019093A2
:1052800042010895F999FECF92BD81BDF89A992700
:1052900080B50895262FF999FECF1FBA92BD81BD22
:1052A00020BD0FB6F894FA9AF99A0FBE01960895A8
:1052B000052E97FB1EF400940E946F2957FD07D01E
:1052C0000E948A2907FC03D04EF40C946F29509554
:1052D0004095309521953F4F4F4F5F4F08959095E2
:1052E0008095709561957F4F8F4F9F4F08950E94D5
:1052F000AC29A59F900DB49F900DA49F800D911D8A
:1053000011240895B7FF0C9477290E947729821BF6
:10531000930B0895A1E21A2EAA1BBB1BFD010DC021
:10532000AA1FBB1FEE1FFF1FA217B307E407F50755
:1053300020F0A21BB30BE40BF50B661F771F881F31
:10534000991F1A9469F760957095809590959B01C7
:10535000AC01BD01CF010895A29FB001B39FC00170
:10536000A39F700D811D1124911DB29F700D811D91
:105370001124911D08955058BB27AA270E94D329B4
:105380000C947D2B0E94442B38F00E944B2B20F074
:1053900039F49F3F19F426F40C94412B0EF4E09558
:1053A000E7FB0C943B2BE92F0E94A22B58F3BA1772
:1053B000620773078407950720F079F4A6F50C942B
:1053C000C42B0EF4E0950B2EBA2FA02D0B01B901C2
:1053D00090010C01CA01A0011124FF27591B99F06B
:1053E000593F50F4503E68F11A16F040A22F232F77
:1053F000342F4427585FF3CF469537952795A795C7
:10540000F0405395C9F77EF41F16BA0B620B730B6D
:10541000840BBAF09150A1F0FF0FBB1F661F771FDE
:10542000881FC2F70EC0BA0F621F731F841F48F493
:10543000879577956795B795F7959E3F08F0B0CF1C
:105440009395880F08F09927EE0F97958795089503
:105450000E94172B08F481E008950E94542BE395D5
:105460000C948E2B0E94462A0C947D2B0E944B2B71
:1054700058F00E94442B40F029F45F3F29F00C942F
:105480003B2B51110C94C52B0C94412B0E94A22B49
:1054900068F39923B1F3552391F3951B550BBB2763
:1054A000AA2762177307840738F09F5F5F4F220FA8
:1054B000331F441FAA1FA9F335D00E2E3AF0E0E89F
:1054C00032D091505040E695001CCAF72BD0FE2FE9
:1054D00029D0660F771F881FBB1F2617370748077D
:1054E000AB07B0E809F0BB0B802DBF01FF27935835
:1054F0005F4F3AF09E3F510578F00C943B2B0C9493
:10550000C52B5F3FE4F3983ED4F386957795679576
:10551000B795F7959F5FC9F7880F911D9695879569
:1055200097F90895E1E0660F771F881FBB1F621788
:1055300073078407BA0720F0621B730B840BBA0B46
:10554000EE1F88F7E09508950E94AB2A6894B11188
:105550000C94C52B08950E94AA2B88F09F5798F0B1
:10556000B92F9927B751B0F0E1F0660F771F881F68
:10557000991F1AF0BA95C9F714C0B13091F00E9482
:10558000C42BB1E008950C94C42B672F782F882783
:10559000B85F39F0B93FCCF3869577956795B395A9
:1055A000D9F73EF490958095709561957F4F8F4F18
:1055B0009F4F0895E89409C097FB3EF4909580951D
:1055C000709561957F4F8F4F9F4F9923A9F0F92FC9
:1055D00096E9BB279395F695879577956795B79547
:1055E000F111F8CFFAF4BB0F11F460FF1BC06F5F2D
:1055F0007F4F8F4F9F4F16C0882311F096E911C03F
:10560000772321F09EE8872F762F05C0662371F05F
:1056100096E8862F70E060E02AF09A95660F771F73
:10562000881FDAF7880F9695879597F90895990F4F
:105630000008550FAA0BE0E8FEEF16161706E8075C
:10564000F907C0F012161306E407F50798F0621B7D
:10565000730B840B950B39F40A2661F0232B242B52
:10566000252B21F408950A2609F4A140A6958FEF71
:10567000811D811D089597F99F6780E870E060E0C3
:1056800008959FEF80EC089500240A9416161706DB
:1056900018060906089500240A9412161306140623
:1056A000050608950C94412B0E94AA2BD8F3E89488
:1056B000E0E0BB279F57F0F02AED3FE049EC06C041
:1056C000EE0FBB0F661F771F881F28F0B23A6207E4
:1056D0007307840728F0B25A620B730B840BE395AF
:1056E0009A9572F7803830F49A95BB0F661F771F32
:1056F000881FD2F790480C944C2C092E0394000C70
:1057000011F4882352F0BB0F40F4BF2B11F460FF5B
:1057100004C06F5F7F4F8F4F9F4F0895EF93E0FF5F
:1057200007C0A2EA2AED3FE049EC5FEB0E94D329D3
:105730000E947D2B0F90039401FC9058ECEAF0E05E
:105740000C94582C57FD9058440F551F59F05F3F4B
:1057500071F04795880F97FB991F61F09F3F79F093
:1057600087950895121613061406551FF2CF469515
:10577000F1DF08C0161617061806991FF1CF869597
:105780007105610508940895E894BB27662777277B
:10579000CB0197F908950E94172B08F48FEF089515
:1057A0000E94E32B0C947D2B0E94442B38F00E9426
:1057B0004B2B20F0952311F00C943B2B0C94412B98
:1057C00011240C94C52B0E94A22B70F3959FC1F35A
:1057D000950F50E0551F629FF001729FBB27F00D9F
:1057E000B11D639FAA27F00DB11DAA1F649F6627F4
:1057F000B00DA11D661F829F2227B00DA11D621F43
:10580000739FB00DA11D621F839FA00D611D221FFC
:10581000749F3327A00D611D231F849F600D211DE0
:10582000822F762F6A2F11249F5750409AF0F1F063
:1058300088234AF0EE0FFF1FBB1F661F771F881FCC
:1058400091505040A9F79E3F510580F00C943B2B9E
:105850000C94C52B5F3FE4F3983ED4F3869577957F
:105860006795B795F795E7959F5FC1F7FE2B880F72
:10587000911D9695879597F908959F930E94542BB3
:105880000F9007FCEE5F0C948E2B0E94172B880B59
:10589000990B08959F3F31F0915020F487957795AB
:1058A0006795B795880F911D9695879597F90895F7
:1058B0009F938F937F936F93FF93EF939B01AC0123
:1058C0000E94D02BEF91FF910E946C2C2F913F9161
:1058D0004F915F910C94D02BDF93CF931F930F9335
:1058E000FF92EF92DF927B018C01689406C0DA2E62
:1058F000EF010E94E32BFE01E894A59125913591DB
:1059000045915591A6F3EF010E94D329FE0197011D
:10591000A801DA9469F7DF90EF90FF900F911F9143
:10592000CF91DF91089597FB072E16F4009407D0CE
:1059300077FD09D00E94A72C07FC05D03EF4909576
:1059400081959F4F0895709561957F4F0895AA1B8B
:10595000BB1B51E107C0AA1FBB1FA617B70710F05A
:10596000A61BB70B881F991F5A95A9F7809590958C
:10597000BC01CD010895EE0FFF1F0590F491E02DBD
:065980000994F894FFCF2A
:105986000110DB0F493FDB0FC93F0000003F00005D
:10599600803F0000803F01DB0FC93FDB0FC93F207E
:1059A60000400001000000003FCDCCCCBDCDCC4C6A
:1059B6003D0101FFFFFFFF00E100000000000001C4
:1059C600000000030100C18081000000000000000B
:1059D600D7095609F809ED093E0AFC091A0A00001A
:1059E6000000550D0E0B2810271000000000C40FF4
:1059F6000E0B281027106E616E00696E66006F76BA
:105A060066003E2053746172744368616F730020B0
:105A16002053746172744368616F73003E2053654E
:105A26007474696E67734368616F730020205365F1
:105A36007474696E67734368616F73003E205363C5
:105A46006F7265734368616F7300202053636F72D2
:105A560065734368616F73003E20477261766974AF
:105A6600795F50656E64756C756D3A20002020472D
:105A76007261766974795F50656E64756C756D3A9E
:105A860020004F4E004F4646003E20477261766921
:105A960074792056616C3A2000202047726176693D
:105AA60074792056616C3A20003E204A756D70204C
:105AB600466F7263653A200020204A756D70204655
:105AC6006F7263653A20003E2050656E64756C7592
:105AD6006D205370643A2000202050656E64756C0A
