:100000000C9487080C94AF080C94AF080C94AF08BC
:100010000C94AF080C94AF080C94AF080C94AF0884
:100020000C94AF080C94AF080C94B2120C942113EA
:100030000C94AF080C94AF080C94AF080C94AF0864
:100040000C94AF080C94FD150C94AF080C94AF08F9
:100050000C94AF080C94AF080C94AF080C94531593
:100060000C94AF080C94AF080C94AF080C94AF0834
:100070000C94AF080C94AF080C94AF080C94AF0824
:100080000C949D150C94AF080C94AF080C94AF0819
:100090000C94AF080C94AF080C94AF080C94AF0804
:1000A0000C94AF080C94AF080C94AF0805A84CCD85
:1000B000B2D44EB93836A9020C50B9918688083CA2
:1000C000A6AAAA2ABE000000803F00000000003E51
:1000D0005B4F5B3E3E6B4F6B3E1C3E7C3E1C183CB8
:1000E0007E3C181C577D571C1C5E7F5E1C00183C14
:1000F0001800FFE7C3E7FF0018241800FFE7DBE75D
:10010000FF30483A060E2629792926407F05050743
:10011000407F05253F5A3CE73C5A7F3E1C1C08089F
:100120001C1C3E7F14227F22145F5F005F5F060964
:100130007F017F006689956A606060606094A2FFBD
:10014000A29408047E040810207E201008082A1CAF
:1001500008081C2A08081E101010100C1E0C1E0C7B
:1001600030383E3830060E3E0E060000000000001B
:10017000005F00000007000700147F147F14242A8A
:100180007F2A12231308646236495620500008075C
:100190000300001C2241000041221C002A1C7F1C7D
:1001A0002A08083E0808008070300008080808087F
:1001B000000060600020100804023E5149453E00E6
:1001C000427F400072494949462141494D33181444
:1001D000127F1027454545393C4A49493141211193
:1001E00009073649494936464949291E0000140085
:1001F00000004034000000081422411414141414A8
:10020000004122140802015909063E415D594E7C05
:100210001211127C7F494949363E414141227F41BA
:1002200041413E7F494949417F090909013E414118
:1002300051737F0808087F00417F41002040413F03
:10024000017F081422417F404040407F021C027F12
:100250007F0408107F3E4141413E7F090909063E67
:100260004151215E7F091929462649494932030136
:100270007F01033F4040403F1F2040201F3F403848
:10028000403F631408146303047804036159494D23
:1002900043007F4141410204081020004141417F59
:1002A00004020102044040404040000307080020CF
:1002B000545478407F2844443838444444283844CF
:1002C00044287F385454541800087E090218A4A406
:1002D0009C787F0804047800447D40002040403D25
:1002E000007F1028440000417F40007C047804789F
:1002F0007C080404783844444438FC182424181832
:10030000242418FC7C08040408485454542404048D
:100310003F44243C4040207C1C2040201C3C40307A
:10032000403C44281028444C9090907C4464544CA9
:100330004400083641000000770000004136080004
:1003400002010204023C2623263C1EA1A161123AAE
:100350004040207A385454555921555579412154FB
:10036000547841215554784020545579400C1E5200
:1003700072123955555559395454545939555454A4
:10038000580000457C410002457D420001457C400B
:10039000F0292429F0F0282528F07C545545002028
:1003A00054547C547C0A097F4932494949323248C5
:1003B000484832324A4848303A4141217A3A42402C
:1003C0002078009DA0A07D39444444393D40404000
:1003D0003D3C24FF2424487E4943662B2FFC2F2BD1
:1003E000FF0929F620C0887E090320545479410072
:1003F00000447D413048484A32384040227A007AF1
:100400000A0A727D0D19317D2629292F28262929CE
:10041000292630484D4020380808080808080808F0
:10042000382F10C8ACBA2F102834FA00007B000017
:1004300008142A142222142A14089500220095AACE
:10044000005500AAAA55AA55AA000000FF001010E6
:1004500010FF00141414FF001010FF00FF1010F024
:1004600010F0141414FC001414F700FF0000FF0037
:10047000FF1414F404FC141417101F10101F101F85
:100480001414141F00101010F0000000001F1010B2
:1004900010101F10101010F010000000FF101010AE
:1004A000101010101010FF10000000FF140000FFCB
:1004B00000FF00001F10170000FC04F414141710B4
:1004C000171414F404F40000FF00F71414141414A7
:1004D0001414F700F7141414171410101F101F141D
:1004E0001414F4141010F010F000001F101F00007E
:1004F000001F14000000FC140000F010F01010FFAA
:1005000010FF141414FF141010101F00000000F04E
:1005100010FFFFFFFFFFF0F0F0F0F0FFFFFF000023
:10052000000000FFFF0F0F0F0F0F38444438447CCA
:100530002A2A3E147E02020606027E027E026355CD
:100540004941633844443C04407E201E2006027E1C
:10055000020299A5E7A5991C2A492A1C4C7201722E
:100560004C304A4D4D303048784830BC625A463D98
:100570003E494949007E0101017E2A2A2A2A2A444D
:10058000445F444440514A444040444A5140000082
:10059000FF0103E080FF000008086B6B083612368D
:1005A0002436060F090F060000181800000010106E
:1005B000003040FF0101001F01011E00191D17122C
:1005C000003C3C3C3C000000000000B00000A1707A
:1005D000E150964F26900F1D070C009669004AE4E3
:1005E0004A0048444000806810000F99FB8F9DBD71
:1005F000BBFB77D4D4DF1F1A1AFE7F5D5DFF805AE4
:100600000000A0A4AA0010BA3400FF5953F3FF9BC6
:100610009B9EFFB9B996FF9595D19FF4940FFC2945
:100620005F91FF1838F8FF9294FFFF95D5F7BFB59B
:10063000DDD7F18F81F1F788C8F779C6467909FDD2
:100640009B090196F8008281828050716200775682
:10065000560076763700A2B7730107720600782736
:10066000500073347400775176007F55F70047715E
:100670001000324772007364730015A27500616741
:100680009400009F6060F4F2F6F200000000240085
:1006900027002A002D00300000000000250028005F
:1006A0002B002E0031000408020110408040102071
:1006B0004080408008020401804020100201108028
:1006C0001020404020040404040403040502020234
:1006D00002040302020202060606060606040402DB
:1006E0000202040406011501260137014A015D01D9
:1006F000720188019F01B801D201EE010B022A02AA
:100700004B026E029302BA02E40210033F0370032D
:10071000A403DC03170455049704DD0427057505BD
:10072000C80520067D06E0064907B8072D08A90878
:100730002D09B9094D0AEA0A900B400CFA0CC00DBC
:10074000910E6F0F5A1053115B1272139A14D41535
:1007500020178018F519801B231DDE1EB420A62249
:10076000B524E4263429A72B402E0031EA33003784
:10077000453ABC3D68414C456B49C84D68524F579E
:10078000805C006210111213151617181A1C1D1F19
:1007900021232527292C2E3134373A3E4145494E15
:1007A00052575C62686E757B838B939CA5AFB9C40E
:1007B000D0DCE9F7F0F89C8E8783878E9CF8F000F8
:1007C00000FEFF0303030303070EFCF80000FEFF17
:1007D0000303030303070EFCF80000FFFF00000003
:1007E00000000000FFFF0000FEFF8383838383C7B8
:1007F000EE7C380000F8FC0E07030303070EFCF83C
:1008000000003F7FE0C08080C0E07F3FFFFF01012C
:100810000101010101FFFF0000FFFF0C0C0C0C1C8B
:100820003E77E3C100007FFFC0C0C0C0C0E0703FA2
:100830001F00001F3F70E0C0C0C0E0703F1F0000FD
:100840007FFFC1C1C1C1C1E3773E1C00001F3F70E3
:10085000E0C0C0C0E0703F1F000000000001FFFFCB
:1008600001000000D5F08D14A1C881CFD9F1AF20CF
:1008700000029A903E00A6904000A6904200A690EA
:100880004000A6904300A6904200A6904000A6908B
:100890003E00A6904500A6904300A6904200A69078
:1008A0004000A69132904200A69134903E00A6915D
:1008B00036904500A6913400A69047913700A69146
:1008C0003600A69049913400379047003790490090
:1008D000379132904A00A6913990490053904A00CE
:1008E000539137904900A6913690470053904500A8
:1008F000539134007D8000299049913600A6904A9A
:10090000913200A6904C913900A6904900A6912DF5
:10091000904E00A6904A00A69139904900A69047B3
:10092000008A81001B9139904C00A6904900A69145
:100930002D904A00A6904700A69139904500A690B8
:1009400044008A81001B9139904C00A6904900A672
:10095000912D904E00A6904A00A69139904900A68C
:100960009047008A81001B9139904C00A690490065
:10097000A6912D904A00A6904700A6913990450077
:10098000A69044008A81001B9139904900A69047A7
:1009900000A6913B904A00A6904900A6913D904741
:1009A00000A6904500A6913E904E00A6913D00A65F
:1009B0009044914000A6913E00A69045913D00A62E
:1009C000913B00A6913D001B80001B904700379093
:1009D000450037913E9044003790450037904700DE
:1009E0001B80001B90479140014D913400A690451B
:1009F00000A69139904500A6913400A6913600A634
:100A0000913800A691398000A6913B00A6913D0047
:100A1000A6913B00A6904C913E00A6913D00A69069
:100A200051913B00A6913900A6914000A690470045
:100A3000A69134904900A6904B00A6904C8100A648
:100A4000904E00A6904F00A6904E00A6913B90516C
:100A500000A6904F00A69140904E00A6904C00A694
:100A6000905300A6913600A69047913800A6913A7F
:100A700000A6913B8000A6913D00A6913E00A69164
:100A80003D00A69042914000A6913E00A69047915D
:100A90003D00A6913B00A6914200A6904600A6917B
:100AA00036904700A6904900A69140904A00A69033
:100AB0004C00A6913E904E00A6904C00A691479007
:100AC0004F00A69146904E00A69147904C00A690EC
:100AD0004A00A6913D904C00A6904A00A6914690EF
:100AE0004E00A69144904C00A69146904A00A690D4
:100AF0004900A69147904A00A69145904900A691C9
:100B000043904C00A69142904A00A6914090490023
:100B1000A6913E904700A69140904900A6913E00C4
:100B2000A690469142005390440053914090460055
:100B3000A6913E904700A6913D00A6913E00A6904A
:100B4000499140008A80001B904991420053904A8D
:100B50000053904900A6913600A6904700A6913B0D
:100B600000A6904200A69136904400A6904600A6AA
:100B70009132904700A6904900A6912F904A00A676
:100B8000904900A6904C00A6904A00A6904981008A
:100B9000A6904700A6904F00A6912F00A691310085
:100BA000A6913300A6913400A6913600A691370095
:100BB000A6913600A6913900A6913700A69136007D
:100BC000A6913400A69139008A80001B904000A6AF
:100BD000904200A6904400A6904500A6904700A62B
:100BE000904900A6904700A6904A00A6904900A60A
:100BF000904700A6904500A6904E008A81001B9168
:100C00002D00A6912F00A6913100A6913200A69149
:100C10003400A6913600A6913400A6913700A69123
:100C20003600A6913400A6913200A69138008A8041
:100C3000001B904700A6904C00A69134904A00A655
:100C40009136904900A69138904700A69139904975
:100C500000A69138904700A69136904A00A691349C
:100C6000904900A69132904700A69136904500A683
:100C7000913490440053904500539132904400A623
:100C80009131904000A6912F00A69045913100A689
:100C90009047912D00A69049913900A6904700A653
:100CA0009136904A00A6904900A69131904700A63F
:100CB000904500A69132904E00A6913100A6913445
:100CC00000A69044913200A69045913100A6904430
:100CD000912F00A69045913100A6904A913200A62E
:100CE00090479134014D912800A69045008A8000DC
:100CF0001B9045912D00A6913100A6913200A6903F
:100D000049913400A6904A913600A6904C91370044
:100D1000A69042913900A6913700A69043913B00DE
:100D2000A6913900A6904791370053904500539102
:100D30003690430053904500539137904700A69159
:100D40003600A6904A91390053904900539137904C
:100D5000470053904900539136904A00A6913400C1
:100D6000A6913600A69049913400A6904C91370088
:100D7000A6904A913600A69049913400A6904A91D7
:100D80003200A6904C913900A6904A00A6912D9071
:100D90004900A6904700A690458100A6904300A672
:100DA000904200A6904000A6904300A6904200A664
:100DB000904000A6903E00A6904500A6904300A655
:100DC000904200A6904000A69132904200A6913435
:100DD000903E00A69136904500A6913400A690471B
:100DE000913700A6913600A690499134003790477C
:100DF0000037904900379132904A00A691399049C6
:100E00000053904A00539137904900A6913690477D
:100E10000053904500539134007D800029904A9101
:100E20003600A69132008A80001B904A913900A6B4
:100E3000913600A6903E913B00A6913700A6904ABD
:100E4000913600A69134008A80001B904A913900A7
:100E5000A6913600A6903E913700A6913400A69048
:100E60004A913200A69131008A80001B904A913944
:100E700000A6913600A6903E913B00A6913700A6B1
:100E8000904A913600A69134008A80001B904A91C6
:100E90003900A6913600A6903E913700A691340005
:100EA000A6904A913200A6904C913100A6904E91A6
:100EB0003200A6904C00A69134904F00A6904E00B0
:100EC000A69136904C00A6904A00A6913790530008
:100ED000A6913600A69049913900A6913700A690B8
:100EE0004A913600A6913400A69136001B80001B63
:100EF000904C0037904A0037913790490037904A1C
:100F00000037904C002980000D904C9139014D9193
:100F10002D00A6904A008A80001B904A912F00A6BF
:100F2000912D00A6903E913000A6912F00A69043EF
:100F3000912D00A6912B00A6913200A6903900A613
:100F4000903B00A6903D00A6903E00A6904000A6D3
:100F50009042008A81001B9131904000A6912F9011
:100F60004300A6912D904200A6912B904000A6919F
:100F70002A903E00A6912B904700A6912A00A691A8
:100F80002D00A6903D912B00A6903E912A00A690A0
:100F90003D912800A6903E912A00A69043912B00F7
:100FA000A69040912D01F4903E008A80001B903E57
:100FB000912607D08081F020444156494C2050456D
:100FC0004E44554C554D20574F524C440A20202832
:100FD00048414F532076657273696F6E20312E3011
:100FE00031290A20204C4546543A206D6F76654CD5
:100FF0006566740A2052494748543A206D6F7665F9
:1010000052696768740A2020202020413A206A75BE
:101010006D700A2020202020423A206D61696E4DBB
:10102000656E750A2041202B20423A20457869746C
:101030000A20205072657373204120746F207374EE
:10104000617274004C6576656C3A2000507265736D
:1010500073204220746F204261636B004849474807
:101060002053434F52455300507265737320422002
:10107000746F204261636B0053455454494E47538B
:1010800000536F756E643A204F6E00536F756E6437
:101090003A204F6666004D41494E204D454E550061
:1010A000080B000202020000090400000102020015
:1010B0000005240010010524010101042402060595
:1010C0002406000107058103100040090401000205
:1010D0000A000000070502024000000705830240E5
:1010E00000000403090412010002EF020140412341
:1010F000368000010102030141726475696E6F2040
:101100004C4C430041726475626F7900A116112442
:101110001FBECFEFDAE0DEBFCDBF12E0A0E0B1E04E
:10112000EAECF2E502C005900D92AE36B107D9F7B0
:1011300029E0AEE6B2E001C01D92AB3FB207E1F795
:1011400018E0C7E8D8E004C02197FE010E945D299D
:10115000C638D107C9F70E94E7160C9463290C948E
:10116000000080918B020895E2EEF5E0A0E0B8E087
:1011700000800EBC8111012C1197A0FDFDCF0192C2
:10118000B9F70DB408954F925F926F927F928F924C
:101190009F92AF92BF92CF92DF92EF92FF92CF9346
:1011A000DF93EC014A015B01E091E005F091E1057C
:1011B0000995882309F460C080918F05823008F476
:1011C0005BC081E080938E0580918D0580938C05B6
:1011D000712C612C60E072E18AE790E0A3019E012E
:1011E0000E94FA2569017A0181E0C81AD108E10854
:1011F000F10891E0C114D10481E0E806F10484F023
:1012000068E478EE81E090E0A3019E010E94FA2557
:1012100069017A0181E0C81AD108E108F10893E078
:1012200080918100887F892B809381002FEF3FEF91
:10123000A90181149104A104B10469F0DE01AA0F8F
:10124000BB1FA50194010E94192628EE33E040E05F
:1012500050E00E942C26D0928900C09288002093F2
:1012600088053093890540938A0550938B058091BA
:101270006F00826080936F00DF91CF91FF90EF90BD
:10128000DF90CF90BF90AF909F908F907F906F90A6
:101290005F904F900895E1E0F0E00E94600931977F
:1012A00028F068517C4F8F4F9F4FF9CFAB01FC0165
:1012B0000E946009641775078E079F07C8F3089599
:1012C000A7E8B2E02FB7F8947D918D919C9166B517
:1012D0002FBFA89B05C06F3F18F47F5F8F4F9F4FB4
:1012E00022E0660F771F881F991F2A95D1F708956E
:1012F000FC0180918705882311F13FB7F89482E0C3
:101300008093E9002091F200822F90E018161906D0
:1013100014F481E090E0882339F0289844E6409363
:1013200086054091F1004083222339F02091F2009C
:10133000211103C02BE62093E8003FBF08958FEFF3
:101340009FEF08952FB7F89483E08093E900909180
:10135000E800892F807295FF04C09091F20080E42C
:10136000891B2FBF089580917E0581110DC082E0F9
:1013700080937A0584E080937B0510927D0510921E
:101380007C0581E080937E058AE795E008958F9241
:101390009F92AF92BF92CF92DF92EF92FF920F9304
:1013A0001F93CF93DF936C017B018A0180913501FC
:1013B000882309F458C080918705882309F453C015
:1013C0008091790580FF05C08091E0008260809364
:1013D000E000E801B12C8AEFA82E93E0892E2AE3E1
:1013E000922E209711F4BB20B9F10E94A20981111D
:1013F00006C0AA94AA20B9F10E944B09F2CF8C171B
:101400001D0611F00CF08C2F9FB7F8948092E90024
:101410002091E80025FD02C09FBFE3CF282F30E0D8
:10142000C21BD30BF701815020F041914093F10092
:10143000FACFE20EF31EBB2021F09092E800B12C0F
:10144000EBCF8091E80085FDE7CF9092E800BB24C8
:10145000B394209709F3F3CF5D9884E680937805E1
:10146000101611063CF081E090E0F6019383828330
:1014700010E000E0C801DF91CF911F910F91FF9024
:10148000EF90DF90CF90BF90AF909F908F90089596
:10149000CF93DF931F92CDB7DEB76983DC01ED9167
:1014A000FC910280F381E02D41E050E0BE016F5FCE
:1014B0007F4F09950F90DF91CF91089583E080933E
:1014C000E9008091F200882319F08AE38093E80014
:1014D00008950E94A20990E00895CF93DF931F9290
:1014E000CDB7DEB7FC018485958597FD08C02FEF49
:1014F0003FEF358724870F90DF91CF910895CE017C
:1015000001960E947809019719F4898190E0F3CF40
:101510008FEF9FEFF0CF0F931F93CF93DF931F9227
:10152000CDB7DEB78C01FC018485958597FF0BC094
:10153000CE0101960E947809019771F4898190E0AB
:10154000F80195878487F801848595850F90DF9150
:10155000CF911F910F9108958FEF9FEFF1CFFC0175
:101560008485958597FD0BC09FB7F89482E08093A2
:10157000E9008091F2009FBF90E0019608959FB727
:10158000F89482E08093E9008091F2009FBF90E0A0
:101590000895409174055091750520917205309120
:1015A000730542175307B4F49091E8009570E1F386
:1015B0009091E80092FD19C08093F100809174052C
:1015C0009091750501968F739927892B19F48EEFE9
:1015D0008093E80080917405909175050196909331
:1015E00075058093740581E0089580E00895DF9289
:1015F000EF92FF920F931F93CF93DF93D82E8A0120
:10160000EB017B01E40EF51ECE15DF0559F0D7FE88
:1016100012C0FE0184910E94C90A21968111F4CF63
:101620000FEF1FEFC801DF91CF911F910F91FF9036
:10163000EF90DF9008958881EECF0F931F93CF93A3
:10164000DF931F92CDB7DEB782E0898342E450E09A
:1016500060EA70E180E80E94F70A0E94B309DC01A9
:1016600012960D911C910115110589F0D801ED918B
:10167000FC910280F381E02DBE016F5F7F4FC801B6
:10168000099597FD04C0F80100851185ECCF89818B
:101690000F90DF91CF911F910F910895615030F01D
:1016A0002091F100FC0120830196F8CF289884E670
:1016B000809386050895EF92FF920F931F93CF9327
:1016C000DF938C017B01D0E0C0E0F701EC0FFD1F40
:1016D0006491662361F0D801ED91FC910190F08155
:1016E000E02DC8010995892B11F02196EECFCE018E
:1016F000DF91CF911F910F91FF90EF900895AF92DE
:10170000BF92CF92DF92EF92FF920F931F93CF93EE
:10171000DF936C017B018B01040F151FEB015E0150
:10172000AE18BF08C017D10759F06991D601ED91E5
:10173000FC910190F081E02DC6010995892B79F784
:10174000C501DF91CF911F910F91FF90EF90DF9036
:10175000CF90BF90AF900895AB01FC010E9460094B
:1017600041505109E109F10928F068517C4F8F4F30
:101770009F4FF6CFAB01FC010E946009641775070B
:101780008E079F07C8F30895CF92DF92EF92FF92E2
:101790001F93CF93DF93E82FF0E0E65CFE4F1081BC
:1017A000E62FF0E0603398F5EC57F84FE491CE2F38
:1017B000D0E0F12CE12C60E074E284EF90E0A7012E
:1017C0009E010E94FA25215031094109510991E0F9
:1017D0002115310581E0480751056CF060E970ED95
:1017E00083E090E0A7019E010E94FA252150310973
:1017F0004109510993E0113089F0133039F1DF913B
:10180000CF911F91FF90EF90DF90CF900895EE0F52
:10181000FF1FEC57F94FC591D491CBCF80918E0526
:101820008111EDCF80918100887F892B8093810089
:1018300030938900209388001092850010928400D4
:1018400080916F00826080936F00D9CF809191006A
:10185000887F892B80939100309399002093980082
:101860001092950010929400D0938402C09383024A
:1018700081E0809382028091710082608093710088
:10188000BECFE82FF0E0E65CFE4F8081813019F09A
:101890008330A9F0089580918E0581110FC0809149
:1018A0006F008D7F80936F0080917902E0917702C5
:1018B000F091780290818095892380830895109219
:1018C000820280918C058111F9CF80918002E09194
:1018D0007E02F0917F02EECFCF93DF93D1E0E091D3
:1018E0008D02F0918E02AF014F5F5F4F50938E02D9
:1018F00040938D022491822F807FC22FCF70803839
:1019000021F48C2F0E94410CEACF803919F5E09127
:10191000E005F091E10509958D2780938102E09122
:101920008D02F0918E02CF01019690938E028093EA
:101930008D02649180918F05C81788F6C13021F41B
:10194000809176028111CBCF67FDC9CF8C2F0E9489
:10195000C40BC5CF87FD3CC03296F0938E02E09356
:101960008D02FA014491A0918302B0918402322F3A
:10197000242F0E944E266C507E4F8F4F9F4F28EE93
:1019800033E040E050E00E942C2620937A0230930E
:101990007B0240937C0250937D0280917A02909169
:1019A0007B02A0917C02B0917D02892B8A2B8B2B2C
:1019B00061F481E090E0A0E0B0E080937A0290933F
:1019C0007B02A0937C02B0937D02DF91CF910895BA
:1019D000803E49F480918F029091900290938E0204
:1019E00080938D027CCF803F09F079CF10928C02DA
:1019F000ECCF90918F05923009F471C0292F30E01F
:101A0000F901E65CFE4F40812C583D4FF90180837F
:101A1000913031F420917402281302C09093760221
:101A20009F5F90938F0590E0FC01EB53F94F249159
:101A30008A55994FFC01849130E0220F331FF90140
:101A4000E856F94F65917491F901E657F94FA59160
:101A5000B4919C91982B9C93413019F04330D9F06C
:101A6000089590916400977F909364001092800095
:101A700010928100909181009860909381009091E4
:101A80008100916090938100709378026093770257
:101A900080937902089590916500977F90936500F7
:101AA0001092900010929100909191009860909304
:101AB00091009091910091609093910070937F02BA
:101AC00060937E028093800280918F05882321F0AD
:101AD0006CE380E00E94C40B80E00C94410C0895FC
:101AE0006F927F928F929F92AF92BF92CF92DF922E
:101AF000EF92FF920F931F93CF93DF934C017B01E3
:101B0000C22F102F98E0A92EB12C642E66946694F3
:101B10006694712CCA0187709927892B79F5D401B5
:101B200017962D913C91C7019927B9010E9435293B
:101B3000269DF001279DF00D369DF00D11248E0F8E
:101B40009F1FD4011596ED91FC91E80FF91F20819C
:101B5000111112C0C095C223C083DF91CF911F9194
:101B60000F91FF90EF90DF90CF90BF90AF909F903C
:101B70008F907F906F900895C22BEECFD0E047708A
:101B8000C42ED12C83E0660C771C8A95E1F79E0168
:101B900001C0220F4A95EAF7012FA301B701C40142
:101BA0000E94700DA301485F5F4FC5018C199D090C
:101BB00002C0D595C7958A95E2F7A7CF5F926F923D
:101BC0007F928F929F92AF92BF92CF92DF92EF92CD
:101BD000FF920F931F93CF93DF93EC016A30F1F4E0
:101BE0008D859E859C878B878C892F853889820F70
:101BF000932F911D988B8F8781E090E0DF91CF919B
:101C00001F910F91FF90EF90DF90CF90BF90AF901A
:101C10009F908F907F906F905F900895AB84BC846D
:101C2000693031F429E0A20EB11CBC86AB86E4CF4A
:101C30003DEFA3163FEFB3060CF45DC08F8198858E
:101C4000A816B9060CF057C0CF84D8888DEFC816F7
:101C50008FEFD8060CF44FC089859A85C816D9062F
:101C60000CF049C0603208F46FE780EE860F9FE900
:101C7000960F9A3118F49FEFC91AD90A8C3011F0D7
:101C80008B3119F42FEFC21AD20A869534E0839F64
:101C9000C00111249C0126533A4F7901912C812CCB
:101CA000162F1170F701E80DF91D549011112DC078
:101CB000352D3F70532E3501680C791C8C8188239B
:101CC00061F001E089899A89892B09F000E02FE011
:101CD000A601B301CE010E94700D0989252DA60130
:101CE000B301CE010E94700D8FEF881A980A94E01C
:101CF00089169104B9F68B8990E004962B853C8572
:101D0000820F931F9C878B8777CF52948FE0582246
:101D1000D2CF2D9A0895BC0190E080E00C94AC0BDA
:101D20008FB18095807F669B88601C9B846008953E
:101D300081E083BF889513BE089510926A0520E460
:101D40002093C0009093BF008093D100089510921B
:101D50008B023E983F9808953E9A3F9A81E0809387
:101D60008B02089580E0E2EEF5E081118FEF002410
:101D700081938193819381930394D1F710926505A8
:101D8000109264051092670510926605089590916F
:101D90006B05982329F490916C05982381E009F450
:101DA00080E00895CF93C82F0E94900E982F9C2317
:101DB00081E09C1380E0CF91089580E00C94B408FA
:101DC00080389105B8F460347105A0F420E191E009
:101DD00061FD94E060FD990F62FD9295687F269FFA
:101DE000D0011124A80FAE51BA4F8C9140FF03C00F
:101DF000892B8C93089590958923FBCFEF92FF92C6
:101E00000F931F93CF93DF937C018B01040F111D60
:101E1000EB0177FF02C0D0E0C0E0C801013411053A
:101E200014F080E490E0C817D9073CF441E0BE010B
:101E3000C7010E94E00E2196F0CFDF91CF911F9154
:101E40000F91FF90EF9008952F923F924F925F92E3
:101E50006F927F928F929F92AF92BF92CF92DF92BA
:101E6000EF92FF920F931F93CF93DF9300D01F92B7
:101E7000CDB7DEB76C015B01242F30E03B832A83B2
:101E8000440F4F5F621B730B0E94FE0E01E010E0D7
:101E90008A819B81081B190B1C0131942194310804
:101EA000220C331C66246394712CF12CE12C17FD59
:101EB0000BC02A813B81215031093B832A8332E0C8
:101EC000230E311C020D131D8FEFE81AF80A92E061
:101ED000690E711C060D171D8A81880F8F5F89831B
:101EE000482F25012A813B81421A530AB201C701BA
:101EF0008C0D9D1D0E94FE0E45018E189F08462DDB
:101F0000B4018A819B818C0D9D1D0E94FE0E49812A
:101F1000B201C6018E199F090E94FE0E462DB40122
:101F2000C6012A813B81821B930B0E94FE0E8A818F
:101F30009B81E816F9060CF4BACF0F900F900F9022
:101F4000DF91CF911F910F91FF90EF90DF90CF9095
:101F5000BF90AF909F908F907F906F905F904F90C9
:101F60003F902F9008952F923F924F925F926F92E1
:101F70007F928F929F92AF92BF92CF92DF92EF9219
:101F8000FF920F931F93CF93DF93EC018B017A01A4
:101F90006901C61AD70AD7FE03C0D194C194D108EB
:101FA00047018C1A9D0A97FE03C091948194910871
:101FB0008C149D0454F49E2D8F2D7901292F382FD8
:101FC0009C2F8D2FE801092F182FEC16FD0654F4D5
:101FD000902F812F8901292F382F9C2F8D2FE701DA
:101FE000E92EF82E17012C1A3D0A2901401A510A30
:101FF00057FE03C0519441945108310137FE03C08C
:102000008FEF681A780A759467948FEF0217130799
:102010000CF481E0A82E880FBB08EC16FD06A4F096
:1020200041E0BE01C8018C149D0414F0B801CE013A
:102030000E94E00E6418750877FE04C00A0D1B1D8F
:10204000620C731C2196E9CFDF91CF911F910F9104
:10205000FF90EF90DF90CF90BF90AF909F908F90C8
:102060007F906F905F904F903F902F9008958F9248
:102070009F92AF92BF92CF92DF92EF92FF920F9317
:102080001F93CF93DF936D3089F0C0906405D0909B
:1020900065056A30D1F4109267051092660588E0F4
:1020A000C80ED11CD0926505C092640581E090E015
:1020B000DF91CF911F910F91FF90EF90DF90CF9024
:1020C000BF90AF909F908F900895009166051091FA
:1020D0006705E5E06E9FE0011124C653DF4F48011C
:1020E000F12CF5E0E12CFF1629F0CE010196FE015E
:1020F000E490EC01B12CA12C4E2D4170B6016A0D7B
:102100007B1DC4010E94E00EE694FFEFAF1ABF0AE8
:1021100088E0A816B10481F7F394EFEF8E1A9E0AB7
:10212000F6E0FF12DECF0A5F1F4F109367050093A2
:102130006605BCCF089590E080E00895FB01019012
:102140000020E9F73197AF01461B570BDC01ED91F9
:10215000FC910280F381E02D09948F929F92AF92BF
:10216000BF92EF92FF920F931F93CF93DF93CDB760
:10217000DEB7A1970FB6F894DEBF0FBECDBF7C01CE
:10218000FA01CB0119A2223008F42AE08E010F5D7A
:102190001F4F822E912CB12CA12CBF01A5019401BF
:1021A0000E942C26F901CA016A300CF5605DD80145
:1021B0006E938D01232B242B252B79F790E080E063
:1021C000109721F0BD01C7010E949E10A1960FB685
:1021D000F894DEBF0FBECDBFDF91CF911F910F915D
:1021E000FF90EF90BF90AF909F908F900895695CA3
:1021F000DECFCF92DF92EF92FF920F931F93CF9398
:10220000DF936B01770FEE08FF08F7FE1FC0EC01AC
:10221000E881F9810190F081E02D6DE209958C0152
:1022200044275527BA014C195D096E097F092AE038
:10223000CE010E94AD10800F911FDF91CF911F91B1
:102240000F91FF90EF90DF90CF9008952AE0B701B3
:10225000A601DF91CF911F910F91FF90EF90DF903A
:10226000CF900C94AD104F925F926F927F928F92AD
:102270009F92AF92BF92CF92DF92EF92FF920F9315
:102280001F93CF936B017C01742EAC019B010E94C4
:10229000E7286DE671E0811126C046015701E894F8
:1022A000B7F82FEF3FEF4FE75FE7C501B4010E949A
:1022B000E72881110CC02FEF3FEF4FE75FE7C50123
:1022C000B4010E94CA2661E771E0181664F02FEF8E
:1022D0003FEF4FE75FE4C701B6010E946D28181673
:1022E000ACF465E771E082EE99E0CF911F910F9118
:1022F000FF90EF90DF90CF90BF90AF909F908F9026
:102300007F906F905F904F900C949E102FEF3FEF57
:102310004FE75FECC701B6010E94CA2687FDE1CFF7
:1023200020E030E0A901C701B6010E94CA2610E0F2
:1023300000E087FF0AC06DE282EE99E00E94DE0DA8
:102340008C01F7FAF094F7F8F094C0E060E070E0E8
:1023500080E09FE37C1641F020E030E040E251E471
:102360000E94D426CF5FF6CFA70196010E945E2679
:102370002B013C010E944D274B015C012AE0BC016E
:10238000A40182EE99E00E94AD107C01E00EF11EE6
:10239000CC23D1F1C501B4010E947C279B01AC0183
:1023A000C301B2010E945D264B015C016EE282EE28
:1023B00099E00E94DE0DE80EF91EC15028F120E0E0
:1023C00030E040E251E4C501B4010E9472282B01C3
:1023D0003C010E944D274B01B12CA12C2AE0B501F4
:1023E000A40182EE99E00E94AD10E80EF91EC5012D
:1023F000B4010E947C279B01AC01C301B2010E9481
:102400005D264B015C01D9CFC701CF911F910F9180
:10241000FF90EF90DF90CF90BF90AF909F908F9004
:102420007F906F905F904F9008950C949E108F92C4
:102430009F92AF92BF92CF92DF92EF92FF920E9453
:102440008C254B015C010E948C2520E530E040E0AA
:1024500050E00E94FA256B017C0124E1C20ED11CE0
:10246000E11CF11CC501B4012CE637E040E050E06E
:102470000E94FA25DC01CB018C599F4FAF4FBF4F13
:10248000B701A601FF90EF90DF90CF90BF90AF9083
:102490009F908F900C94C3080E948C2520E830E018
:1024A00040E050E00E94FA25709365036093640356
:1024B0000E948C2520E430E040E050E00E94FA25A4
:1024C000709363036093620381E0809366030895D1
:1024D0008BED9FE0A9ECBFE3809307019093080187
:1024E000A0930901B0930A01809303019093040122
:1024F000A0930501B0930601109267031092680340
:102500001092690310926A0310926B0310926C038D
:1025100010926D0310926E0380E490E09093190185
:102520008093180180E290E0909302018093010172
:102530001092730310927403109275031092760335
:102540000E944C12109296021092950281E090E047
:1025500090931B0180931A0110926D050C94B20E9A
:102560000C94E4251F920F920FB60F9211248F93B3
:102570009F938091E1009091E100937F9093E1001F
:1025800083FF0FC01092E90091E09093EB0010924E
:10259000EC0092E39093ED001092870598E0909301
:1025A000F00082FF22C093E09093E9009091F20046
:1025B000992319F09AE39093E80090917805992374
:1025C00041F090917805915090937805911101C058
:1025D0005D9A90918605992341F0909186059150DE
:1025E00090938605911101C0289A84FF18C08091AC
:1025F000E2008E7E81608093E2008091E1008F7E18
:102600008093E100809179058E7E806180937905C9
:102610009F918F910F900FBE0F901F90189580FF84
:10262000F7CF8091E2008E7E80618093E2008091FE
:10263000E1008E7E8093E100809179058E7E81603D
:10264000E5CF1F920F920FB60F921124CF92DF9217
:10265000EF92FF920F931F932F933F934F935F93AC
:102660006F937F938F939F93AF93BF93EF93FF935A
:10267000CF93DF93CDB7DEB76C97DEBFCDBF10929F
:10268000E9008091E80083FF25C068E0CE0145960F
:102690000E944E0B82EF8093E8008D8987FF39C03E
:1026A0009091E80090FFFCCF982F907609F034C10C
:1026B0009E894F89588D2F89F88C911131C08038AF
:1026C00061F5809177058093F1001092F1008EEF13
:1026D0008093E8006C960FB6F894DEBF0FBECDBFB6
:1026E000DF91CF91FF91EF91BF91AF919F918F912A
:1026F0007F916F915F914F913F912F911F910F911A
:10270000FF90EF90DF90CF900F900FBE0F901F9033
:1027100018959EEF9093E800C7CF1092F100D5CFA7
:10272000913059F48111D3CF4130510581F6809118
:1027300077058D7F80937705CACF933049F4811157
:10274000C6CF4130510519F6809177058260F2CFEE
:10275000953041F48091E80080FFFCCF2068209301
:10276000E300B5CF963009F0A9C00B8D1C8D22E097
:102770001092E9001092750510927405F2122EC0A5
:1027800010927305109272050E941D0B1F8299E032
:102790009983FA8291E09E8390EA98879AEF9987CD
:1027A0002091740530917505275F3F4F3C832B8343
:1027B0008D831092E90010927505109274051093A4
:1027C00073050093720549E050E0BE016F5F7F4FD3
:1027D00080E00E94F70A0E941D0B79CF10937305C9
:1027E000009372050E94B309DC0112960D911C91B1
:1027F0000115110509F451C1D801ED91FC91048036
:10280000F581E02DBE016B5E7F4FC80109950097F1
:1028100009F03EC1F80100851185EACFF3E0FF120F
:102820000EC08F89882309F440C0823061F440E8EB
:1028300067E084E091E10E946E16811148CF81E249
:102840008093EB0047CF813029F440E86BE088EFBC
:1028500090E1F1CF833099F70E94B309DC01129621
:10286000ED90FC908E010F5F1F4F6801E114F104A1
:1028700079F0D701ED91FC910680F781E02DB80148
:10288000C7010995080F111DF701E084F184EECF0F
:10289000D8011C92F60101900020E9F73197BF01A1
:1028A0006C197D0940E0C601C6CF62EE70E1FB0104
:1028B000449150E080E80E94F70A09CF973009F46C
:1028C000BECF983021F481E08093F10000CF9930A1
:1028D00009F0FDCE837009F0B2CFEDE3F1E081E0C5
:1028E00031E096E32191222371F08093E900309347
:1028F000EB00DF0111972C912093EC009093ED00F9
:102900008F5F873079F78EE78093EA001092EA00B4
:102910008F8980938705DBCE8B8D9C8D1092E9008B
:10292000109275051092740590937305809372054B
:10293000898D811192C08E899D89913A49F48132A5
:1029400009F07DCF47E050E06EE271E080E0B3CF68
:10295000913209F074CF833269F48F89988DB0E099
:10296000A0E080932A0190932B01A0932C01B093B7
:102970002D01ADCE803269F48091E80082FFFCCF5A
:1029800067E08EE291E00E944E0B8BEF8093E800AF
:102990009ECE823209F09BCE8F8980933501EEEF77
:1029A000FFE7859194918B3F9C4D51F1E0E0F8E079
:1029B00080912E0190912F01A0913001B0913101B1
:1029C000803B9440A105B105F1F48091350180FD73
:1029D0001AC0EE3F8AE0F80789F587E797E7918309
:1029E0008083809160008093760588E19BE00FB63C
:1029F000F894A895809360000FBE9093600067CE16
:102A0000EEEFFAE0D5CF808191818737974709F0C3
:102A10005ECEA8958091600088618093600080916F
:102A2000760580936000EE3F2AE0F20789F08091FE
:102A3000FE0A9091FF0A9183808349CE8081918123
:102A40008737980751F29093FF0A8093FE0AC5CF0B
:102A50001092FF0A1092FE0A3ACE0E94B309DC01DE
:102A600012960D911C910115110509F4E8CED801BB
:102A7000ED91FC910190F081E02DBE016B5E7F4FE6
:102A8000C8010995811123CEF80100851185EBCF8E
:102A9000181619060CF41BCED2CEF1E0FF12BECEF2
:102AA00066EE70E104CF0F920FB68F939F93EF9372
:102AB000FF93809186028D5F8D3708F08D5780934C
:102AC0008602E7E7F3E080818E4F808391819F4FFC
:102AD000918382818F4F828383818F4F8383E7E845
:102AE000F2E080818F5F808381818F4F818382813B
:102AF0008F4F828383818F4F83838FB18F606699DD
:102B00001C9B88278F3681F480918502981B963014
:102B100068F0E0E0F8E087E78083818388E18093D4
:102B20006000F0936000FFCF90938502FF91EF91DA
:102B30009F918F910FBE0F9018951F920F920FB615
:102B40000F9211242F933F934F935F936F937F9333
:102B50008F939F93AF93BF93EF93FF9380918202E4
:102B6000882389F080918C0581110DC080918102AC
:102B7000811109C090918002E0917E02F0917F0264
:102B800080818927808380918C02882329F180911C
:102B90007A0290917B02A0917C02B0917D02892BF8
:102BA0008A2B8B2BC9F080917A0290917B02A091A5
:102BB0007C02B0917D020197A109B10980937A024C
:102BC00090937B02A0937C02B0937D02892B8A2B89
:102BD0008B2B11F40E946C0CFF91EF91BF91AF9180
:102BE0009F918F917F916F915F914F913F912F9125
:102BF0000F900FBE0F901F9018951F920F920FB657
:102C00000F9211248F939F93AF93BF93EF93FF93F2
:102C100080918E05882309F454C080918805909195
:102C20008905A0918A05B0918B05892B8A2B8B2B66
:102C3000A1F190917902E0917702F0917802808180
:102C4000892780838091880590918905A0918A05C4
:102C5000B0918B05181619061A061B069CF4809174
:102C6000880590918905A0918A05B0918B050197FF
:102C7000A109B1098093880590938905A0938A05DD
:102C8000B0938B05FF91EF91BF91AF919F918F9181
:102C90000F900FBE0F901F90189510928C051092F8
:102CA0008E0580916F008D7F80936F0080917902F7
:102CB000E0917702F091780290818095892380835A
:102CC000E1CF809181028111DDCF90917902E09175
:102CD0007702F091780280818927F1CFEF92FF92FD
:102CE0000F931F93CF93DF93F82E192FE62E042F07
:102CF00081E0860F880F0E94C90A83E00E94C90AFA
:102D0000CF2DD12FEC0EFD2EF11CCE15DF05B9F025
:102D100007FF13C0FE0184910E94C90A182F80E0AA
:102D20000E94C90A812321968111EFCFDF91CF91B3
:102D30001F910F91FF90EF9008958881EDCF81E072
:102D4000F5CFE0E9F5E01382128288EE93E0A0E08F
:102D5000B0E084839583A683B78387E491E0918371
:102D600080838FEF9FEF95878487E7EFF9E01382E9
:102D7000128285E691E091838083E2EEF9E013828E
:102D8000128289E591E09183808382EE95E09683BB
:102D9000858380E890E09087878380E490E0928745
:102DA000818785E0848B81E0838B16861586108A67
:102DB00017861486138681E090E0928B818B1482B3
:102DC00081EB98E09093E1058093E0050895CDB7FD
:102DD000DEB7C054D109DEBFCDBF789483E084BD97
:102DE00083E085BD81E080936E00E1E8F0E083E060
:102DF0008083E0E881E08083E1E983E08083E0E9AB
:102E000081E08083E1EC87E08083E3EC81E08083F4
:102E1000E0EC82E08083E2EC81E08083EAE787E017
:102E200080838068808310928705109277051092C6
:102E300079058091D70081608093D70080EA8093E4
:102E4000D80089B5806189BD89B5826089BD09B422
:102E500000FEFDCF0E944B098091D8008F7C8061DD
:102E60008093D8008091E000807F8093E000809183
:102E7000E1008E7E8093E1008DE08093E200559A20
:102E8000209A81EC80937C0085B1806F85B984B1F4
:102E9000877E84B984B1876E84B95E9A5F988AB15F
:102EA000806D8AB9769A6E9881B3806F81BB89985C
:102EB00080B38D7080BB80E58CBD81E08DBD85E0E9
:102EC00090E00E948B0E5F9A85E090E00E948B0E4E
:102ED0005E985C98E4E6F8E081E798E024912EBDE6
:102EE00000000DB407FEFDCF31968E179F07B1F796
:102EF0005C9A81E880936400809165008160809392
:102F000065000E94DD0E80E80E94D20E882371F0D9
:102F10005C9885EA8EBD00000DB407FEFDCF5C9A7B
:102F20002E982F982D980E94980EFDCF84E00E9435
:102F3000D20E882309F448C02D9884E80E94D20E4E
:102F40008823E1F00E94890E88EC90E00E948B0EAD
:102F50002F9882E090E00E94E4258F3F29F06FEFE8
:102F600082E090E00E94EC2584EF91E00E948B0EBD
:102F70002F9A84E80E94D20E8111FBCF84E10E9437
:102F8000D20E8823E1F00E94890E88EC90E00E9426
:102F90008B0E2E9882E090E00E94E425882329F091
:102FA00060E082E090E00E94EC2584EF91E00E94D6
:102FB0008B0E2E9A84E10E94D20E8111FBCF88ECF9
:102FC00090E00E948B0EB2CF0E94890E82E090E0CA
:102FD0000E94B0128823C9F10E94AC0E81E090E0FB
:102FE0000E94B012282F2470922E81FF11C021114F
:102FF0002E98E1EF4E2E55245A9408E010E080E41C
:103000000E94D20E882321F12E9A2F9A0E94890EB7
:1030100082E390E00E948B0E0E94900E8111F8CF07
:1030200080E1809300010E94B20E67EB7FE087EFA2
:1030300099E00E945B0B0E94DD0E88E00E94D20E98
:103040008111CDC00E94980EF8CF0E94A70EC6CF66
:10305000992031F034E04316510411F42E9A2F9840
:1030600081E00E94B408920157FE04C02227332752
:103070002419350927703327C20157FC079673E0DE
:10308000959587957A95E1F757FE05C00197A801B8
:10309000421B530B9A01AC015695542F4427579568
:1030A00047954E515A4FB0E0A0E03801621A730ABA
:1030B0008E3F6FEF960709F43BC06A01E4E9CE0E3C
:1030C000D11C7A0170E060E0FD01EC54F84F5F0123
:1030D0008F3F980779F0F501E60FF71FE491F0E0D4
:1030E0001F01022E01C0220C0A94EAF7F70184881E
:1030F0002828248A2115310581F0F501E60FF71FF4
:10310000E491F0E01F01062C02C0359427940A9444
:10311000E2F7F6018080282820826F5F7F4FFFEF63
:10312000CF1ADF0AEFEFEE1AFE0A6835710581F655
:103130000196A85ABF4F40585F4FA03BB10509F018
:10314000B7CF0E94DD0E8FE090E00E948B0EFFEF64
:103150004F1A5F0A29E14216510409F050CF992015
:1031600011F02F9A2D9880E991E00E948B0E0E9419
:10317000890E81E090E00E94B01280FF49CF8AE082
:1031800090E00E94B0129FEF980F9E3F08F040CF52
:1031900022E330E0309367052093660528E330E0B2
:1031A00030936505209364054BE050E05A834983D2
:1031B000682F87EF99E00E94371089819A810E94D9
:1031C000B012A981BA811196BA83A983519781F768
:1031D0000E94DD0E88EE93E00E948B0E19CF0E94B4
:1031E0004C1285E00E94F90C8DE00E94F90C809150
:1031F0008B02811136C087EA5C988EBD00000DB449
:1032000007FEFDCF5C9A80918C0281110FC081E78F
:1032100098E09093900280938F0290938E02809317
:103220008D020E946C0C81E080938C02B0E22B2E08
:10323000312C8FB7F89440917703509178036091C7
:10324000790370917A038FBF80919302882359F09C
:103250001092930280E090E0892B59F30E940000C5
:10326000E5CF86EAC9CF80919402B42FB81B8B2F8B
:1032700090910001B91730F48F5F891758F70E94B9
:10328000980EE8CF81E0809393024093940280915E
:1032900091029091920201969093920280939102F2
:1032A00080916C0580936B050E94900E80936C0555
:1032B0000E94B20E80916A05882339F08150809374
:1032C0006A05811102C01092C000809129018823F3
:1032D00009F4CBC0309267052092660585E090E046
:1032E000909365058093640566E970E187EF99E046
:1032F0000E945B0B84E190E09093670580936605E4
:1033000090936505809364058091680590916905A7
:1033100069E771E0892B11F065E871E087EF99E0CA
:103320000E94151284E190E09093670580936605F2
:103330008EE190E090936505809364058091680527
:103340009091690561E971E0019711F06CE971E014
:1033500087EF99E00E94151284E190E09093670551
:103360008093660588E290E09093650580936405FC
:10337000809168059091690567EA71E0029711F004
:1033800060EB71E087EF99E00E94151280E80E94DF
:10339000C70E882369F080916805909169050296AF
:1033A00063E070E00E943529909369058093680579
:1033B00080E10E94C70E882369F080916805909192
:1033C0006905019663E070E00E94352990936905D4
:1033D0008093680588E00E94C70E882341F08091A1
:1033E000680590916905009781F51092290184E0A4
:1033F0000E94C70E882351F08091280191E089270F
:1034000080932801882371F10E94AC0E8BE490E038
:103410009093F0098093EF099093EE098093ED0962
:1034200087E390E09093F2098093F109809128015D
:1034300061E870E1811102C06BE870E182EE99E011
:103440000E945B0B0E94DD0E05CF8130910521F4B7
:1034500081E080937105C9CF029749F681E080939E
:103460007005C3CF0E94A70ED1CF8091710588232C
:1034700009F421C288E290E0909367058093660585
:10348000109265051092640568E770E187EF99E096
:103490000E945B0B8AE090E09093F0098093EF0923
:1034A0009093EE098093ED099093F2098093F109CE
:1034B000809162059091630569EB71E0892B11F0B1
:1034C0006EEC71E082EE99E00E9415128091610528
:1034D00063EE71E0811102C066EE71E082EE99E068
:1034E0000E9415128AE090E09093F0098093EF0912
:1034F0009093EE098093ED0984E190E09093F209B6
:103500008093F10980916205909163056AEE71E004
:10351000019711F06AEF71E082EE99E00E941512B6
:1035200060912401709125018091260190912701DD
:1035300042E00E9433118AE090E09093F00980937A
:10354000EF099093EE098093ED098EE190E090935E
:10355000F2098093F10980916205909163056AE018
:1035600072E0029711F069E172E082EE99E00E9448
:10357000151260912001709121018091220190919A
:10358000230142E00E9433118AE090E09093F00919
:103590008093EF099093EE098093ED0988E290E023
:1035A0009093F2098093F1098091620590916305EF
:1035B00068E272E0039711F069E372E082EE99E04D
:1035C0000E94151260911C0170911D0180911E01D5
:1035D00090911F0142E00E94331184E190E09093AA
:1035E00067058093660587E390E090936505809377
:1035F000640568E670E187EF99E00E945B0B80E864
:103600000E94C70E882369F080916205909163053E
:10361000039664E070E00E943529909363058093DF
:10362000620580E10E94C70E882369F080916205DF
:1036300090916305019664E070E00E9435299093B3
:1036400063058093620580916205909163058130E6
:10365000910509F482C07CF4892B09F46CC084E0E4
:103660000E94C70E882309F4EDCE1092710581E007
:1036700080932901E7CE8230910509F4C8C00397F1
:1036800071F780E20E94C70E882341F12AE037EDEE
:1036900043E25CE360911C0170911D0180911E0169
:1036A00090911F010E945D266B017C012AE037ED9D
:1036B00043E25CE30E94CA2687FF08C07AE0C72E77
:1036C00077EDD72E73E2E72E7CE3F72EC0921C0134
:1036D000D0921D01E0921E01F0921F0180E40E9431
:1036E000C70E882309F4BBCF2AE037ED43E25CE341
:1036F00060911C0170911D0180911E0190911F012C
:103700000E945E266B017C0120E030E040E85FE330
:103710000E946D28181634F4C12CD12C60E8E62ED6
:103720006FE3F62EC0921C01D0921D01E0921E01A3
:10373000F0921F0194CF80E20E94C70E811106C053
:1037400080E40E94C70E882309F489CF8091610527
:1037500091E089278093610582CF80E20E94C70EA5
:10376000882341F12AE037ED43E25CE360912401D4
:103770007091250180912601909127010E945D267C
:103780006B017C012AE037ED43E25CE30E94CA262C
:1037900087FF08C0AAE0CA2EA7EDDA2EA3E2EA2E20
:1037A000ACE3FA2EC0922401D0922501E0922601CA
:1037B000F092270180E40E94C70E882309F44FCFBE
:1037C0002AE037ED43E25CE360912401709125012A
:1037D00080912601909127010E945E266B017C0159
:1037E00020E030E040E85FE30E946D28181634F4D2
:1037F000C12CD12CF0E8EF2EFFE3FF2EC092240164
:10380000D0922501E0922601F092270128CF80E294
:103810000E94C70E882331F12DEC3CEC4CEC5DE3AB
:1038200060912001709121018091220190912301EA
:103830000E945D266B017C0120E030E040EA50EC04
:103840000E94CA2687FF06C0C12CD12CE0EAEE2ECA
:10385000E0ECFE2EC0922001D0922101E0922201E4
:10386000F092230180E40E94C70E882309F4F7CE6A
:103870002DEC3CEC4CEC5DE360912001709121015A
:1038800080912201909123010E945E266B017C01B0
:1038900020E030E0A9010E946D2818161CF4C12C0C
:1038A000D12C7601C0922001D0922101E092220118
:1038B000F0922301D4CE80917005882359F1309283
:1038C0006705209266058AE090E0909365058093F5
:1038D00064056CE570E187EF99E00E945B0B84E181
:1038E00090E090936705809366058EE190E0909359
:1038F0006505809364056CE470E187EF99E00E94B0
:103900005B0B84E00E94C70E882309F49BCD1092C4
:103910007005ADCE80916F05882309F471C001E870
:1039200013E051E6E52E55E0F52E1A830983A981AF
:10393000BA8118962D913D914D915C911B976D9197
:103940007D918D919C910E945E26E981FA81608330
:103950007183828393832485358546855785648169
:103960007581868197810E945E26A981BA8114960D
:103970006D937D938D939C9317975096BA83A983EB
:10398000EA16FB06A1F680917F03909180030196D1
:103990009093800380937F0365E070E00E94352957
:1039A000892B11F40E94171280917F03909180035C
:1039B0004F972CF010926F0581E080936D058091F8
:1039C0006F05882309F43ECDF801648175818681F5
:1039D00097810E9446276B01D8016D917D918D9151
:1039E0009C910E944627CB0141E0B6010E94240F22
:1039F000005F1F4FE981FA81E017F10729F722CD17
:103A000080916E058823E1F10E94B20E3092670525
:103A10002092660528E130E0309365052093640527
:103A200064E470E187EF99E00E945B0B60911A01FA
:103A300070911B0187EF99E00E94F9100E94DD0E42
:103A40002FB7F8948091770390917803A091790330
:103A5000B0917A032FBF40917B0350917C0360911A
:103A60007D0370917E03841B950BA60BB70B813DE4
:103A70009740A105B10508F4EDCB10926E05EACB95
:103A800080916D05811168C780E20E94D20E882363
:103A900061F08091180190911901181619062CF403
:103AA0000297909319018093180180E40E94D20E2E
:103AB000882361F080911801909119018A3791054E
:103AC0002CF40296909319018093180188E00E94CB
:103AD000D20E882381F08091200190912101A09144
:103AE0002201B09123018093730390937403A093F8
:103AF0007503B093760384E00E94C70E882329F0F3
:103B000081E0809329010E94681260916F03709197
:103B10007003809171039091720320911701222309
:103B200009F487C420E030E040E05FE30E945E26B5
:103B300060936F037093700380937103909372038B
:103B400020E030E040E052E40E946D2887FF1092B0
:103B500017018091130190911401A0911501B0916A
:103B600016018D879E87AF87B88BC0900F01D090CC
:103B70001001E0901101F090120120910B013091A1
:103B80000C0140910D0150910E0129833A834B8322
:103B90005C83A7019601C701B6010E945E262981B8
:103BA0003A814B815C810E945E2669A37AA38BA334
:103BB0009CA38090070190900801A0900901B0900B
:103BC0000A01C501B4010E94DF286DAB7EAB8FAB4B
:103BD00098AF8091030190910401A0910501B091EB
:103BE00006018D839E83AF83B8879C01AD01CD0113
:103BF000B9010E945E2669877A878B879C879B0123
:103C0000AC01C501B4010E945D260E94DF2869AFA6
:103C10007AAF8BAF9CAF2D813E814F815885C50116
:103C2000B4010E945D262B013C010E94DF28698BB4
:103C30007A8B8B8B9C8B20916B0330916C03409122
:103C40006D0350916E032D8B3E8B4F8B588FCA01A5
:103C5000B9010E94722820E030E040E052E40E9466
:103C600072286DA37EA38FA398A78091670390917C
:103C70006803A0916903B0916A03898F9A8FAB8F13
:103C8000BC8F9C01AD01CD01B9010E94722820E0DA
:103C900030E040E052E40E94722869A77AA78BA71F
:103CA0009CA7C301B2010E94CF266D8F7E8F8F8F9C
:103CB00098A3A5019401C501B4010E945E2629853F
:103CC0003A854B855C850E945D260E94CF269B012C
:103CD000AC0169817A818B819C810E9472289B0151
:103CE000AC0169A17AA18BA19CA10E945D2620E074
:103CF00030E040E052E40E9472286DA77EA78FA7B3
:103D000098AB29813A814B815C81C701B6010E9441
:103D10005E2669AB7AAB8BAB9CABC501B4010E944C
:103D2000CF2621966CAF7DAF8EAF9FAF21972091AC
:103D30001C0130911D0140911E0150911F012987E6
:103D40003A874B875C876D857E858F8598899058EB
:103D500029A13AA14BA15CA10E9472282DA93EA9DC
:103D60004FA958AD0E9472286B017C0169817A814C
:103D70008B819C8190582D853E854F8558890E9466
:103D8000722829AD3AAD4BAD5CAD0E9472289B0103
:103D9000AC01C701B6010E945E266B017C0120E0E8
:103DA00030E040E050EC69897A898B899C890E94D7
:103DB000722829813A814B815C810E9472282B01F3
:103DC0003C012D8D3E8D4F8D58A169A57AA58BA5FF
:103DD0009CA50E9472282DA13EA14FA158A50E942A
:103DE0005E269B01AC01C301B2010E9472289B01B7
:103DF000AC01C701B6010E945E262DA53EA54FA5C8
:103E000058A90E94D42629853A854B855C850E9455
:103E10007228298D3A8D4B8D5C8D0E945E266B0138
:103E20007C01C0926703D0926803E0926903F0922C
:103E30006A0329A93AA94BA95CA96D857E858F855E
:103E400098890E94722821962CAD3DAD4EAD5FAD94
:103E500021970E9472282B013C0129A93AA94BA95C
:103E60005CA969A57AA58BA59CA50E9472289B01D7
:103E7000AC01C301B2010E945E262B013C012DA1C1
:103E80003EA14FA158A569817A818B819C810E94B6
:103E900072282D8D3E8D4F8D58A10E9472289B0156
:103EA000AC01C301B2010E945E262B013C012989AD
:103EB0003A894B895C89CA01B9010E945E269B013F
:103EC000AC01C301B2010E9472282DA53EA54FA5E9
:103ED00058A90E94D42629853A854B855C850E9485
:103EE00072282D893E894F89588D0E945E262B01AC
:103EF0003C0140926B0350926C0360926D03709290
:103F00006E03A701960169857A858B859C850E9441
:103F10007228A50194010E945E264B015C018092EB
:103F2000070190920801A0920901B0920A01A30131
:103F3000920169857A858B859C850E9472282D81E6
:103F40003E814F8158850E945E266B017C01C092A4
:103F50000301D0920401E0920501F0920601C5012F
:103F6000B4010E94DF282B013C01C501B4010E946D
:103F7000CF2669837A838B839C83C701B6010E9415
:103F8000DF284B015C01C701B6010E94CF266D837B
:103F90007E838F83988780912801882309F4EBC062
:103FA00080916603882309F47DC220E030E040E080
:103FB00052E4C301B2010E94722820E030E040E8E0
:103FC00052E40E945E260E944627072E000C880BB2
:103FD000990B0E947E276B017C0120E030E040E0DD
:103FE00052E4C501B4010E9472289B01AC01C701D3
:103FF000B6010E945E260E9446277A876987209133
:10400000640330916503621B730B6E5F7F4F6530F5
:10401000710508F047C220E030E040E052E46981D9
:104020007A818B819C810E9472280E944627072EEC
:10403000000C880B990B0E947E276B017C0120E00D
:1040400030E040E052E46D817E818F8198850E944E
:1040500072289B01AC01C701B6010E945E260E9436
:1040600046278B012091620330916303621B730B1F
:104070006E5F7F4F6530710508F014C28091610357
:1040800081110FC086E490E00E949D0E8AE090E0CE
:104090000E948B0E10926A051092C00081E08093FE
:1040A0006103809164039091650349855A8548179F
:1040B00059070CF0D9C10E948C252AE030E040E07D
:1040C00050E00E94FA2565507109810991090E940A
:1040D0007E272AE037ED43E25CE30E9472282091BC
:1040E0006B0330916C0340916D0350916E030E94FD
:1040F0005E262DEC3CEC4CE45DE30E945D26609373
:104100006B0370936C0380936D0390936E038091A7
:10411000620390916303081719070CF0B4C10E9461
:104120008C252AE030E040E050E00E94FA256550FE
:104130007109810991090E947E272AE037ED43E247
:104140005CE30E94722820916703309168034091DC
:10415000690350916A030E945E262DEC3CEC4CE40E
:104160005DE30E945D26609367037093680380930C
:10417000690390936A0320912401309125014091B5
:10418000260150912701609173037091740380910F
:104190007503909176030E945E266B017C01C092AC
:1041A0007303D0927403E0927503F09276036091EA
:1041B000010170910201072E000C880B990B0E94DF
:1041C0007E27A70196010E945E260E9446276B3338
:1041D00071050CF06AC17093020160930101809136
:1041E00001019091020197FF0CC010920201109200
:1041F00001011092730310927403109275031092D0
:10420000760320E030E040E852E460916F03709163
:10421000700380917103909172030E945E260E9448
:10422000462769877A878B879C87C0900701D09043
:104230000801E0900901F0900A01C701B6010E944F
:10424000DF282B013C01A985BA85BD01BB0F880B76
:10425000990B0E947E274B015C0120E030E040E09A
:1042600052E4C301B2010E9472289B01AC01C50156
:10427000B4010E945E260E94462769837A838B835D
:104280009C83C701B6010E94CF2620E030E040E0C9
:1042900052E40E94722820E030E0A9010E945E26CC
:1042A0000E9446276D837E838F839887C090030189
:1042B000D0900401E0900501F0900601C701B6011D
:1042C0000E94DF282B013C01E981FA81BF01FF0F29
:1042D000880B990B0E947E274B015C0120E030E0A7
:1042E00040E052E4C301B2010E9472289B01AC017C
:1042F000C501B4010E945E260E9446272B01C7011A
:10430000B6010E94CF264B015C012D813E81B9018F
:10431000330F880B990B0E947E276B017C0120E0F4
:1043200030E040E052E4C501B4010E9472289B01D4
:10433000AC01C701B6010E945E260E9446276B01B0
:1043400080915F03909160039C01220F331FF9015C
:10435000E550FD4F5182408229563D4FD901CD9203
:10436000DC92019662E370E00E9435298C01909303
:10437000600380935F031E861D868D859E85800F5A
:10438000911F62E370E00E943529FC01EE0FFF1FD0
:10439000DF01A956BD4F6D917C91E550FD4F41E085
:1043A000808191810E94E00EED85FE853196FE8729
:1043B000ED87F29711F72D813E8149815A8170E096
:1043C00060E089859A850E94B30F9601A2016D81F4
:1043D0007E8189819A810E94B30F42E06D817E8146
:1043E00089819A810E94240F42E0B601C2010E9495
:1043F000240F0091010110910201209118013091C8
:1044000019013A832983790136E0E30EF11C4981D1
:104410005A814E155F0509F457C046E0B8018981FD
:104420009A810E94FE0E89819A8101969A838983DE
:10443000EECF20E030E040E05FE30E945D26609335
:104440006F0370937003809371039093720320E065
:1044500030E040E052EC0E94CA2618160CF479CBEA
:1044600081E08093170175CB2DEC3CEC4CE45DE3CF
:1044700060916B0370916C0380916D0390916E035A
:104480000E945E263CCE2DEC3CEC4CE45DE360915A
:104490006703709168038091690390916A030E9499
:1044A0005E2661CE1092610366CE8AE390E090931F
:1044B0000201809301011092730310927403109211
:1044C0007503109276038BCE80916603882359F092
:1044D000609162037091630343E080916403909163
:1044E00065030E94240F1092F0091092EF091092B8
:1044F000EE091092ED091092F2091092F1096AE4A6
:1045000072E082EE99E00E9415126091950270911E
:10451000960282EE99E00E94F91080E590E0909377
:10452000F0098093EF099093EE098093ED091092C2
:10453000F2091092F10962E572E082EE99E00E94C0
:10454000151260911A0170911B0182EE99E00E9490
:10455000F910C0900701D0900801E0900901F09097
:104560000A01C701B6010E94DF282B013C01C701E7
:10457000B6010E94CF2669837A838B839C83C09087
:104580000301D0900401E0900501F0900601C701FD
:10459000B6010E94DF284B015C01C701B6010E94F1
:1045A000CF266D837E838F83988780916F058111DD
:1045B000D4C020E030E040E052E4C301B2010E94E8
:1045C000722820E030E040E852E40E945E260E941B
:1045D0004627072E000C880B990B0E947E276B0143
:1045E0007C0120E030E040E052E4C501B4010E94CB
:1045F00072289B01AC01C701B6010E945E260E9491
:1046000046272091180130911901261B370B37FFDF
:1046100003C0319521953109263031050CF09DC03C
:1046200020E030E040E052E469817A818B819C8116
:104630000E9472280E944627072E000C880B990BB7
:104640000E947E276B017C0120E030E040E052E4D4
:104650006D817E818F8198850E9472289B01AC01BB
:10466000C701B6010E945E260E94462720910101E3
:1046700030910201261B370B37FF03C0319521957E
:104680003109263031050CF068C081E080936F0558
:104690001092800310927F03A1E8B3E0BA83A9834C
:1046A00001E214E060911801709119016D5F7F4F74
:1046B000072E000C880B990B0E947E27E981FA8156
:1046C0006083718382839383609101017091020101
:1046D0006D5F7F4F072E000C880B990B0E947E2781
:1046E000A981BA8114966D937D938D939C931797AE
:1046F0000E948C2525E030E040E050E00E94FA2541
:1047000062507109810991090E947E27E981FA812D
:1047100060877187828793870E948C2525E030E02F
:1047200040E050E00E94FA25625071098109910928
:104730000E947E27A981BA811C966D937D938D93EB
:104740009C931F970E941712E981FA817096FA8351
:10475000E9830E171F0709F0A5CF809118019091EA
:1047600019012091640330916503821B930B97FF1D
:1047700003C0919581959109069714F00C94221A23
:1047800080910101909102012091620330916303B5
:10479000821B930B97FF03C0919581959109069712
:1047A00014F00C94221A1092660380919502909155
:1047B00096020196909396028093950280916103F0
:1047C000811123C08EE190E00E949D0E8AE090E06E
:1047D0000E948B0E1092C0008EE390E00E949D0E0E
:1047E0008AE090E00E948B0E1092C0008EE190E073
:1047F0000E949D0E8AE090E00E948B0E10926A0546
:104800001092C00081E080936103809195029091A5
:1048100096026AE070E00E943529892B09F098C061
:1048200080911A0190911B01019690931B01809336
:104830001A0181E080936E059FB7F8944091770349
:10484000509178036091790370917A039FBF4093F0
:104850007B0350937C0360937D0370937E032091D0
:104860001A0130911B012430310524F080936D052D
:104870000C94221A2DEC3CEC4CE85FE3609167034A
:10488000709168038091690390916A030E94722875
:1048900060936703709368038093690390936A033E
:1048A0002DEC3CEC4CE85FE360916B0370916C0382
:1048B00080916D0390916E030E94722860936B0348
:1048C00070936C0380936D0390936E0320E030E04F
:1048D00040E05FE360910F01709110018091110140
:1048E000909112010E945E2660930F017093100157
:1048F000809311019093120120E030E040E05FE3EB
:1049000060910B0170910C0180910D0190910E014D
:104910000E945E2660930B0170930C0180930D0141
:1049200090930E012DEC3CEC4CEC5DE36091130197
:104930007091140180911501909116010E945E26DC
:1049400060931301709314018093150190931601E5
:104950000E944C120C94221A0E94B20E30926705EB
:104960002092660528E130E03093650520936405C8
:1049700080911A0190911B0104970CF47AC06AE5AA
:1049800072E087EF99E00E9415124EE150E05A83E1
:1049900049830E94B20E02E310E00E948C256B0155
:1049A0007C010E948C2520E430E040E050E00E9431
:1049B000FA254B01C701B60120E830E040E050E0A5
:1049C0000E94FA25CB0141E0B4010E94E00E8091E3
:1049D0002801882329F10E948C256B017C010E940B
:1049E0008C252EE130E040E050E00E94FA254B019A
:1049F0005C0154E1850E911CA11CB11CC701B601DC
:104A00002CED35E040E050E00E94FA25DC01CB01BE
:104A10008C509E4FAF4FBF4FB501A4010E94C308F9
:104A20000150110909F0B9CF0E94DD0E62E370E078
:104A300080E090E00E94AC0B89819A8101979A8373
:104A40008983892B09F0A5CF0E94DD0E88E00E94A2
:104A5000C70E811107C084E00E94C70E882311F49D
:104A60000C94221A81E0809329010E9468120C9410
:104A7000221A63E672E087EF99E00E941512E4CFF4
:104A80008F929F92AF92BF92CF92DF92EF92FF925E
:104A9000CF93DF93EC01688179818A819B816115D5
:104AA00071058105910521F464E279ED8BE597E0CC
:104AB0002DE133EF41E050E00E94FA2549015A010F
:104AC0009B01AC01A7EAB1E40E9419266B017C01AD
:104AD000ACEEB4EFA50194010E942726C60ED71EA6
:104AE000E81EF91EF7FE06C081E0C81AD108E108E9
:104AF00080E8F80AC882D982EA82FB82C701B6013F
:104B00009F77DF91CF91FF90EF90DF90CF90BF9094
:104B1000AF909F908F9008958F929F92AF92BF9287
:104B2000CF92DF92EF92FF92609136017091370140
:104B300080913801909139016115710581059105C8
:104B400021F464E279ED8BE597E02DE133EF41E06C
:104B500050E00E94FA2549015A019B01AC01A7EAE5
:104B6000B1E40E9419266B017C01ACEEB4EFA50103
:104B700094010E942726C60ED71EE81EF91EF7FED6
:104B800006C081E0C81AD108E10880E8F80AC0929E
:104B90003601D0923701E0923801F0923901C70115
:104BA000B6019F77FF90EF90DF90CF90BF90AF90CE
:104BB0009F908F9008956093360170933701809392
:104BC0003801909339010895F999FECF92BD81BDC6
:104BD000F89A992780B50895262FF999FECF1FBA24
:104BE00092BD81BD20BD0FB6F894FA9AF99A0FBE16
:104BF00001960895052E97FB1EF400940E9411263D
:104C000057FD07D00E942C2607FC03D04EF40C94CD
:104C1000112650954095309521953F4F4F4F5F4F4E
:104C2000089590958095709561957F4F8F4F9F4F18
:104C300008950E944E26A59F900DB49F900DA49FAD
:104C4000800D911D11240895B7FF0C9419260E9420
:104C50001926821B930B0895A1E21A2EAA1BBB1BD7
:104C6000FD010DC0AA1FBB1FEE1FFF1FA217B30738
:104C7000E407F50720F0A21BB30BE40BF50B661F4E
:104C8000771F881F991F1A9469F760957095809512
:104C900090959B01AC01BD01CF010895A29FB00189
:104CA000B39FC001A39F700D811D1124911DB29F60
:104CB000700D811D1124911D08955058BB27AA27FE
:104CC0000E9475260C941F280E94E62738F00E9447
:104CD000ED2720F039F49F3F19F426F40C94E327D4
:104CE0000EF4E095E7FB0C94DD27E92F0E944428A1
:104CF00058F3BA17620773078407950720F079F411
:104D0000A6F50C9466280EF4E0950B2EBA2FA02D74
:104D10000B01B90190010C01CA01A0011124FF2768
:104D2000591B99F0593F50F4503E68F11A16F04063
:104D3000A22F232F342F4427585FF3CF4695379562
:104D40002795A795F0405395C9F77EF41F16BA0B27
:104D5000620B730B840BBAF09150A1F0FF0FBB1FD5
:104D6000661F771F881FC2F70EC0BA0F621F731F1E
:104D7000841F48F4879577956795B795F7959E3F7B
:104D800008F0B0CF9395880F08F09927EE0F97950C
:104D9000879508950E94B92708F481E008950E943C
:104DA000F627E3950C9430280E94E8260C941F28DF
:104DB0000E94ED2758F00E94E62740F029F45F3F5B
:104DC00029F00C94DD2751110C9467280C94E327EB
:104DD0000E94442868F39923B1F3552391F3951B5E
:104DE000550BBB27AA2762177307840738F09F5F0C
:104DF0005F4F220F331F441FAA1FA9F335D00E2E79
:104E00003AF0E0E832D091505040E695001CCAF7E5
:104E10002BD0FE2F29D0660F771F881FBB1F2617A8
:104E200037074807AB07B0E809F0BB0B802DBF017F
:104E3000FF2793585F4F3AF09E3F510578F00C944E
:104E4000DD270C9467285F3FE4F3983ED4F3869502
:104E500077956795B795F7959F5FC9F7880F911D6F
:104E60009695879597F90895E1E0660F771F881F5B
:104E7000BB1F621773078407BA0720F0621B730B0E
:104E8000840BBA0BEE1F88F7E09508950E944D271A
:104E90006894B1110C94672808950E944C2888F0FA
:104EA0009F5798F0B92F9927B751B0F0E1F0660FEE
:104EB000771F881F991F1AF0BA95C9F714C0B1302F
:104EC00091F00E946628B1E008950C946628672F3F
:104ED000782F8827B85F39F0B93FCCF3869577955E
:104EE0006795B395D9F73EF4909580957095619547
:104EF0007F4F8F4F9F4F0895E89409C097FB3EF472
:104F000090958095709561957F4F8F4F9F4F992316
:104F1000A9F0F92F96E9BB279395F6958795779594
:104F20006795B795F111F8CFFAF4BB0F11F460FF54
:104F30001BC06F5F7F4F8F4F9F4F16C0882311F0AC
:104F400096E911C0772321F09EE8872F762F05C0C0
:104F5000662371F096E8862F70E060E02AF09A955B
:104F6000660F771F881FDAF7880F9695879597F950
:104F70000895990F0008550FAA0BE0E8FEEF1616EA
:104F80001706E807F907C0F012161306E407F5073D
:104F900098F0621B730B840B950B39F40A2661F0B1
:104FA000232B242B252B21F408950A2609F4A14054
:104FB000A6958FEF811D811D089597F99F6780E861
:104FC00070E060E008959FEF80EC089500240A945B
:104FD0001616170618060906089500240A941216D4
:104FE00013061406050608950C94E3270E944C2826
:104FF000D8F3E894E0E0BB279F57F0F02AED3FE0BC
:1050000049EC06C0EE0FBB0F661F771F881F28F004
:10501000B23A62077307840728F0B25A620B730B27
:10502000840BE3959A9572F7803830F49A95BB0F0C
:10503000661F771F881FD2F790480C94EE28092E20
:105040000394000C11F4882352F0BB0F40F4BF2BE3
:1050500011F460FF04C06F5F7F4F8F4F9F4F089523
:10506000EF93E0FF07C0A2EA2AED3FE049EC5FEBD7
:105070000E9475260E941F280F90039401FC9058EF
:10508000ECEAF0E00C94FA2857FD9058440F551FB5
:1050900059F05F3F71F04795880F97FB991F61F0BA
:1050A0009F3F79F087950895121613061406551F31
:1050B000F2CF4695F1DF08C0161617061806991F9D
:1050C000F1CF86957105610508940895E894BB2792
:1050D00066277727CB0197F908950E94B92708F42E
:1050E0008FEF08950E9485280C941F280E94E627C0
:1050F00038F00E94ED2720F0952311F00C94DD2765
:105100000C94E32711240C9467280E94442870F320
:10511000959FC1F3950F50E0551F629FF001729F5C
:10512000BB27F00DB11D639FAA27F00DB11DAA1F6B
:10513000649F6627B00DA11D661F829F2227B00DB8
:10514000A11D621F739FB00DA11D621F839FA00D43
:10515000611D221F749F3327A00D611D231F849F93
:10516000600D211D822F762F6A2F11249F575040EA
:105170009AF0F1F088234AF0EE0FFF1FBB1F661F65
:10518000771F881F91505040A9F79E3F510580F02E
:105190000C94DD270C9467285F3FE4F3983ED4F32A
:1051A000869577956795B795F795E7959F5FC1F7D2
:1051B000FE2B880F911D9695879597F908959F93DB
:1051C0000E94F6270F9007FCEE5F0C9430280E9497
:1051D000B927880B990B08959F3F31F0915020F427
:1051E000879577956795B795880F911D96958795C3
:1051F00097F908959F938F937F936F93FF93EF9306
:105200009B01AC010E947228EF91FF910E940E2930
:105210002F913F914F915F910C947228DF93CF9320
:105220001F930F93FF92EF92DF927B018C016894A2
:1052300006C0DA2EEF010E948528FE01E894A591B0
:105240002591359145915591A6F3EF010E94752660
:10525000FE019701A801DA9469F7DF90EF90FF90C3
:105260000F911F91CF91DF91089597FB072E16F4B0
:10527000009407D077FD09D00E94492907FC05D08A
:105280003EF4909581959F4F0895709561957F4F5D
:105290000895AA1BBB1B51E107C0AA1FBB1FA6177D
:1052A000B70710F0A61BB70B881F991F5A95A9F7CF
:1052B00080959095BC01CD010895EE0FFF1F0590DC
:0A52C000F491E02D0994F894FFCF5B
:1052CA00102000DB0FC93FDB0FC93F0000803F0001
:1052DA0000803F0000003F01400001000000003F45
:1052EA00CDCCCCBDCDCC4C3D0101FFFFFFFF00E191
:1052FA0000000000000001000000030100C18081DD
:10530A0000000000000000480AC709690A5E0AAFE7
:10531A000A6D0A8B0A00000000DE0D7F0B9B109AB3
:10532A00100000000037107F0B9B109A106E616E00
:10533A0000696E66006F7666003E2053746172746F
:10534A0048616F73002020537461727448616F73EF
:10535A00003E2053657474696E677300202053659C
:10536A007474696E6773003E2053636F72657300CD
:10537A00202053636F726573003E2047726176691D
:10538A0074795F50656E64756C756D3A20002020E3
:10539A00477261766974795F50656E64756C756D74
:1053AA003A20004F4E004F4646003E204772617633
:1053BA006974792056616C3A200020204772617620
:1053CA006974792056616C3A20003E204A756D70E6
:1053DA0020466F7263653A200020204A756D70205E
:1053EA00466F7263653A20003E2050656E64756CA4
:1053FA00756D205370643A2000202050656E6475E4
:10540A006C756D205370643A200053636F72653A6D
:10541A0020004C6576656C3A2000594F5520574953
:0E542A004E210047414D45204F56455221006E
:00000001FF
