:100000000C949D080C94C5080C94C5080C94C50864
:100010000C94C5080C94C5080C94C5080C94C5082C
:100020000C94C5080C94C5080C9464160C94D31653
:100030000C94C5080C94C5080C94C5080C94C5080C
:100040000C94C5080C94AF190C94C5080C94C50801
:100050000C94C5080C94C5080C94C5080C9405199B
:100060000C94C5080C94C5080C94C5080C94C508DC
:100070000C94C5080C94C5080C94C5080C94C508CC
:100080000C944F190C94C5080C94C5080C94C50821
:100090000C94C5080C94C5080C94C5080C94C508AC
:1000A0000C94C5080C94C5080C94C50805A84CCD43
:1000B000B2D44EB93836A9020C50B9918688083CA2
:1000C000A6AAAA2ABE000000803F00000000003E51
:1000D0005B4F5B3E3E6B4F6B3E1C3E7C3E1C183CB8
:1000E0007E3C181C577D571C1C5E7F5E1C00183C14
:1000F0001800FFE7C3E7FF0018241800FFE7DBE75D
:10010000FF30483A060E2629792926407F05050743
:10011000407F05253F5A3CE73C5A7F3E1C1C08089F
:100120001C1C3E7F14227F22145F5F005F5F060964
:100130007F017F006689956A606060606094A2FFBD
:10014000A29408047E040810207E201008082A1CAF
:1001500008081C2A08081E101010100C1E0C1E0C7B
:1001600030383E3830060E3E0E060000000000001B
:10017000005F00000007000700147F147F14242A8A
:100180007F2A12231308646236495620500008075C
:100190000300001C2241000041221C002A1C7F1C7D
:1001A0002A08083E0808008070300008080808087F
:1001B000000060600020100804023E5149453E00E6
:1001C000427F400072494949462141494D33181444
:1001D000127F1027454545393C4A49493141211193
:1001E00009073649494936464949291E0000140085
:1001F00000004034000000081422411414141414A8
:10020000004122140802015909063E415D594E7C05
:100210001211127C7F494949363E414141227F41BA
:1002200041413E7F494949417F090909013E414118
:1002300051737F0808087F00417F41002040413F03
:10024000017F081422417F404040407F021C027F12
:100250007F0408107F3E4141413E7F090909063E67
:100260004151215E7F091929462649494932030136
:100270007F01033F4040403F1F2040201F3F403848
:10028000403F631408146303047804036159494D23
:1002900043007F4141410204081020004141417F59
:1002A00004020102044040404040000307080020CF
:1002B000545478407F2844443838444444283844CF
:1002C00044287F385454541800087E090218A4A406
:1002D0009C787F0804047800447D40002040403D25
:1002E000007F1028440000417F40007C047804789F
:1002F0007C080404783844444438FC182424181832
:10030000242418FC7C08040408485454542404048D
:100310003F44243C4040207C1C2040201C3C40307A
:10032000403C44281028444C9090907C4464544CA9
:100330004400083641000000770000004136080004
:1003400002010204023C2623263C1EA1A161123AAE
:100350004040207A385454555921555579412154FB
:10036000547841215554784020545579400C1E5200
:1003700072123955555559395454545939555454A4
:10038000580000457C410002457D420001457C400B
:10039000F0292429F0F0282528F07C545545002028
:1003A00054547C547C0A097F4932494949323248C5
:1003B000484832324A4848303A4141217A3A42402C
:1003C0002078009DA0A07D39444444393D40404000
:1003D0003D3C24FF2424487E4943662B2FFC2F2BD1
:1003E000FF0929F620C0887E090320545479410072
:1003F00000447D413048484A32384040227A007AF1
:100400000A0A727D0D19317D2629292F28262929CE
:10041000292630484D4020380808080808080808F0
:10042000382F10C8ACBA2F102834FA00007B000017
:1004300008142A142222142A14089500220095AACE
:10044000005500AAAA55AA55AA000000FF001010E6
:1004500010FF00141414FF001010FF00FF1010F024
:1004600010F0141414FC001414F700FF0000FF0037
:10047000FF1414F404FC141417101F10101F101F85
:100480001414141F00101010F0000000001F1010B2
:1004900010101F10101010F010000000FF101010AE
:1004A000101010101010FF10000000FF140000FFCB
:1004B00000FF00001F10170000FC04F414141710B4
:1004C000171414F404F40000FF00F71414141414A7
:1004D0001414F700F7141414171410101F101F141D
:1004E0001414F4141010F010F000001F101F00007E
:1004F000001F14000000FC140000F010F01010FFAA
:1005000010FF141414FF141010101F00000000F04E
:1005100010FFFFFFFFFFF0F0F0F0F0FFFFFF000023
:10052000000000FFFF0F0F0F0F0F38444438447CCA
:100530002A2A3E147E02020606027E027E026355CD
:100540004941633844443C04407E201E2006027E1C
:10055000020299A5E7A5991C2A492A1C4C7201722E
:100560004C304A4D4D303048784830BC625A463D98
:100570003E494949007E0101017E2A2A2A2A2A444D
:10058000445F444440514A444040444A5140000082
:10059000FF0103E080FF000008086B6B083612368D
:1005A0002436060F090F060000181800000010106E
:1005B000003040FF0101001F01011E00191D17122C
:1005C000003C3C3C3C000000000000B00000A1707A
:1005D000E150964F26900F1D070C009669004AE4E3
:1005E0004A0048444000806810000F99FB8F9DBD71
:1005F000BBFB77D4D4DF1F1A1AFE7F5D5DFF805AE4
:100600000000A0A4AA0010BA3400FF5953F3FF9BC6
:100610009B9EFFB9B996FF9595D19FF4940FFC2945
:100620005F91FF1838F8FF9294FFFF95D5F7BFB59B
:10063000DDD7F18F81F1F788C8F779C6467909FDD2
:100640009B090196F8008281828050716200775682
:10065000560076763700A2B7730107720600782736
:10066000500073347400775176007F55F70047715E
:100670001000324772007364730015A27500616741
:100680009400009F6060F4F2F6F200000000240085
:1006900027002A002D00300000000000250028005F
:1006A0002B002E0031000408020110408040102071
:1006B0004080408008020401804020100201108028
:1006C0001020404020040404040403040502020234
:1006D00002040302020202060606060606040402DB
:1006E0000202040406011501260137014A015D01D9
:1006F000720188019F01B801D201EE010B022A02AA
:100700004B026E029302BA02E40210033F0370032D
:10071000A403DC03170455049704DD0427057505BD
:10072000C80520067D06E0064907B8072D08A90878
:100730002D09B9094D0AEA0A900B400CFA0CC00DBC
:10074000910E6F0F5A1053115B1272139A14D41535
:1007500020178018F519801B231DDE1EB420A62249
:10076000B524E4263429A72B402E0031EA33003784
:10077000453ABC3D68414C456B49C84D68524F579E
:10078000805C006210111213151617181A1C1D1F19
:1007900021232527292C2E3134373A3E4145494E15
:1007A00052575C62686E757B838B939CA5AFB9C40E
:1007B000D0DCE9F7F0F89C8E8783878E9CF8F000F8
:1007C00000FEFF0303030303070EFCF80000FEFF17
:1007D0000303030303070EFCF80000FFFF00000003
:1007E00000000000FFFF0000FEFF8383838383C7B8
:1007F000EE7C380000F8FC0E07030303070EFCF83C
:1008000000003F7FE0C08080C0E07F3FFFFF01012C
:100810000101010101FFFF0000FFFF0C0C0C0C1C8B
:100820003E77E3C100007FFFC0C0C0C0C0E0703FA2
:100830001F00001F3F70E0C0C0C0E0703F1F0000FD
:100840007FFFC1C1C1C1C1E3773E1C00001F3F70E3
:10085000E0C0C0C0E0703F1F000000000001FFFFCB
:1008600001000000D5F08D14A1C881CFD9F1AF20CF
:1008700000029A903E00A6904000A6904200A690EA
:100880004000A6904300A6904200A6904000A6908B
:100890003E00A6904500A6904300A6904200A69078
:1008A0004000A69132904200A69134903E00A6915D
:1008B00036904500A6913400A69047913700A69146
:1008C0003600A69049913400379047003790490090
:1008D000379132904A00A6913990490053904A00CE
:1008E000539137904900A6913690470053904500A8
:1008F000539134007D8000299049913600A6904A9A
:10090000913200A6904C913900A6904900A6912DF5
:10091000904E00A6904A00A69139904900A69047B3
:10092000008A81001B9139904C00A6904900A69145
:100930002D904A00A6904700A69139904500A690B8
:1009400044008A81001B9139904C00A6904900A672
:10095000912D904E00A6904A00A69139904900A68C
:100960009047008A81001B9139904C00A690490065
:10097000A6912D904A00A6904700A6913990450077
:10098000A69044008A81001B9139904900A69047A7
:1009900000A6913B904A00A6904900A6913D904741
:1009A00000A6904500A6913E904E00A6913D00A65F
:1009B0009044914000A6913E00A69045913D00A62E
:1009C000913B00A6913D001B80001B904700379093
:1009D000450037913E9044003790450037904700DE
:1009E0001B80001B90479140014D913400A690451B
:1009F00000A69139904500A6913400A6913600A634
:100A0000913800A691398000A6913B00A6913D0047
:100A1000A6913B00A6904C913E00A6913D00A69069
:100A200051913B00A6913900A6914000A690470045
:100A3000A69134904900A6904B00A6904C8100A648
:100A4000904E00A6904F00A6904E00A6913B90516C
:100A500000A6904F00A69140904E00A6904C00A694
:100A6000905300A6913600A69047913800A6913A7F
:100A700000A6913B8000A6913D00A6913E00A69164
:100A80003D00A69042914000A6913E00A69047915D
:100A90003D00A6913B00A6914200A6904600A6917B
:100AA00036904700A6904900A69140904A00A69033
:100AB0004C00A6913E904E00A6904C00A691479007
:100AC0004F00A69146904E00A69147904C00A690EC
:100AD0004A00A6913D904C00A6904A00A6914690EF
:100AE0004E00A69144904C00A69146904A00A690D4
:100AF0004900A69147904A00A69145904900A691C9
:100B000043904C00A69142904A00A6914090490023
:100B1000A6913E904700A69140904900A6913E00C4
:100B2000A690469142005390440053914090460055
:100B3000A6913E904700A6913D00A6913E00A6904A
:100B4000499140008A80001B904991420053904A8D
:100B50000053904900A6913600A6904700A6913B0D
:100B600000A6904200A69136904400A6904600A6AA
:100B70009132904700A6904900A6912F904A00A676
:100B8000904900A6904C00A6904A00A6904981008A
:100B9000A6904700A6904F00A6912F00A691310085
:100BA000A6913300A6913400A6913600A691370095
:100BB000A6913600A6913900A6913700A69136007D
:100BC000A6913400A69139008A80001B904000A6AF
:100BD000904200A6904400A6904500A6904700A62B
:100BE000904900A6904700A6904A00A6904900A60A
:100BF000904700A6904500A6904E008A81001B9168
:100C00002D00A6912F00A6913100A6913200A69149
:100C10003400A6913600A6913400A6913700A69123
:100C20003600A6913400A6913200A69138008A8041
:100C3000001B904700A6904C00A69134904A00A655
:100C40009136904900A69138904700A69139904975
:100C500000A69138904700A69136904A00A691349C
:100C6000904900A69132904700A69136904500A683
:100C7000913490440053904500539132904400A623
:100C80009131904000A6912F00A69045913100A689
:100C90009047912D00A69049913900A6904700A653
:100CA0009136904A00A6904900A69131904700A63F
:100CB000904500A69132904E00A6913100A6913445
:100CC00000A69044913200A69045913100A6904430
:100CD000912F00A69045913100A6904A913200A62E
:100CE00090479134014D912800A69045008A8000DC
:100CF0001B9045912D00A6913100A6913200A6903F
:100D000049913400A6904A913600A6904C91370044
:100D1000A69042913900A6913700A69043913B00DE
:100D2000A6913900A6904791370053904500539102
:100D30003690430053904500539137904700A69159
:100D40003600A6904A91390053904900539137904C
:100D5000470053904900539136904A00A6913400C1
:100D6000A6913600A69049913400A6904C91370088
:100D7000A6904A913600A69049913400A6904A91D7
:100D80003200A6904C913900A6904A00A6912D9071
:100D90004900A6904700A690458100A6904300A672
:100DA000904200A6904000A6904300A6904200A664
:100DB000904000A6903E00A6904500A6904300A655
:100DC000904200A6904000A69132904200A6913435
:100DD000903E00A69136904500A6913400A690471B
:100DE000913700A6913600A690499134003790477C
:100DF0000037904900379132904A00A691399049C6
:100E00000053904A00539137904900A6913690477D
:100E10000053904500539134007D800029904A9101
:100E20003600A69132008A80001B904A913900A6B4
:100E3000913600A6903E913B00A6913700A6904ABD
:100E4000913600A69134008A80001B904A913900A7
:100E5000A6913600A6903E913700A6913400A69048
:100E60004A913200A69131008A80001B904A913944
:100E700000A6913600A6903E913B00A6913700A6B1
:100E8000904A913600A69134008A80001B904A91C6
:100E90003900A6913600A6903E913700A691340005
:100EA000A6904A913200A6904C913100A6904E91A6
:100EB0003200A6904C00A69134904F00A6904E00B0
:100EC000A69136904C00A6904A00A6913790530008
:100ED000A6913600A69049913900A6913700A690B8
:100EE0004A913600A6913400A69136001B80001B63
:100EF000904C0037904A0037913790490037904A1C
:100F00000037904C002980000D904C9139014D9193
:100F10002D00A6904A008A80001B904A912F00A6BF
:100F2000912D00A6903E913000A6912F00A69043EF
:100F3000912D00A6912B00A6913200A6903900A613
:100F4000903B00A6903D00A6903E00A6904000A6D3
:100F50009042008A81001B9131904000A6912F9011
:100F60004300A6912D904200A6912B904000A6919F
:100F70002A903E00A6912B904700A6912A00A691A8
:100F80002D00A6903D912B00A6903E912A00A690A0
:100F90003D912800A6903E912A00A69043912B00F7
:100FA000A69040912D01F4903E008A80001B903E57
:100FB000912607D08081F020444156494C2050456D
:100FC0004E44554C554D20574F524C440A20202832
:100FD00048414F532076657273696F6E20312E3011
:100FE00032290A20204C4546543A206D6F76654CD4
:100FF0006566740A2052494748543A206D6F7665F9
:1010000052696768740A2020202020413A206A75BE
:101010006D700A2020202020423A206D61696E4DBB
:10102000656E750A2041202B20423A20457869746C
:101030000A20205072657373204120746F207374EE
:10104000617274005072657373204120746F205276
:10105000657472790047414D45204F5645520059FD
:101060004F552057494E2048414F5321283B004CB3
:101070006576656C3A200050726573732042207467
:101080006F204261636B00484947482053434F52E9
:101090004553005072657373204220746F20426183
:1010A000636B0053455454494E475300536F756E5C
:1010B000643A204F6E00536F756E643A204F666637
:1010C000004D41494E204D454E5500080B0002028F
:1010D00002000009040000010202000005240010C3
:1010E000010524010101042402060524060001076C
:1010F00005810310004009040100020A00000007F6
:1011000005020240000007058302400000040309B5
:101110000412010002EF0201404123368000010168
:1011200002030141726475696E6F204C4C430041AB
:10113000726475626F790000531A11241FBECFEFDD
:10114000DAE0DEBFCDBF12E0A0E0B1E0E2E6F9E513
:1011500002C005900D92A437B107D9F72AE0A4E7A1
:10116000B2E001C01D92A930B207E1F718E0CDE965
:10117000D8E004C02197FE010E94A92CCC39D107E8
:10118000C9F70E94991A0C94AF2C0C94000080911E
:1011900099020895E0EFF5E0A0E0B8E000800EBC11
:1011A0008111012C1197A0FDFDCF0192B9F70DB46B
:1011B0000895E1E0F0E00E94EE08319728F06851D0
:1011C0007C4F8F4F9F4FF9CFAB01FC010E94EE087F
:1011D000641775078E079F07C8F30895A5E9B2E065
:1011E0002FB7F8947D918D919C9166B52FBFA89BE8
:1011F00005C06F3F18F47F5F8F4F9F4F22E0660F4F
:10120000771F881F991F2A95D1F70895FC018091B7
:101210009D05882311F13FB7F89482E08093E9009F
:101220002091F200822F90E01816190614F481E044
:1012300090E0882339F0289844E640939C0540913B
:10124000F1004083222339F02091F200211103C0E4
:101250002BE62093E8003FBF08958FEF9FEF08959E
:101260002FB7F89483E08093E9009091E800892FEC
:10127000807295FF04C09091F20080E4891B2FBF1B
:1012800008958091940581110DC082E080939005AE
:1012900084E080939105109293051092920581E06D
:1012A0008093940580E995E008958F929F92AF9284
:1012B000BF92CF92DF92EF92FF920F931F93CF9343
:1012C000DF936C017B018A0180913E01882309F440
:1012D00058C080919D05882309F453C080918F05E3
:1012E00080FF05C08091E00082608093E000E8010B
:1012F000B12C8AEFA82E93E0892E2AE3922E209714
:1013000011F4BB20B9F10E943009811106C0AA94E2
:10131000AA20B9F10E94D908F2CF8C171D0611F04E
:101320000CF08C2F9FB7F8948092E9002091E80090
:1013300025FD02C09FBFE3CF282F30E0C21BD30B97
:10134000F701815020F041914093F100FACFE20E75
:10135000F31EBB2021F09092E800B12CEBCF8091DE
:10136000E80085FDE7CF9092E800BB24B394209776
:1013700009F3F3CF5D9884E680938E05101611066D
:101380003CF081E090E0F6019383828310E000E07E
:10139000C801DF91CF911F910F91FF90EF90DF90E7
:1013A000CF90BF90AF909F908F900895CF93DF9391
:1013B0001F92CDB7DEB76983DC01ED91FC9102800D
:1013C000F381E02D41E050E0BE016F5F7F4F099552
:1013D0000F90DF91CF91089583E08093E900809191
:1013E000F200882319F08AE38093E80008950E94B0
:1013F000300990E00895CF93DF931F92CDB7DEB709
:10140000FC018485958597FD08C02FEF3FEF358758
:1014100024870F90DF91CF910895CE0101960E940D
:101420000609019719F4898190E0F3CF8FEF9FEFC0
:10143000F0CF0F931F93CF93DF931F92CDB7DEB7FB
:101440008C01FC018485958597FF0BC0CE01019628
:101450000E940609019771F4898190E0F80195874F
:101460008487F801848595850F90DF91CF911F9136
:101470000F9108958FEF9FEFF1CFFC018485958543
:1014800097FD0BC09FB7F89482E08093E9008091AC
:10149000F2009FBF90E0019608959FB7F89482E014
:1014A0008093E9008091F2009FBF90E00895409101
:1014B0008A0550918B052091880530918905421746
:1014C0005307B4F49091E8009570E1F39091E8002F
:1014D00092FD19C08093F10080918A0590918B054F
:1014E00001968F739927892B19F48EEF8093E8006A
:1014F00080918A0590918B05019690938B0580933E
:101500008A0581E0089580E00895DF92EF92FF92CE
:101510000F931F93CF93DF93D82E8A01EB017B01AA
:10152000E40EF51ECE15DF0559F0D7FE12C0FE0100
:1015300084910E94570A21968111F4CF0FEF1FEF7B
:10154000C801DF91CF911F910F91FF90EF90DF9035
:1015500008958881EECF0F931F93CF93DF931F924F
:10156000CDB7DEB782E0898342E450E06BEC70E1F6
:1015700080E80E94850A0E944109DC0112960D91C3
:101580001C910115110589F0D801ED91FC910280A3
:10159000F381E02DBE016F5F7F4FC801099597FD74
:1015A00004C0F80100851185ECCF89810F90DF918F
:1015B000CF911F910F910895615030F02091F1006B
:1015C000FC0120830196F8CF289884E680939C053F
:1015D0000895EF92FF920F931F93CF93DF938C01A7
:1015E0007B01D0E0C0E0F701EC0FFD1F64916623A2
:1015F00061F0D801ED91FC910190F081E02DC801DE
:101600000995892B11F02196EECFCE01DF91CF9174
:101610001F910F91FF90EF900895AF92BF92CF92DC
:10162000DF92EF92FF920F931F93CF93DF936C01A2
:101630007B018B01040F151FEB015E01AE18BF0883
:10164000C017D10759F06991D601ED91FC91019035
:10165000F081E02DC6010995892B79F7C501DF914D
:10166000CF911F910F91FF90EF90DF90CF90BF909F
:10167000AF900895CF92DF92EF92FF921F93CF9396
:10168000DF93E82FF0E0ED5BFE4F1081E62FF0E0F6
:10169000603398F5EC57F84FE491CE2FD0E0F12C61
:1016A000E12C60E074E284EF90E0A7019E010E94CB
:1016B0004629215031094109510991E0211531058F
:1016C00081E0480751056CF060E970ED83E090E03F
:1016D000A7019E010E944629215031094109510963
:1016E00093E0113089F0133039F1DF91CF911F91E0
:1016F000FF90EF90DF90CF900895EE0FFF1FEC5713
:10170000F94FC591D491CBCF809192028111EDCF49
:1017100080918100887F892B80938100309389009C
:1017200020938800109285001092840080916F00B1
:10173000826080936F00D9CF80919100887F892B40
:101740008093910030939900209398001092950017
:1017500010929400D0939102C093900281E0809304
:101760008F0280917100826080937100BECFE82F5C
:10177000F0E0ED5BFE4F8081813019F08330A9F0FD
:1017800008958091920281110FC080916F008D7F2A
:1017900080936F0080918102E0917F02F09180023E
:1017A0009081809589238083089510928F02809183
:1017B0008E028111F9CF80918C02E0918A02F09122
:1017C0008B02EECFCF93DF93D1E0E0919B02F091BB
:1017D0009C02AF014F5F5F4F50939C0240939B026E
:1017E0002491822F807FC22FCF70803821F48C2FDC
:1017F0000E94B70BEACF803919F5E091EE05F09120
:10180000EF0509958D2780938D02E0919B02F09161
:101810009C02CF01019690939C0280939B0264915D
:1018200080917E02C81788F6C13021F480917D0234
:101830008111CBCF67FDC9CF8C2F0E943A0BC5CF4A
:1018400087FD3CC03296F0939C02E0939B02FA0124
:101850004491A0919002B0919102322F242F0E94C6
:101860009A296C507E4F8F4F9F4F28EE33E040E017
:1018700050E00E947829209386023093870240939B
:101880008802509389028091860290918702A091EC
:101890008802B0918902892B8A2B8B2B61F481E01D
:1018A00090E0A0E0B0E08093860290938702A0933E
:1018B0008802B0938902DF91CF910895803E49F468
:1018C00080919D0290919E0290939C0280939B0236
:1018D0007CCF803F09F079CF10929A02ECCF9091A3
:1018E0007E02923009F471C0292F30E0F901ED5BDE
:1018F000FE4F408125583D4FF9018083913031F4EE
:1019000020917B02281302C090937D029F5F9093E9
:101910007E0290E0FC01EB53F94F24918A55994FD8
:10192000FC01849130E0220F331FF901E856F94F92
:1019300065917491F901E657F94FA591B4919C9185
:10194000982B9C93413019F04330D9F00895909131
:101950006400977F90936400109280001092810041
:1019600090918100986090938100909181009160A6
:10197000909381007093800260937F028093810234
:10198000089590916500977F909365001092900064
:101990001092910090919100986090939100909195
:1019A000910091609093910070938B0260938A02F2
:1019B00080938C0280917E02882321F06CE380E08A
:1019C0000E943A0B80E00C94B70B08956F927F92BF
:1019D0008F929F92AF92BF92CF92DF92EF92FF923F
:1019E0000F931F93CF93DF934C017B01C22F102FD6
:1019F00098E0A92EB12C642E669466946694712C9E
:101A0000CA0187709927892B79F5D40117962D91F2
:101A10003C91C7019927B9010E94812C269DF001B4
:101A2000279DF00D369DF00D11248E0F9F1FD401C0
:101A30001596ED91FC91E80FF91F2081111112C04C
:101A4000C095C223C083DF91CF911F910F91FF906A
:101A5000EF90DF90CF90BF90AF909F908F907F904E
:101A60006F900895C22BEECFD0E04770C42ED12CDA
:101A700083E0660C771C8A95E1F79E0101C0220F76
:101A80004A95EAF7012FA301B701C4010E94E60CB1
:101A9000A301485F5F4FC5018C199D0902C0D59510
:101AA000C7958A95E2F7A7CF5F926F927F928F9248
:101AB0009F92AF92BF92CF92DF92EF92FF920F93DD
:101AC0001F93CF93DF93EC016A30F1F48D859E85EF
:101AD0009C878B878C892F853889820F932F911D46
:101AE000988B8F8781E090E0DF91CF911F910F91CC
:101AF000FF90EF90DF90CF90BF90AF909F908F902E
:101B00007F906F905F900895AB84BC84693031F40E
:101B100029E0A20EB11CBC86AB86E4CF3DEFA31634
:101B20003FEFB3060CF45DC08F819885A816B90607
:101B30000CF057C0CF84D8888DEFC8168FEFD80629
:101B40000CF44FC089859A85C816D9060CF049C097
:101B5000603208F46FE780EE860F9FE9960F9A31A6
:101B600018F49FEFC91AD90A8C3011F08B3119F48F
:101B70002FEFC21AD20A869534E0839FC001112448
:101B80009C0126533A4F7901912C812C162F11700C
:101B9000F701E80DF91D549011112DC0352D3F703E
:101BA000532E3501680C791C8C81882361F001E08B
:101BB00089899A89892B09F000E02FE0A601B301F9
:101BC000CE010E94E60C0989252DA601B301CE01A4
:101BD0000E94E60C8FEF881A980A94E08916910407
:101BE000B9F68B8990E004962B853C85820F931F74
:101BF0009C878B8777CF52948FE05822D2CF2D9A33
:101C00000895BC0190E080E0AB01FC010E94EE0869
:101C100041505109E109F10928F068517C4F8F4F7B
:101C20009F4FF6CFAB01FC010E94EE0864177507C9
:101C30008E079F07C8F308958FB18095807F669BBC
:101C400088601C9B8460089581E083BF889513BEE3
:101C500008951092800520E42093C0009093BF0067
:101C60008093D1000895109299023E983F9808956C
:101C70003E9A3F9A81E080939902089580E0E0EFD8
:101C8000F5E081118FEF00248193819381938193FB
:101C90000394D1F710927B0510927A0510927D057E
:101CA00010927C05089590918105982329F49091D4
:101CB0008205982381E009F480E00895CF93C82F2E
:101CC0000E941C0E982F9C2381E09C1380E0CF91F2
:101CD000089580E00C94CA0880389105B8F4603407
:101CE0007105A0F420E191E061FD94E060FD990FA1
:101CF00062FD9295687F269FD0011124A80FA05104
:101D0000BA4F8C9140FF03C0892B8C930895909516
:101D10008923FBCFEF92FF920F931F93CF93DF9313
:101D20007C018B01040F111DEB0177FF02C0D0E095
:101D3000C0E0C8010134110514F080E490E0C81738
:101D4000D9073CF441E0BE01C7010E946C0E219608
:101D5000F0CFDF91CF911F910F91FF90EF900895F9
:101D60002F923F924F925F926F927F928F929F92AB
:101D7000AF92BF92CF92DF92EF92FF920F931F9399
:101D8000CF93DF9300D01F92CDB7DEB76C015B011C
:101D9000242F30E03B832A83440F4F5F621B730B79
:101DA0000E948A0E01E010E08A819B81081B190BBA
:101DB0001C01319421943108220C331C6624639455
:101DC000712CF12CE12C17FD0BC02A813B81215095
:101DD00031093B832A8332E0230E311C020D131D8F
:101DE0008FEFE81AF80A92E0690E711C060D171DB4
:101DF0008A81880F8F5F8983482F25012A813B8143
:101E0000421A530AB201C7018C0D9D1D0E948A0E11
:101E100045018E189F08462DB4018A819B818C0D47
:101E20009D1D0E948A0E4981B201C6018E199F092B
:101E30000E948A0E462DB401C6012A813B81821B75
:101E4000930B0E948A0E8A819B81E816F9060CF496
:101E5000BACF0F900F900F90DF91CF911F910F91FC
:101E6000FF90EF90DF90CF90BF90AF909F908F90BA
:101E70007F906F905F904F903F902F9008952F929A
:101E80003F924F925F926F927F928F929F92AF920A
:101E9000BF92CF92DF92EF92FF920F931F93CF9357
:101EA000DF93EC018B017A016901C61AD70AD7FECC
:101EB00003C0D194C194D10847018C1A9D0A97FEA2
:101EC00003C09194819491088C149D0454F49E2D28
:101ED0008F2D7901292F382F9C2F8D2FE801092F65
:101EE000182FEC16FD0654F4902F812F8901292F0D
:101EF000382F9C2F8D2FE701E92EF82E17012C1A71
:101F00003D0A2901401A510A57FE03C051944194D9
:101F10005108310137FE03C08FEF681A780A7594B3
:101F200067948FEF021713070CF481E0A82E880F37
:101F3000BB08EC16FD06A4F041E0BE01C8018C14FC
:101F40009D0414F0B801CE010E946C0E641875084F
:101F500077FE04C00A0D1B1D620C731C2196E9CF8D
:101F6000DF91CF911F910F91FF90EF90DF90CF9075
:101F7000BF90AF909F908F907F906F905F904F90A9
:101F80003F902F9008958F929F92AF92BF92CF92E1
:101F9000DF92EF92FF920F931F93CF93DF936D30F9
:101FA00089F0C0907A05D0907B056A30D1F4109208
:101FB0007D0510927C0588E0C80ED11CD0927B056F
:101FC000C0927A0581E090E0DF91CF911F910F914F
:101FD000FF90EF90DF90CF90BF90AF909F908F9049
:101FE000089500917C0510917D05E5E06E9FE0016C
:101FF0001124C653DF4F4801F12CF5E0E12CFF1608
:1020000029F0CE010196FE01E490EC01B12CA12C47
:102010004E2D4170B6016A0D7B1DC4010E946C0EED
:10202000E694FFEFAF1ABF0A88E0A816B10481F763
:10203000F394EFEF8E1A9E0AF6E0FF12DECF0A5FEE
:102040001F4F10937D0500937C05BCCF089590E051
:1020500080E00895FB0101900020E9F73197AF017E
:10206000461B570BDC01ED91FC910280F381E02DC2
:1020700009948F929F92AF92BF92EF92FF920F932B
:102080001F93CF93DF93CDB7DEB7A1970FB6F89428
:10209000DEBF0FBECDBF7C01FA01CB0119A22230F9
:1020A00008F42AE08E010F5D1F4F822E912CB12C77
:1020B000A12CBF01A50194010E947829F901CA0150
:1020C0006A300CF5605DD8016E938D01232B242BB3
:1020D000252B79F790E080E0109721F0BD01C70132
:1020E0000E942A10A1960FB6F894DEBF0FBECDBF96
:1020F000DF91CF911F910F91FF90EF90BF90AF9024
:102100009F908F900895695CDECFCF92DF92EF921F
:10211000FF920F931F93CF93DF936B01770FEE081E
:10212000FF08F7FE1FC0EC01E881F9810190F08102
:10213000E02D6DE209958C0144275527BA014C1911
:102140005D096E097F092AE0CE010E943910800FD7
:10215000911FDF91CF911F910F91FF90EF90DF9032
:10216000CF9008952AE0B701A601DF91CF911F918A
:102170000F91FF90EF90DF90CF900C9439104F9219
:102180005F926F927F928F929F92AF92BF92CF9207
:10219000DF92EF92FF920F931F93CF936B017C011D
:1021A000742EAC019B010E94332C66E771E0811113
:1021B00026C046015701E894B7F82FEF3FEF4FE7ED
:1021C0005FE7C501B4010E94332C81110CC02FEFD1
:1021D0003FEF4FE75FE7C501B4010E94162A6AE7A7
:1021E00071E0181664F02FEF3FEF4FE75FE4C7018F
:1021F000B6010E94B92B1816ACF46EE771E080EFBF
:1022000099E0CF911F910F91FF90EF90DF90CF90C9
:10221000BF90AF909F908F907F906F905F904F9006
:102220000C942A102FEF3FEF4FE75FECC701B60188
:102230000E94162A87FDE1CF20E030E0A901C70106
:10224000B6010E94162A10E000E087FF0AC06DE286
:1022500080EF99E00E94540D8C01F7FAF094F7F8A2
:10226000F094C0E060E070E080E09FE37C1641F015
:1022700020E030E040E251E40E94202ACF5FF6CF18
:10228000A70196010E94AA292B013C010E94992ACC
:102290004B015C012AE0BC01A40180EF99E00E949F
:1022A00039107C01E00EF11ECC23D1F1C501B4013F
:1022B0000E94C82A9B01AC01C301B2010E94A92956
:1022C0004B015C016EE280EF99E00E94540DE80E34
:1022D000F91EC15028F120E030E040E251E4C50190
:1022E000B4010E94BE2B2B013C010E94992A4B0194
:1022F000B12CA12C2AE0B501A40180EF99E00E9445
:102300003910E80EF91EC501B4010E94C82A9B01CC
:10231000AC01C301B2010E94A9294B015C01D9CFD4
:10232000C701CF911F910F91FF90EF90DF90CF9059
:10233000BF90AF909F908F907F906F905F904F90E5
:1023400008950C942A104F925F926F927F928F9211
:102350009F92AF92BF92CF92DF92EF92FF92CF9374
:10236000DF9300D000D01F92CDB7DEB70E94D828EF
:102370006B017C010E94D82869837A838B839C83BC
:10238000E091EE05F091EF050995882309F470C0FE
:1023900080917E02823008F46BC0C701B6012CE642
:1023A00037E040E050E00E9446294B015C0124E602
:1023B000820E911CA11CB11C81E08093920280913D
:1023C0007A0280938E02240135016624772460E02E
:1023D00072E18AE790E0A30192010E944629690117
:1023E0007A0181E0C81AD108E108F108C114D104CA
:1023F00091E0E906F1040CF04FC021E02D836981E2
:102400007A818B819C8120E530E040E050E00E94A1
:1024100046299B01AC012C5E3F4F4F4F5F4F80918F
:102420008100887F9D81892B809381002115310552
:102430004105510509F442C0D401AA0FBB1F0E94F7
:10244000652928EE33E040E050E00E947829D092E0
:102450008900C092880020938202309383024093C7
:1024600084025093850280916F00826080936F0098
:102470000F900F900F900F900F90DF91CF91FF90E2
:10248000EF90DF90CF90BF90AF909F908F907F9014
:102490006F905F904F90089568E478EE81E090E04F
:1024A000A30192010E94462969017A0181E0C81ABC
:1024B000D108E108F10893E09D83A1CF2FEF3FEF12
:1024C000A901C5CF0E94D82820E830E040E050E0C4
:1024D0000E9446297093B7026093B6020E94D828E2
:1024E00020E430E040E050E00E9446297093B902B9
:1024F0006093B80281E08093BA0208958BED9FE06B
:10250000A9ECBFE380931B0190931C01A0931D01D4
:10251000B0931E018093170190931801A0931901A5
:10252000B0931A011092AF021092B0021092B10251
:102530001092B2021092AB021092AC021092AD0255
:102540001092AE0280E490E09093220180932101EA
:1025500080E290E09093200180931F011092890304
:1025600010928A0310928B0310928C030E946212C5
:102570001092B5021092B40281E090E09093240191
:1025800080932301109283050C943E0E4F925F922C
:102590006F927F928F929F92AF92BF92CF92DF9273
:1025A000EF92FF92CF93DF93CDB7DEB7C054D1093E
:1025B0000FB6F894DEBF0FBECDBF6091850370915A
:1025C0008603809187039091880320910001222344
:1025D00009F43CC320E030E040E05FE30E94AA2918
:1025E0006093850370938603809387039093880399
:1025F00020E030E040E052E40E94B92B87FF1092C7
:10260000000180910A0190910B01A0910C01B09101
:102610000D018D879E87AF87B88BC0901201D09037
:102620001301E0901401F090150140900E015090BC
:102630000F016090100170901101A7019601C70170
:10264000B6010E94AA29A30192010E94AA2969A3A6
:102650007AA38BA39CA380911B0190911C01A09154
:102660001D01B0911E0189839A83AB83BC83BC0199
:10267000CD010E942B2C6DAB7EAB8FAB98AF8091C0
:10268000170190911801A0911901B0911A01898741
:102690009A87AB87BC879C01AD01CD01B9010E942F
:1026A000AA294B015C01AC019B0169817A818B8174
:1026B0009C810E94A9290E942B2C69AF7AAF8BAF15
:1026C0009CAF29853A854B855C8569817A818B81B0
:1026D0009C810E94A9296D837E838F8398870E94A5
:1026E0002B2C698B7A8B8B8B9C8B8091AB0290917E
:1026F000AC02A091AD02B091AE028D8B9E8BAF8BE0
:10270000B88F9C01AD01CD01B9010E94BE2B20E024
:1027100030E040E052E40E94BE2B6DA37EA38FA365
:1027200098A78091AF029091B002A091B102B091B0
:10273000B202898F9A8FAB8FBC8F9C01AD01CD0106
:10274000B9010E94BE2B20E030E040E052E40E943C
:10275000BE2B69A77AA78BA79CA76D817E818F81ED
:1027600098850E941B2A6D8F7E8F8F8F98A3298159
:102770003A814B815C81CA01B9010E94AA29A50155
:1027800094010E94A9290E941B2A9B01AC01C3014C
:10279000B2010E94BE2B9B01AC0169A17AA18BA161
:1027A0009CA10E94A92920E030E040E052E40E9470
:1027B000BE2B6DA77EA78FA798ABA3019201C7017F
:1027C000B6010E94AA2969AB7AAB8BAB9CAB69813D
:1027D0007A818B819C810E941B2A21966CAF7DAFF0
:1027E0008EAF9FAF21978091250190912601A091F6
:1027F0002701B09128018D839E83AF83B8876D85B3
:102800007E858F859889905829A13AA14BA15CA11A
:102810000E94BE2B2DA93EA94FA958AD0E94BE2BE8
:102820006B017C01C301B20190582D853E854F8517
:1028300058890E94BE2B29AD3AAD4BAD5CAD0E94CC
:10284000BE2B9B01AC01C701B6010E94AA296B01F6
:102850007C0120E030E040E050EC69897A898B8986
:102860009C890E94BE2BA30192010E94BE2B4B01AA
:102870005C012D8D3E8D4F8D58A169A57AA58BA544
:102880009CA50E94BE2B2DA13EA14FA158A50E9440
:10289000AA299B01AC01C501B4010E94BE2B9B017A
:1028A000AC01C701B6010E94AA292DA53EA54FA5DE
:1028B00058A90E94202A2D813E814F8158850E946F
:1028C000BE2B298D3A8D4B8D5C8D0E94AA296B0100
:1028D0007C01C092AF02D092B002E092B102F092BD
:1028E000B20229A93AA94BA95CA96D857E858F857D
:1028F00098890E94BE2B21962CAD3DAD4EAD5FADAB
:1029000021970E94BE2B4B015C0129A93AA94BA932
:102910005CA969A57AA58BA59CA50E94BE2B9B01ED
:10292000AC01C501B4010E94AA294B015C012DA193
:102930003EA14FA158A5C301B2010E94BE2B2D8D0F
:102940003E8D4F8D58A10E94BE2B9B01AC01C5014D
:10295000B4010E94AA294B015C0129893A894B895B
:102960005C89CA01B9010E94AA299B01AC01C50179
:10297000B4010E94BE2B2DA53EA54FA558A90E94CB
:10298000202A2D813E814F8158850E94BE2B2D89A2
:102990003E894F89588D0E94AA292B013C01409203
:1029A000AB025092AC026092AD027092AE02A701EF
:1029B00096016D817E818F8198850E94BE2B298131
:1029C0003A814B815C810E94AA294B015C01809273
:1029D0001B0190921C01A0921D01B0921E01A30147
:1029E00092016D817E818F8198850E94BE2B298501
:1029F0003A854B855C850E94AA296B017C01C092B7
:102A00001701D0921801E0921901F0921A01C50144
:102A1000B4010E942B2C2B013C01C501B4010E9482
:102A20001B2A69837A838B839C83C701B6010E942A
:102A30002B2C4B015C01C701B6010E941B2A698740
:102A40007A878B879C8780913101882309F4E8C0BD
:102A50008091BA02882309F432C120E030E040E0DE
:102A600052E4C301B2010E94BE2B20E030E040E8F6
:102A700052E40E94AA290E94922A072E000C880B79
:102A8000990B0E94CA2A6B017C0120E030E040E0F3
:102A900052E4C501B4010E94BE2B9B01AC01C701E9
:102AA000B6010E94AA290E94922A7B012091B602B7
:102AB0003091B702621B730B6E5F7F4F65307105FB
:102AC00008F0FDC020E030E040E052E469817A8106
:102AD0008B819C810E94BE2B0E94922A072E000CA3
:102AE000880B990B0E94CA2A4B015C0120E030E060
:102AF00040E052E469857A858B859C850E94BE2BD7
:102B00009B01AC01C501B4010E94AA290E94922A2E
:102B10006B012091B8023091B902621B730B6E5F9A
:102B20007F4F6530710508F0CAC08091B3028111F2
:102B30000FC086E490E00E94290E8AE090E00E9497
:102B4000010E109280051092C00081E08093B302C4
:102B50008091B6029091B702E816F9060CF091C088
:102B60000E94D8282AE030E040E050E00E94462948
:102B700065507109810991090E94CA2A2AE037ED3E
:102B800043E25CE30E94BE2B2091AB023091AC0289
:102B90004091AD025091AE020E94AA292DEC3CEC6E
:102BA0004CE45DE30E94A9296093AB027093AC02F0
:102BB0008093AD029093AE028091B8029091B902D9
:102BC000C816D9060CF06CC00E94D8282AE030E064
:102BD00040E050E00E944629655071098109910941
:102BE0000E94CA2A2AE037ED43E25CE30E94BE2B32
:102BF0002091AF023091B0024091B1025091B202E7
:102C00000E94AA292DEC3CEC4CE45DE30E94A9292A
:102C10006093AF027093B0028093B1029093B202BE
:102C2000C05CDF4F0FB6F894DEBF0FBECDBFDF91A3
:102C3000CF91FF90EF90DF90CF90BF90AF909F909B
:102C40008F907F906F905F904F90089520E030E0DC
:102C500040E05FE30E94A929609385037093860397
:102C6000809387039093880320E030E040E052ECAB
:102C70000E94162A18160CF4C4CC81E0809300013F
:102C8000C0CC2DEC3CEC4CE45DE36091AB02709168
:102C9000AC028091AD029091AE020E94AA2984CF2D
:102CA0002DEC3CEC4CE45DE36091AF027091B0021E
:102CB0008091B1029091B2020E94AA29A9CF1092EC
:102CC000B302AECF0C9430291F920F920FB60F9221
:102CD00011248F939F938091E1009091E100937F65
:102CE0009093E10083FF0FC01092E90091E0909370
:102CF000EB001092EC0092E39093ED0010929D0592
:102D000098E09093F00082FF22C093E09093E90056
:102D10009091F200992319F09AE39093E800909132
:102D20008E05992341F090918E05915090938E05D8
:102D3000911101C05D9A90919C05992341F0909169
:102D40009C05915090939C05911101C0289A84FF95
:102D500018C08091E2008E7E81608093E2008091B5
:102D6000E1008F7E8093E10080918F058E7E8061EF
:102D700080938F059F918F910F900FBE0F901F90A2
:102D8000189580FFF7CF8091E2008E7E806180935E
:102D9000E2008091E1008E7E8093E10080918F05BA
:102DA0008E7E8160E5CF1F920F920FB60F92112495
:102DB000CF92DF92EF92FF920F931F932F933F9347
:102DC0004F935F936F937F938F939F93AF93BF9333
:102DD000EF93FF93CF93DF93CDB7DEB76C97DEBF52
:102DE000CDBF1092E9008091E80083FF25C068E024
:102DF000CE0145960E94DC0A82EF8093E8008D891F
:102E000087FF39C09091E80090FFFCCF982F907613
:102E100009F034C19E894F89588D2F89F88C911102
:102E200031C0803861F580918D058093F10010925A
:102E3000F1008EEF8093E8006C960FB6F894DEBF39
:102E40000FBECDBFDF91CF91FF91EF91BF91AF91B9
:102E50009F918F917F916F915F914F913F912F91B2
:102E60001F910F91FF90EF90DF90CF900F900FBECA
:102E70000F901F9018959EEF9093E800C7CF109287
:102E8000F100D5CF913059F48111D3CF41305105A4
:102E900081F680918D058D7F80938D05CACF93300B
:102EA00049F48111C6CF4130510519F680918D0545
:102EB0008260F2CF953041F48091E80080FFFCCF32
:102EC00020682093E300B5CF963009F0A9C00B8DA0
:102ED0001C8D22E01092E90010928B0510928A0559
:102EE000F2122EC010928905109288050E94AB0A3A
:102EF0001F8299E09983FA8291E09E8390EA9887F5
:102F00009AEF998720918A0530918B05275F3F4F73
:102F10003C832B838D831092E90010928B051092D5
:102F20008A05109389050093880549E050E0BE01A9
:102F30006F5F7F4F80E00E94850A0E94AB0A79CFC5
:102F400010938905009388050E944109DC011296BF
:102F50000D911C910115110509F451C1D801ED9194
:102F6000FC910480F581E02DBE016B5E7F4FC801AE
:102F70000995009709F03EC1F80100851185EACF57
:102F8000F3E0FF120EC08F89882309F440C082301D
:102F900061F440E867E08FE291E10E94201A81111C
:102FA00048CF81E28093EB0047CF813029F440E89D
:102FB0006BE083E291E1F1CF833099F70E94410900
:102FC000DC011296ED90FC908E010F5F1F4F68019F
:102FD000E114F10479F0D701ED91FC910680F781BD
:102FE000E02DB801C7010995080F111DF701E08414
:102FF000F184EECFD8011C92F60101900020E9F790
:103000003197BF016C197D0940E0C601C6CF6DE064
:1030100071E1FB01449150E080E80E94850A09CFEC
:10302000973009F4BECF983021F481E08093F1000D
:1030300000CF993009F0FDCE837009F0B2CFE6E4FD
:10304000F1E081E031E096E32191222371F0809359
:10305000E9003093EB00DF0111972C912093EC00F5
:103060009093ED008F5F873079F78EE78093EA00C9
:103070001092EA008F8980939D05DBCE8B8D9C8D0D
:103080001092E90010928B0510928A0590938905A1
:1030900080938805898D811192C08E899D89913A8E
:1030A00049F4813209F07DCF47E050E067E371E0F9
:1030B00080E0B3CF913209F074CF833269F48F8905
:1030C000988DB0E0A0E08093330190933401A093F9
:1030D0003501B0933601ADCE803269F48091E800BD
:1030E00082FFFCCF67E087E391E00E94DC0A8BEF70
:1030F0008093E8009ECE823209F09BCE8F89809328
:103100003E01EEEFFFE7859194918B3F9C4D51F18D
:10311000E0E0F8E08091370190913801A091390109
:10312000B0913A01803B9440A105B105F1F4809142
:103130003E0180FD1AC0EE3F8AE0F80789F587E777
:1031400097E7918380838091600080938C0588E16C
:103150009BE00FB6F894A895809360000FBE909303
:10316000600067CEEEEFFAE0D5CF8081918187379E
:10317000974709F05ECEA8958091600088618093A2
:10318000600080918C0580936000EE3F2AE0F2079A
:1031900089F08091FE0A9091FF0A9183808349CE45
:1031A000808191818737980751F29093FF0A80932D
:1031B000FE0AC5CF1092FF0A1092FE0A3ACE0E9474
:1031C0004109DC0112960D911C910115110509F4BC
:1031D000E8CED801ED91FC910190F081E02DBE0187
:1031E0006B5E7F4FC8010995811123CEF8010085E0
:1031F0001185EBCF181619060CF41BCED2CEF1E0D8
:10320000FF12BECE61E171E104CF0F920FB68F9332
:103210009F93EF93FF93809194028D5F8D3708F019
:103220008D5780939402EDE8F3E080818E4F808388
:1032300091819F4F918382818F4F828383818F4FB2
:103240008383E5E9F2E080818F5F808381818F4F06
:10325000818382818F4F828383818F4F83838FB15C
:103260008F6066991C9B88278F3681F4809193022A
:10327000981B963068F0E0E0F8E087E78083818370
:1032800088E180936000F0936000FFCF90939302F9
:10329000FF91EF919F918F910FBE0F9018951F9204
:1032A0000F920FB60F9211242F933F934F935F937A
:1032B0006F937F938F939F93AF93BF93EF93FF93FE
:1032C00080918F02882389F080918E0281110DC038
:1032D00080918D02811109C090918C02E0918A0247
:1032E000F0918B0280818927808380919A028823C4
:1032F00029F18091860290918702A0918802B09175
:103300008902892B8A2B8B2BC9F0809186029091A0
:103310008702A0918802B09189020197A109B109A1
:103320008093860290938702A0938802B0938902CB
:10333000892B8A2B8B2B11F40E94E20BFF91EF91CA
:10334000BF91AF919F918F917F916F915F914F91BD
:103350003F912F910F900FBE0F901F9018951F92C5
:103360000F920FB60F9211248F939F93AF93BF9339
:10337000EF93FF9380919202882309F454C08091C7
:10338000820290918302A0918402B0918502892BE0
:103390008A2B8B2BA1F190918102E0917F02F09119
:1033A00080028081892780838091820290918302AC
:1033B000A0918402B0918502181619061A061B0600
:1033C0009CF48091820290918302A0918402B0913A
:1033D00085020197A109B10980938202909383022B
:1033E000A0938402B0938502FF91EF91BF91AF91BA
:1033F0009F918F910F900FBE0F901F901895109274
:103400008E021092920280916F008D7F80936F00E8
:1034100080918102E0917F02F091800290818095FD
:1034200089238083E1CF80918D028111DDCF90913E
:103430008102E0917F02F091800280818927F1CFA3
:10344000EF92FF920F931F93CF93DF93F82E192FD4
:10345000E62E042F81E0860F880F0E94570A83E032
:103460000E94570ACF2DD12FEC0EFD2EF11CCE1548
:10347000DF05B9F007FF13C0FE0184910E94570ACF
:10348000182F80E00E94570A812321968111EFCFE7
:10349000DF91CF911F910F91FF90EF900895888158
:1034A000EDCF81E0F5CFEEE9F5E01382128288EEF0
:1034B00093E0A0E0B0E084839583A683B78380E5A2
:1034C00091E0918380838FEF9FEF95878487E5E07C
:1034D000FAE0138212828EE691E091838083E0EF1E
:1034E000F9E01382128282E691E09183808380EF7B
:1034F00095E09683858380E890E09087878380E4D9
:1035000090E09287818785E0848B81E0838B1686AB
:103510001586108A17861486138681E090E0928BB8
:10352000818B148287EC98E09093EF058093EE05F1
:103530000895CDB7DEB7E497DEBFCDBF789483E0C2
:1035400084BD83E085BD81E080936E00E1E8F0E01A
:1035500083E08083E0E881E08083E1E983E08083A9
:10356000E0E981E08083E1EC87E08083E3EC81E0C7
:103570008083E0EC82E08083E2EC81E08083EAE714
:1035800087E080838068808310929D0510928D056E
:1035900010928F058091D70081608093D70080EAD8
:1035A0008093D80089B5806189BD89B5826089BD65
:1035B00009B400FEFDCF0E94D9088091D8008F7C0D
:1035C00080618093D8008091E000807F8093E0004C
:1035D0008091E1008E7E8093E1008DE08093E20097
:1035E000559A209A81EC80937C0085B1806F85B9D3
:1035F00084B1877E84B984B1876E84B95E9A5F98FE
:103600008AB1806D8AB9769A6E9881B3806F81BBDA
:10361000899880B38D7080BB80E58CBD81E08DBDC5
:1036200085E090E00E94010E5F9A85E090E00E94A4
:10363000010E5E985C98E4E6F8E081E798E024915A
:103640002EBD00000DB407FEFDCF31968E179F07EB
:10365000B1F75C9A81E88093640080916500816095
:10366000809365000E94690E80E80E945E0E8823A8
:1036700071F05C9885EA8EBD00000DB407FEFDCFA9
:103680005C9A2E982F982D980E94240EFDCF84E0EE
:103690000E945E0E882309F448C02D9884E80E9499
:1036A0005E0E8823E1F00E94FF0D88EC90E00E94FE
:1036B000010E2F9882E090E00E9430298F3F29F080
:1036C0006FEF82E090E00E94382984EF91E00E9441
:1036D000010E2F9A84E80E945E0E8111FBCF84E1D7
:1036E0000E945E0E8823E1F00E94FF0D88EC90E0BE
:1036F0000E94010E2E9882E090E00E9430298823DB
:1037000029F060E082E090E00E94382984EF91E0A7
:103710000E94010E2E9A84E10E945E0E8111FBCF61
:1037200088EC90E00E94010EB2CF0E94FF0D82E073
:1037300090E00E9462168823D9F10E94380E81E041
:1037400090E00E946216282F2470922E81FF13C0F1
:1037500021112E9861EF462E55245A9408E010E06E
:1037600078E5872E80E40E945E0E882321F12E9A50
:103770002F9A0E94FF0D82E390E00E94010E0E94AA
:103780001C0E8111F8CF80E1809301010E943E0E52
:1037900067EB7FE085E09AE00E94E90A0E94690EEB
:1037A00088E00E945E0E8111D1C00E94240EF8CFE5
:1037B0000E94330EC4CF992031F034E043165104F7
:1037C00011F42E9A2F9881E00E94CA08920157FEA8
:1037D00004C0222733272419350927703327C20153
:1037E00057FC079653E0959587955A95E1F757FE54
:1037F00005C00197A801421B530B9A01BC017695A5
:10380000762F66277795679560517A4FF12CE12CDA
:103810003801621A730A8E3F5FEF950709F43DC0C5
:103820008E9CD0018F9CB00D112450E040E0AC5430
:10383000B84F5B01E0E8AE0EB11C8F3F980791F0E6
:10384000FD01E40FF51FE4916B01C40ED51EF0E0FD
:103850001F01022E01C0220C0A94EAF7F6013488F7
:103860002328248A2115310599F0FD01E40FF51F65
:10387000E4916501C40ED51EF0E01F01062C02C0C4
:10388000359427940A94E2F7F60134882328248A91
:103890004F5F5F4F4835510581F6019660587F4F65
:1038A000EA94EF2809F04EC00E94690E8FE090E084
:1038B0000E94010E2FEF421A520A39E143165104B9
:1038C00009F050CF992011F02F9A2D9880E991E0BE
:1038D0000E94010E0E94FF0D81E090E00E9462169E
:1038E00080FF49CF8AE090E00E9462169FEF980F18
:1038F0009E3F08F040CF22E330E030937D052093D7
:103900007C0528E330E030937B0520937A054BE07B
:1039100050E05A834983682F85E09AE00E94C30FE4
:1039200089819A810E946216A981BA811196BA830F
:10393000A983519781F70E94690E88EE93E00E9457
:10394000010E19CFEE24E394F12C65CF0E94621290
:1039500085E00E946F0C8DE00E946F0C80919902AF
:10396000811136C087EA5C988EBD00000DB407FE59
:10397000FDCF5C9A80919A0281110FC081E798E097
:1039800090939E0280939D0290939C0280939B0251
:103990000E94E20B81E080939A02AAE02A2E312C49
:1039A0002FB7F89480918D0390918E03A0918F038F
:1039B000B09190032FBF2091A102222359F01092C1
:1039C000A10280E090E0892B59F30E940000E5CF2E
:1039D00086EAC9CF2091A202E82FE21B2E2F309158
:1039E0000101E31730F42F5F231758F70E94240ECC
:1039F000E8CF21E02093A1028093A20280919F0250
:103A00009091A00201969093A00280939F028091D2
:103A10008205809381050E941C0E809382050E947E
:103A20003E0E80918005882339F081508093800577
:103A3000811102C01092C00080913201882309F4E4
:103A4000CDC020E230E030937D0520937C0545E039
:103A500050E050937B0540937A0561EC70E185E07E
:103A60009AE00E94E90A84E190E090937D058093BA
:103A70007C0590937B0580937A0580917E059091DB
:103A80007F0562E871E0892B11F06EE871E085E056
:103A90009AE00E94A11184E190E090937D058093CB
:103AA0007C058EE190E090937B0580937A05809170
:103AB0007E0590917F056AE971E0019711F069EA4E
:103AC00071E085E09AE00E94A11184E190E090937A
:103AD0007D0580937C0588E290E090937B05809340
:103AE0007A0580917E0590917F0568EB71E00297E1
:103AF00011F065EC71E085E09AE00E94A11180E888
:103B00000E94530E882369F080917E0590917F0575
:103B1000029663E070E00E94812C90937F05809371
:103B20007E0580E10E94530E882369F080917E0516
:103B300090917F05019663E070E00E94812C909344
:103B40007F0580937E0588E00E94530E882341F014
:103B500080917E0590917F05009781F5109232014A
:103B600084E00E94530E882351F08091310191E04E
:103B7000892780933101882371F10E94380E8BE4EC
:103B800090E09093FE098093FD099093FC09809347
:103B9000FB0987E390E09093000A8093FF098091EE
:103BA00031016CEA70E1811102C066EB70E180EFD7
:103BB00099E00E94E90A0E94690E03CF81309105C5
:103BC00021F481E080938705C9CF029749F681E00F
:103BD00080938605C3CF0E94330ED1CF8091870595
:103BE000882309F419C2A8E2B0E0B0937D05A09340
:103BF0007C0510927B0510927A0563EA70E185E0FE
:103C00009AE00E94E90A3092FE092092FD09309262
:103C1000FC092092FB093092000A2092FF09809152
:103C200078059091790562ED71E0892B11F067EECE
:103C300071E080EF99E00E94A111809177056CEF0F
:103C400071E0811102C06FEF71E080EF99E00E9496
:103C5000A1113092FE092092FD093092FC092092B8
:103C6000FB0984E190E09093000A8093FF09809122
:103C700078059091790563E072E0019711F063E1B6
:103C800072E080EF99E00E94A11160912D01709186
:103C90002E0180912F019091300142E00E94BF10CF
:103CA0003092FE092092FD093092FC092092FB0916
:103CB0008EE190E09093000A8093FF09809178054F
:103CC0009091790563E272E0029711F062E372E08D
:103CD00080EF99E00E94A1116091290170912A0161
:103CE00080912B0190912C0142E00E94BF103092F4
:103CF000FE092092FD093092FC092092FB09E8E2BE
:103D0000F0E0F093000AE093FF098091780590912C
:103D1000790561E472E0039711F062E572E080EFEB
:103D200099E00E94A1116091250170912601809176
:103D300027019091280142E00E94BF1084E190E0A9
:103D400090937D0580937C0587E390E090937B05BD
:103D500080937A0563E970E185E09AE00E94E90AC0
:103D600080E80E94530E882369F080917805909135
:103D70007905039664E070E00E94812C90937905A8
:103D80008093780580E10E94530E882369F080912A
:103D9000780590917905019664E070E00E94812C8D
:103DA00090937905809378058091780590917905B5
:103DB0008130910509F482C07CF4892B09F46CC030
:103DC00084E00E94530E882309F4F5CE10928705F3
:103DD00081E080933201EFCE8230910509F4C8C0B2
:103DE000039771F780E20E94530E882341F12AE085
:103DF00037ED43E25CE360912501709126018091EB
:103E00002701909128010E94A9296B017C012AE0D9
:103E100037ED43E25CE30E94162A87FF08C06AE0A0
:103E2000C62E67EDD62E63E2E62E6CE3F62EC09228
:103E30002501D0922601E0922701F092280180E42A
:103E40000E94530E882309F4BBCF2AE037ED43E2EA
:103E50005CE360912501709126018091270190918A
:103E600028010E94AA296B017C0120E030E040E893
:103E70005FE30E94B92B181634F4C12CD12C50E802
:103E8000E52E5FE3F52EC0922501D0922601E09247
:103E90002701F092280194CF80E20E94530E8111F5
:103EA00006C080E40E94530E882309F489CF8091D4
:103EB000770591E089278093770582CF80E20E9481
:103EC000530E882341F12AE037ED43E25CE3609131
:103ED0002D0170912E0180912F01909130010E944F
:103EE000A9296B017C012AE037ED43E25CE30E94E3
:103EF000162A87FF08C0FAE0CF2EF7EDDF2EF3E297
:103F0000EF2EFCE3FF2EC0922D01D0922E01E09205
:103F10002F01F092300180E40E94530E882309F4AF
:103F20004FCF2AE037ED43E25CE360912D017091C1
:103F30002E0180912F01909130010E94AA296B01DE
:103F40007C0120E030E040E85FE30E94B92B1816C6
:103F500034F4C12CD12CE0E8EE2EEFE3FE2EC0921B
:103F60002D01D0922E01E0922F01F092300128CF46
:103F700080E20E94530E882331F12DEC3CEC4CEC96
:103F80005DE36091290170912A0180912B0190914C
:103F90002C010E94A9296B017C0120E030E040EA5D
:103FA00050EC0E94162A87FF06C0C12CD12C70EA63
:103FB000E72E70ECF72EC0922901D0922A01E092F0
:103FC0002B01F0922C0180E40E94530E882309F407
:103FD000F7CE2DEC3CEC4CEC5DE360912901709147
:103FE0002A0180912B0190912C010E94AA296B013A
:103FF0007C0120E030E0A9010E94B92B18161CF4C6
:10400000C12CD12C7601C0922901D0922A01E092D4
:104010002B01F0922C01D4CE80918605882359F192
:1040200020E230E030937D0520937C0530927B05C3
:1040300020927A0567E870E185E09AE00E94E90A3B
:1040400084E190E090937D0580937C058EE190E083
:1040500090937B0580937A0567E770E185E09AE0AD
:104060000E94E90A84E00E94530E882309F4A3CD3C
:1040700010928605ADCE80918505882309F471C024
:1040800007E913E01A830983A981BA8118962D9153
:104090003D914D915C911B976D917D918D919C917E
:1040A0000E94AA29E981FA816083718382839383C4
:1040B00024853585468557856481758186819781FC
:1040C0000E94AA29A981BA8114966D937D938D933C
:1040D0009C9317975096BA83A983E7E7F5E0EA1710
:1040E000FB0791F68091950390919603019690932A
:1040F00096038093950365E070E00E94812C892BE4
:1041000011F40E94A31180919503909196034F970B
:104110002CF01092850581E08093830580918505C0
:10412000882309F448CDD80114966D917D918D9125
:104130009C9117970E94922A6B01F801608171810E
:10414000828193810E94922ACB0141E0B6010E94B4
:10415000B00E005F1F4F29813A812017310719F7F0
:104160002ACD80918405882309F43EC00E943E0E2A
:1041700040E250E050937D0540937C0588E190E05B
:1041800090937B0580937A056FE670E185E09AE075
:104190000E94E90A609123017091240185E09AE070
:1041A0000E9485100E94690E2FB7F89480918D03AC
:1041B00090918E03A0918F03B09190032FBF4091F7
:1041C0009103509192036091930370919403841B27
:1041D000950BA60BB70B813D9740A105B10508F4DF
:1041E000F0CB10928405EDCB809183058111F3C350
:1041F00080E20E945E0E882361F0809121019091FF
:104200002201181619062CF402979093220180932C
:10421000210180E40E945E0E882361F080912101DB
:10422000909122018A3791052CF4029690932201F5
:104230008093210188E00E945E0E882381F08091A6
:10424000290190912A01A0912B01B0912C0180931A
:10425000890390938A03A0938B03B0938C0384E02B
:104260000E94530E882329F081E0809332010E943E
:104270007E120E94C61220912D0130912E01409194
:104280002F01509130016091890370918A038091D0
:104290008B0390918C030E94AA296B017C01C09230
:1042A0008903D0928A03E0928B03F0928C03609191
:1042B0001F0170912001072E000C880B990B0E94A2
:1042C000CA2AA70196010E94AA290E94922A6B334A
:1042D00071050CF02DC17093200160931F01809136
:1042E0001F019091200197FF0CC0109220011092A5
:1042F0001F011092890310928A0310928B0310926F
:104300008C0320E030E040E852E460918503709136
:10431000860380918703909188030E94AA290E94B6
:10432000922A69877A878B879C87C0901B01D090DF
:104330001C01E0901D01F0901E01C701B6010E9412
:104340002B2C2B013C0149855A85BA01550F880B4E
:10435000990B0E94CA2A4B015C0120E030E040E04A
:1043600052E4C301B2010E94BE2B9B01AC01C50106
:10437000B4010E94AA290E94922A6D837E838F83B2
:104380009887C701B6010E941B2A20E030E040E078
:1043900052E40E94BE2B20E030E0A9010E94AA292D
:1043A0000E94922A69837A838B839C83C090170131
:1043B000D0901801E0901901F0901A01C701B601E0
:1043C0000E942B2C2B013C01AD81BE81BD01BB0F96
:1043D000880B990B0E94CA2A4B015C0120E030E057
:1043E00040E052E4C301B2010E94BE2B9B01AC012C
:1043F000C501B4010E94AA290E94922A2B01C7017B
:10440000B6010E941B2A4B015C01E981FA81BF01C0
:10441000FF0F880B990B0E94CA2A6B017C0120E0D8
:1044200030E040E052E4C501B4010E94BE2B9B0184
:10443000AC01C701B6010E94AA290E94922A6B0111
:1044400080918303909184039C01220F331FF90113
:10445000E15EFC4F5182408225543D4FD901CD92FF
:10446000DC92019662E370E00E94812C8C019093B3
:104470008403809383031E861D868D859E85800F11
:10448000911F62E370E00E94812CFC01EE0FFF1F80
:10449000DF01A554BD4F6D917C91E15EFC4F41E081
:1044A000808191810E946C0EED85FE853196FE879C
:1044B000ED87F29711F729813A814D815E8170E095
:1044C00060E089859A850E943F0F9601A20169816B
:1044D0007A818D819E810E943F0F42E069817A81BD
:1044E0008D819E810E94B00E42E0B601C2010E9401
:1044F000B00E00911F0110912001209121013091F7
:1045000022013A832983790136E0E30EF11C4981C7
:104510005A81E416F506D9F046E0B80189819A81FE
:104520000E948A0E89819A8101969A838983EFCFAE
:104530002AE330E03093200120931F011092890379
:1045400010928A0310928B0310928C03C8CE809134
:10455000BA02882359F06091B8027091B90243E021
:104560008091B6029091B7020E94B00E1092FE099F
:104570001092FD091092FC091092FB091092000A9A
:104580001092FF0963E672E080EF99E00E94A111AA
:104590006091B4027091B50280EF99E00E9485109D
:1045A000A0E5B0E0B093FE09A093FD09B093FC092B
:1045B000A093FB091092000A1092FF096BE672E0CB
:1045C00080EF99E00E94A111609123017091240174
:1045D00080EF99E00E948510C0901B01D0901C01D3
:1045E000E0901D01F0901E01C701B6010E942B2C26
:1045F0002B013C01C701B6010E941B2A6D837E83FB
:104600008F839887C0901701D0901801E09019010E
:10461000F0901A01C701B6010E942B2C4B015C01DE
:10462000C701B6010E941B2A69837A838B839C830E
:10463000809185058111D4C020E030E040E052E453
:10464000C301B2010E94BE2B20E030E040E852E4FA
:104650000E94AA290E94922A072E000C880B990B0F
:104660000E94CA2A6B017C0120E030E040E052E465
:10467000C501B4010E94BE2B9B01AC01C701B6016C
:104680000E94AA290E94922A2091210130912201A0
:10469000261B370B37FF03C0319521953109263092
:1046A00031050CF09DC020E030E040E052E46D8127
:1046B0007E818F8198850E94BE2B0E94922A072EB0
:1046C000000C880B990B0E94CA2A6B017C0120E028
:1046D00030E040E052E469817A818B819C810E94C4
:1046E000BE2B9B01AC01C701B6010E94AA290E9402
:1046F000922A20911F0130912001261B370B37FF92
:1047000003C0319521953109263031050CF068C080
:1047100081E0809385051092960310929503E7E956
:10472000F3E0FA83E98360912101709122016D5FCA
:104730007F4F072E000C880B990B0E94CA2AA98173
:10474000BA816D937D938D939C93139760911F0114
:10475000709120016D5F7F4F072E000C880B990B25
:104760000E94CA2AE981FA816483758386839783CC
:104770000E94D82825E030E040E050E00E94462921
:1047800062507109810991090E94CA2AA981BA81DE
:1047900018966D937D938D939C931B970E94D828B8
:1047A00025E030E040E050E00E9446296250710967
:1047B000810991090E94CA2AE981FA816487758773
:1047C000868797870E94A31129813A81205F3F4FF6
:1047D0003A83298347E354E04217530709F0A3CFF4
:1047E00080912101909122012091B6023091B7026F
:1047F000821B930B97FF03C09195819591090697B2
:104800000CF0D9C980911F01909120012091B8022C
:104810003091B902821B930B97FF03C0919581954C
:10482000910906970CF0C7C91092BA028091B402A0
:104830009091B50201969093B5028093B402809155
:10484000B302811123C08EE190E00E94290E8AE01C
:1048500090E00E94010E1092C0008EE390E00E9452
:10486000290E8AE090E00E94010E1092C0008EE1B5
:1048700090E00E94290E8AE090E00E94010E1092C2
:1048800080051092C00081E08093B3028091B40251
:104890009091B502B1010E94812C892B09F098C03A
:1048A000809123019091240101969093240180939B
:1048B000230121E0209384053FB7F89480918D0374
:1048C00090918E03A0918F03B09190033FBF80938E
:1048D000910390939203A0939303B09394038091D8
:1048E00023019091240104972CF02093160120932A
:1048F000830561C92DEC3CEC4CE85FE36091AF02AD
:104900007091B0028091B1029091B2020E94BE2BD0
:104910006093AF027093B0028093B1029093B202A1
:104920002DEC3CEC4CE85FE36091AB027091AC0283
:104930008091AD029091AE020E94BE2B6093AB02BB
:104940007093AC028093AD029093AE0220E030E011
:1049500040E05FE3609112017091130180911401B6
:10496000909115010E94AA2960931201709313017E
:10497000809314019093150120E030E040E05FE364
:1049800060910E0170910F018091100190911101C1
:104990000E94AA2960930E0170930F018093100169
:1049A000909311012DEC3CEC4CEC5DE360910A011D
:1049B00070910B0180910C0190910D010E94AA2928
:1049C00060930A0170930B0180930C0190930D0189
:1049D0000E946212F0C80E943E0E809123019091C5
:1049E000240104970CF46BC380911601882309F409
:1049F00043C08AE190E090937D0580937C05A8E117
:104A0000B0E0B0937B05A0937A056FE570E185E097
:104A10009AE00E94E90A2FB7F89480918D03909153
:104A20008E03A0918F03B09190032FBF409191030B
:104A3000509192036091930370919403841B950BA2
:104A4000A60BB70B893B9B40A105B10510F0109256
:104A500016010E94690E88E00E94530E811106C063
:104A600084E00E94530E882309F4A5C881E0809356
:104A700032010E947E129FC80E94C61220910A0134
:104A800030910B0140910C0150910D0129873A871B
:104A90004B875C875058298B3A8B4B8B5C8B4090B3
:104AA0000601509007016090080170900901C30150
:104AB000B2010E942B2C69A77AA78BA79CA7809193
:104AC000020190910301A0910401B09105018D8331
:104AD0009E83AF83B8879C01AD01CD01B9010E94CF
:104AE000AA294B015C01AC019B01C301B2010E94E8
:104AF000A9290E942B2C6DA77EA78FA798AB2D818B
:104B00003E814F815885C301B2010E94A929698362
:104B10007A838B839C830E942B2C6D8B7E8B8F8B57
:104B2000988F2091A7023091A8024091A90250913C
:104B3000AA022D873E874F87588BCA01B9010E9470
:104B4000BE2B20E030E048EC51E40E94BE2B69A36C
:104B50007AA38BA39CA38091A3029091A402A0911D
:104B6000A502B091A602898F9A8FAB8FBC8F9C0152
:104B7000AD01CD01B9010E94BE2B20E030E048EC30
:104B800051E40E94BE2B6B017C0169817A818B818B
:104B90009C810E941B2A6D8F7E8F8F8F98A3A3010B
:104BA0009201C301B2010E94AA29A50194010E94A9
:104BB000A9290E941B2A9B01AC0160E070E080E4FF
:104BC00090E40E94A92920E030E048EC51E40E94E2
:104BD000BE2B6DA37EA38FA398A7C301B2010E9431
:104BE0001B2A69AB7AAB8BAB9CAB20912501309132
:104BF0002601409127015091280129833A834B8354
:104C00005C8320E030E040E450E469897A898B8954
:104C10009C890E94BE2B29A53AA54BA55CA50E94A4
:104C2000BE2B4B015C012DA53EA54FA558A9698956
:104C30007A898B899C890E94BE2B9B01AC01C5019E
:104C4000B4010E94AA294B015C012D8D3E8D4F8D30
:104C500058A1C701B6010E94BE2B29A13AA14BA1C0
:104C60005CA10E94AA29698B7A8B8B8B9C8B20E09C
:104C700030E040E050EC6D897E898F89988D0E94EC
:104C8000BE2B9B01AC0169897A898B899C890E9422
:104C9000BE2B9B01AC01C501B4010E94AA292DA124
:104CA0003EA14FA158A50E94202A29813A814B811B
:104CB0005C810E94BE2B298D3A8D4B8D5C8D0E94AC
:104CC000AA294B015C018092A3029092A402A092B7
:104CD000A502B092A60229853A854B855C85CA015A
:104CE000B9010E94AA2929A93AA94BA95CA90E9445
:104CF000BE2B69877A878B879C87A7019601C7019E
:104D0000B6010E94AA299B01AC0169857A858B8531
:104D10009C850E94AA296B017C012D8D3E8D4F8DB3
:104D200058A169A17AA18BA19CA10E94BE2B9B01D5
:104D3000AC01C701B6010E94AA296B017C012D8933
:104D40003E894F89588DCA01B9010E94AA299B0149
:104D5000AC01C701B6010E94BE2B2DA13EA14FA1FF
:104D600058A50E94202A29813A814B815C810E94AA
:104D7000BE2B2D853E854F8558890E94AA296987BB
:104D80007A878B879C876093A7027093A802809391
:104D9000A9029093AA02A501940169817A818B816D
:104DA0009C810E94BE2BA30192010E94AA292B0183
:104DB0003C014092060150920701609208017092F6
:104DC000090129853A854B855C8569817A818B81CA
:104DD0009C810E94BE2B2D813E814F8158850E946F
:104DE000AA296D837E838F839887609302017093D5
:104DF00003018093040190930501C0901B01D090A2
:104E00001C01E0901D01F0901E01C701B6010E9437
:104E10002B2C20E030E040E052E40E94BE2B20E04A
:104E200030E040E852E40E94AA290E94922A698355
:104E30007A838B839C83C701B6010E941B2A20E0E2
:104E400030E040E052E40E94BE2B0E94922A6D8B1B
:104E50007E8B8F8B988FC0901701D0901801E090B7
:104E60001901F0901A01C701B6010E942B2C6D8721
:104E70007E878F87988B49815A81BA01550F880B9D
:104E8000990B0E94CA2A4B015C0120E030E040E00F
:104E900052E46D857E858F8598890E94BE2B9B018B
:104EA000AC01C501B4010E94AA290E94922A6D8713
:104EB0007E878F87988BC701B6010E941B2A4B0102
:104EC0005C01AD89BE89BD01BB0F880B990B0E94A7
:104ED000CA2A6B017C0120E030E040E052E4C501C9
:104EE000B4010E94BE2B9B01AC01C701B6010E9418
:104EF000AA290E94922A698F7A8F8B8F9C8FC30177
:104F0000B2010E942B2C20E030E048EC51E40E94DA
:104F1000BE2B20E030E040E852E40E94AA290E9423
:104F2000922A698B7A8B8B8B9C8BC301B2010E9476
:104F30001B2A20E030E048EC51E40E94BE2B9B018C
:104F4000AC0160E070E080E892E40E94A9290E9430
:104F5000922A2B016D817E818F8198850E942B2C56
:104F60004B015C01E989FA89BF01FF0F880B990B9E
:104F70000E94CA2A6B017C0120E030E048EC51E439
:104F8000C501B4010E94BE2B9B01AC01C701B60153
:104F90000E94AA290E94922A6D8F7E8F8F8F98A3DC
:104FA0006D817E818F8198850E941B2A4B015C0157
:104FB000B201052C000C880B990B0E94CA2A6B01C8
:104FC0007C0120E030E048EC51E4C501B4010E94CE
:104FD000BE2B9B01AC01C701B6010E94A9290E940A
:104FE000922A6B018D859E852D8D3E8D821B930BA4
:104FF0000396079788F5898D9A8D8C199D090396DC
:10500000079750F58090AB029090AC02A090AD0253
:10501000B090AE022DEC3CEC4CE45FE369857A8500
:105020008B859C850E94BE2B6093AB027093AC0273
:105030008093AD029093AE022DEC3CEC4CE45FE328
:10504000C501B4010E94BE2B6093A7027093A80211
:105050008093A9029093AA022D893E8949815A81A1
:1050600070E060E080E490E00E943F0F298D3A8D6F
:105070004D855E856D897E8989819A810E943F0F69
:1050800043E0698D7A8D8D859E850E94B00E9201D8
:1050900049895A8960E470E080E490E00E943F0F03
:1050A00096014D8D5E8DB20189899A890E943F0FCC
:1050B00043E0B6018D8D9E8D0E94B00ECACC48E2B1
:1050C00050E050937D0540937C0588E190E09093FB
:1050D0007B0580937A0565E570E185E09AE00E94A2
:1050E000E90AA2E1B0E0B0937D05A0937C05E8E277
:1050F000F0E0F0937B05E0937A0564E470E185E0ED
:105100009AE00E94E90A88E00E94530E882309F47D
:10511000A0CC0E947E129DCC8F929F92AF92BF92A4
:10512000CF92DF92EF92FF92CF93DF93EC016881F1
:1051300079818A819B81611571058105910521F431
:1051400064E279ED8BE597E02DE133EF41E050E04B
:105150000E94462949015A019B01AC01A7EAB1E42A
:105160000E9465296B017C01ACEEB4EFA5019401AE
:105170000E947329C60ED71EE81EF91EF7FE06C050
:1051800081E0C81AD108E10880E8F80AC882D9820B
:10519000EA82FB82C701B6019F77DF91CF91FF9032
:1051A000EF90DF90CF90BF90AF909F908F90089539
:1051B0008F929F92AF92BF92CF92DF92EF92FF9227
:1051C00060913F01709140018091410190914201B5
:1051D000611571058105910521F464E279ED8BE596
:1051E00097E02DE133EF41E050E00E94462949016C
:1051F0005A019B01AC01A7EAB1E40E9465296B0149
:105200007C01ACEEB4EFA50194010E947329C60E97
:10521000D71EE81EF91EF7FE06C081E0C81AD108A5
:10522000E10880E8F80AC0923F01D0924001E09284
:105230004101F0924201C701B6019F77FF90EF90C4
:10524000DF90CF90BF90AF909F908F900895609324
:105250003F01709340018093410190934201089572
:10526000F999FECF92BD81BDF89A992780B508952E
:10527000262FF999FECF1FBA92BD81BD20BD0FB672
:10528000F894FA9AF99A0FBE01960895052E97FBA5
:105290001EF400940E945D2957FD07D00E947829D2
:1052A00007FC03D04EF40C945D2950954095309541
:1052B00021953F4F4F4F5F4F089590958095709582
:1052C00061957F4F8F4F9F4F08950E949A29A59F08
:1052D000900DB49F900DA49F800D911D11240895F1
:1052E000B7FF0C9465290E946529821B930B0895D2
:1052F000A1E21A2EAA1BBB1BFD010DC0AA1FBB1FDA
:10530000EE1FFF1FA217B307E407F50720F0A21B4B
:10531000B30BE40BF50B661F771F881F991F1A94B8
:1053200069F760957095809590959B01AC01BD01E2
:10533000CF010895A29FB001B39FC001A39F700D3C
:10534000811D1124911DB29F700D811D1124911D8D
:1053500008955058BB27AA270E94C1290C946B2B93
:105360000E94322B38F00E94392B20F039F49F3FF5
:1053700019F426F40C942F2B0EF4E095E7FB0C9413
:10538000292BE92F0E94902B58F3BA176207730755
:105390008407950720F079F4A6F50C94B22B0EF44F
:1053A000E0950B2EBA2FA02D0B01B90190010C0135
:1053B000CA01A0011124FF27591B99F0593F50F44D
:1053C000503E68F11A16F040A22F232F342F4427A5
:1053D000585FF3CF469537952795A795F04053959D
:1053E000C9F77EF41F16BA0B620B730B840BBAF06D
:1053F0009150A1F0FF0FBB1F661F771F881FC2F7D8
:105400000EC0BA0F621F731F841F48F487957795EB
:105410006795B795F7959E3F08F0B0CF9395880FA5
:1054200008F09927EE0F9795879508950E94052B10
:1054300008F481E008950E94422BE3950C947C2BA4
:105440000E94342A0C946B2B0E94392B58F00E9436
:10545000322B40F029F45F3F29F00C94292B511195
:105460000C94B32B0C942F2B0E94902B68F3992350
:10547000B1F3552391F3951B550BBB27AA27621750
:105480007307840738F09F5F5F4F220F331F441F5D
:10549000AA1FA9F335D00E2E3AF0E0E832D0915091
:1054A0005040E695001CCAF72BD0FE2F29D0660F7E
:1054B000771F881FBB1F261737074807AB07B0E8C1
:1054C00009F0BB0B802DBF01FF2793585F4F3AF0C7
:1054D0009E3F510578F00C94292B0C94B32B5F3F21
:1054E000E4F3983ED4F3869577956795B795F7954D
:1054F0009F5FC9F7880F911D9695879597F9089535
:10550000E1E0660F771F881FBB1F621773078407D0
:10551000BA0720F0621B730B840BBA0BEE1F88F7DF
:10552000E09508950E94992A6894B1110C94B32BC8
:1055300008950E94982B88F09F5798F0B92F9927CB
:10554000B751B0F0E1F0660F771F881F991F1AF06E
:10555000BA95C9F714C0B13091F00E94B22BB1E0F6
:1055600008950C94B22B672F782F8827B85F39F0F5
:10557000B93FCCF3869577956795B395D9F73EF407
:1055800090958095709561957F4F8F4F9F4F0895AF
:10559000E89409C097FB3EF49095809570956195CD
:1055A0007F4F8F4F9F4F9923A9F0F92F96E9BB2783
:1055B0009395F695879577956795B795F111F8CFFF
:1055C000FAF4BB0F11F460FF1BC06F5F7F4F8F4F6A
:1055D0009F4F16C0882311F096E911C0772321F060
:1055E0009EE8872F762F05C0662371F096E8862FF8
:1055F00070E060E02AF09A95660F771F881FDAF74F
:10560000880F9695879597F90895990F0008550F7B
:10561000AA0BE0E8FEEF16161706E807F907C0F038
:1056200012161306E407F50798F0621B730B840B40
:10563000950B39F40A2661F0232B242B252B21F41A
:1056400008950A2609F4A140A6958FEF811D811DBA
:10565000089597F99F6780E870E060E008959FEFF4
:1056600080EC089500240A941616170618060906F9
:10567000089500240A9412161306140605060895C8
:105680000C942F2B0E94982BD8F3E894E0E0BB27D2
:105690009F57F0F02AED3FE049EC06C0EE0FBB0F3C
:1056A000661F771F881F28F0B23A620773078407C6
:1056B00028F0B25A620B730B840BE3959A9572F73C
:1056C000803830F49A95BB0F661F771F881FD2F77A
:1056D00090480C943A2C092E0394000C11F4882362
:1056E00052F0BB0F40F4BF2B11F460FF04C06F5F9A
:1056F0007F4F8F4F9F4F0895EF93E0FF07C0A2EABF
:105700002AED3FE049EC5FEB0E94C1290E946B2B20
:105710000F90039401FC9058ECEAF0E00C94462CB6
:1057200057FD9058440F551F59F05F3F71F0479552
:10573000880F97FB991F61F09F3F79F08795089537
:10574000121613061406551FF2CF4695F1DF08C056
:10575000161617061806991FF1CF86957105610573
:1057600008940895E894BB2766277727CB0197F91B
:1057700008950E94052B08F48FEF08950E94D12B05
:105780000C946B2B0E94322B38F00E94392B20F0A6
:10579000952311F00C94292B0C942F2B11240C948D
:1057A000B32B0E94902B70F3959FC1F3950F50E09F
:1057B000551F629FF001729FBB27F00DB11D639FC3
:1057C000AA27F00DB11DAA1F649F6627B00DA11D69
:1057D000661F829F2227B00DA11D621F739FB00D0F
:1057E000A11D621F839FA00D611D221F749F33277F
:1057F000A00D611D231F849F600D211D822F762F18
:105800006A2F11249F5750409AF0F1F088234AF0F4
:10581000EE0FFF1FBB1F661F771F881F9150504060
:10582000A9F79E3F510580F00C94292B0C94B32BC3
:105830005F3FE4F3983ED4F3869577956795B795E7
:10584000F795E7959F5FC1F7FE2B880F911D969501
:10585000879597F908959F930E94422B0F9007FC1C
:10586000EE5F0C947C2B0E94052B880B990B0895FE
:105870009F3F31F0915020F4879577956795B795C4
:10588000880F911D9695879597F908959F938F930B
:105890007F936F93FF93EF939B01AC010E94BE2B0C
:1058A000EF91FF910E945A2C2F913F914F915F9160
:1058B0000C94BE2BDF93CF931F930F93FF92EF9225
:1058C000DF927B018C01689406C0DA2EEF010E9402
:1058D000D12BFE01E894A5912591359145915591E3
:1058E000A6F3EF010E94C129FE019701A801DA94F5
:1058F00069F7DF90EF90FF900F911F91CF91DF91AB
:10590000089597FB072E16F4009407D077FD09D071
:105910000E94952C07FC05D03EF4909581959F4FF1
:105920000895709561957F4F0895AA1BBB1B51E1A7
:1059300007C0AA1FBB1FA617B70710F0A61BB70BFF
:10594000881F991F5A95A9F780959095BC01CD01A4
:105950000895EE0FFF1F0590F491E02D0994F8943F
:02596000FFCF77
:105962000110DB0F493FDB0FC93F0000003F000081
:10597200803F0000803F01DB0FC93FDB0FC93F20A2
:1059820000400001000000003FCDCCCCBDCDCC4C8E
:105992003D0101FFFFFFFF00E100000000000001E8
:1059A200000000030100C18081000000000000002F
:1059B200D6095509F709EC093D0AFB09190A000045
:1059C2000000540D0D0B2710261000000000C30F1D
:1059D2000D0B271026106E616E00696E66006F76E1
:1059E20066003E20537461727448616F7300202018
:1059F200537461727448616F73003E20536574740E
:105A0200696E677348616F7300202053657474690F
:105A12006E677348616F73003E2053636F726573E4
:105A220048616F7300202053636F72657348616F22
:105A320073003E20477261766974795F50656E64C7
:105A4200756C756D3A200020204772617669747911
:105A52005F50656E64756C756D3A20004F4E004F55
:105A62004646003E20477261766974792056616C21
:105A72003A20002020477261766974792056616C61
:105A82003A20003E204A756D7020466F7263653A77
:105A9200200020204A756D7020466F7263653A209F
:105AA200003E2050656E64756C756D205370643ACB
:105AB2002000202050656E64756C756D20537064F3
:105AC2003A200053636F72653A20004C6576656C2C
:045AD2003A20000076
:00000001FF
